:020000040800F2
:10000000103200202D0200083502000837020008D7
:10001000390200083B0200083D0200080000000011
:100020000000000000000000000000003F02000887
:10003000410200080000000043020008BD03000860
:10004000BF030008C1030008C3030008C50300087C
:10005000C7030008C9030008CB030008CD0300084C
:10006000CF030008D1030008D3030008D50300081C
:10007000D7030008D9030008DB030008DD030008EC
:10008000DF030008E1030008E3030008E5030008BC
:10009000E7030008E9030008EB030008ED0300088C
:1000A000EF030008F1030008F3030008F50300085C
:1000B000F7030008F9030008FB030008FD0300082C
:1000C000FF030008010400080304000805040008F9
:1000D00007040008090400080B0400080D040008C8
:1000E0000F040008110400081304000800000000B9
:1000F0000000000000000000000000000000000000
:1001000000000000000000001504000817040008AB
:10011000190400081B0400081D0400081F0400083F
:10012000210400082304000825040008270400080F
:10013000290400082B0400082D0400082F040008DF
:1001400031040008330400083504000837040008AF
:10015000000000000000000000000000000000009F
:10016000000000000000000000000000000000008F
:10017000000000000000000000000000000000007F
:10018000000000000000000000000000000000006F
:10019000000000000000000000000000000000005F
:1001A000000000000000000000000000000000004F
:1001B000000000000000000000000000000000003F
:1001C000000000000000000000000000000000002F
:1001D000000000000000000000000000000000001F
:1001E000000000000000000000000000000000000F
:1001F00000000000000000000000000000000000FF
:10020000550000000000000053544D334150503061
:100210006C40000064400000DFF80CD000F066F88D
:1002200000480047E141000810320020064880479E
:1002300006480047FEE7FEE7FEE7FEE7FEE7FEE7CB
:10024000FEE7FEE7FEE7FEE7C92F000819020008F7
:1002500040EA01039B0703D009E008C9121F08C048
:10026000042AFAD203E011F8013B00F8013B521EC8
:10027000F9D27047D2B201E000F8012B491EFBD23F
:1002800070470022F6E710B513460A4604461946A1
:10029000FFF7F0FF204610BD421E12F8013F002B71
:1002A000FBD111F8013B02F8013B002BF9D170475B
:1002B000421C10F8011B0029FBD1801A704730B591
:1002C00004460020034600E05B1C934203D2E05C3E
:1002D000CD5C401BF8D030BD034611F8012B00F86F
:1002E000012B002AF9D1184670470000064C074D33
:1002F00006E0E06840F0010394E8070098471034F6
:10030000AC42F6D3FFF78CFF0C4400083C440008D5
:1003100070B58C1810F8015B15F0070301D110F8C7
:10032000013B2A1106D110F8012B03E010F8016BF4
:1003300001F8016B5B1EF9D12B0705D40023521E77
:100340000DD401F8013BFAE710F8013BCB1A921CDF
:1003500003E013F8015B01F8015B521EF9D5A142DD
:10036000D8D3002070BD000002480168491C01601C
:100370007047000000020020042801D300207047CD
:10038000084900EB800001EB8000704704207047B3
:10039000332801D300207047034901EBC0007047A8
:1003A00033207047784300081C0200207047FEE7A6
:1003B000FEE7FEE7FEE770477047704770477047FB
:1003C0007047704770477047704770477047704775
:1003D0007047704770477047704770477047704765
:1003E0007047704770477047704770477047704755
:1003F0007047704770477047704770477047704745
:100400007047704770477047704770477047704734
:100410007047704770477047704770477047704724
:100420007047704770477047704770477047704714
:10043000704770477047704770B515460E4600F01C
:100440008DF9C4680021204600F05EFA00220221E6
:10045000204600F0EBFAE6606560012202212046AA
:1004600000F0E4FA2046BDE87040012100F04CBAEB
:100470002DE9F04704284ED208B978480078814623
:1004800000F06CF909EBC90101EB49177449064604
:1004900011F82700020611D5C0070FD001EB870421
:1004A00004F18C008A46804603F08EFD05042D0C75
:1004B0000FD0202D1ED9202500261DE00021F06838
:1004C00000F022FAF068BDE8F0470022022100F0B7
:1004D000ADBA1AF82710002221F001010AF82710FE
:1004E0000221F06800F0A2FAF068BDE8F0470021B0
:1004F00000F00ABA002606E0404603F044FDA119C8
:10050000761C8870B6B2AE42F6D3A11C2A46484685
:10051000BDE8F04790E7BDE8F0872DE9F0410428F9
:1005200056D208B94D480078044600F017F9054640
:10053000066904EBC4004A4F00EB441417F824008A
:10054000000605D43046BDE8F041002100F0DCB9DA
:10055000304600F057FAC0F120001FFA80F8002161
:10056000304600F0D1F907EB84042020617800299F
:10057000297801EBC10202EB411107EB81011AD08E
:100580002231F16070600121304600F0BDF96078E1
:1005900098B100206070287800EBC00101EB40109A
:1005A00007EB800111F1420104F174004246BDE8FD
:1005B000F04103F0A1BD4231E3E7012060702878EB
:1005C00000EBC00101EB401007EB80012231EBE7AB
:1005D000BDE8F08110B50C46042815D208B91F48B3
:1005E000007800EBC00101EB40111D4810F82120FC
:1005F00012060AD500EB81008C3003F0C4FC411CCC
:1006000002D0C0F30800A08010BD2046BDE8104015
:10061000002240F2277102F080BD30B40B4604285E
:1006200019D208B90D4800780D4C00EBC00101EB60
:10063000401014F82010090606D504EB800030BCE9
:10064000D1B2743003F098BD30BC002240F2255185
:10065000184602F062BD30BC70470000BC030020A9
:100660007C2B0020704710B5202000F0CFF9002827
:1006700007D0202000F03CF9BDE810400320FFF730
:10068000F7BE10BD704710B54FF40054204600F07F
:10069000BDF9002807D0204600F02AF9BDE8104037
:1006A0000020FFF7E5BE10BD7047704710B54FF052
:1006B0000074204600F0AAF9002807D0204600F078
:1006C00017F9BDE810400120FFF7D2BE10BD10B5EC
:1006D0001E4C40F22551204602F000FD002809D0B2
:1006E000201D00882146C0F30802BDE8104000200C
:1006F000FFF793BF10BD10B5154C40F225512046B1
:1007000002F0ECFC00280BD0201D00882146C0F32D
:10071000080210480280BDE810400120FFF77DBFAD
:1007200010BD10B50C4C40F22551204602F0D6FC0D
:10073000002809D0201D00882146C0F30802BDE82A
:1007400010400320FFF769BF10BD000000380140D2
:1007500000440040BE03002000480040042801D3AC
:1007600000207047034900EBC00001EB8000704798
:1007700004207047C003002010B50446552000F047
:1007800073FB02F0B7FE552000F048FB0649042039
:100790000870002048700548007801F067FB20468B
:1007A000BDE8104003F0C7BA9C0400205C010020A3
:1007B000014908607047000088860D4201490860C1
:1007C0007047000000860D4210B5084C02200A2236
:1007D000207007484FF47A71007801F01BFBA06885
:1007E000BDE810404FF4007103F0C3BA9C04002030
:1007F0005C010020002305220121142001F04DBFDF
:10080000002305220121184601F047BF00230522DD
:100810000121082001F041BF0023052201210F2002
:1008200001F03BBF0023052201210C2001F035BF60
:10083000002305220121332001F02FBF10B5FFF75F
:10084000D9FF0021BDE81040142001F05EBF10B5B3
:10085000FFF7D6FF0021BDE81040084601F055BF64
:1008600010B5FFF7D3FF0021BDE81040082001F0CC
:100870004CBF10B5FFF7D0FF0021BDE810400F209E
:1008800001F043BF10B5FFF7CDFF0021BDE81040D8
:100890000C2001F03ABF10B5FFF7ACFF0121BDE815
:1008A0001040142001F031BF10B5FFF7A9FF01215E
:1008B000BDE81040002001F028BF10B5FFF7A6FFEB
:1008C0000121BDE81040082001F01FBF10B5FFF75F
:1008D000A3FF0121BDE810400F2001F016BF10B5A5
:1008E000FFF7A0FF0121BDE810400C2001F00DBF73
:1008F000C10002D50249086070470249486070474C
:1009000004040240000002400029016802D041F0C6
:10091000010102E04FF6FE721140016070470000D5
:1009200001684FF6FE7211400160002101604160D4
:100930008160C1603149314A0839904203D1486829
:1009400040F00F0006E02D4A1432904204D148686E
:1009500040F0F00048607047284A2832904203D1A6
:10096000486840F47060F5E7244A3C32904203D175
:10097000486840F47040EDE7204A5032904203D17D
:10098000486840F47020E5E71C4A6432904203D185
:10099000486840F47000DDE7184A7832904203D18D
:1009A000486840F07060D5E7154A111F904203D1A6
:1009B000086840F00F0006E0114A1432904204D15A
:1009C000086840F0F000086070470D4A28329042F5
:1009D00003D1086840F47060F5E7094A3C32904260
:1009E00003D1086840F47040EDE7054A5032904268
:1009F000EAD1086840F47020E5E7000008000240F2
:100A000008040240406880B27047000001460020A0
:100A1000CA0001D5034A00E0034A12680A4200D026
:100A2000012070470004024000000240002A0268D2
:100A300001D00A4300E08A430260704730B5036882
:100A400047F6F07293430C6A8A682243D1E9044561
:100A50002C4322438C692243CC6922434C6A2243B3
:100A60008C6A22431A430260CA6842600A68826044
:100A70004968C16030BD0021016041608160C16092
:100A8000016141618161C1610162416281627047BE
:100A900070B504460E46D4E9030528B1502208A1DA
:100AA00000F0CAFA0020E06021460E4802F0C6FDC0
:100AB000002D04D03046AC46BDE87040604770BDA4
:100AC0002E2E5C736F757263655C6170705C6D6D0A
:100AD000695C635C79785F6D6D695F73656E642EC8
:100AE00063000000B014002010B5154802F004FEA9
:100AF000044613480C3002F0FFFD0444104818303F
:100B000002F0FAFD204480B2082801D0C72210E08C
:100B10000B4802F0F1FD044609480C3002F0ECFDF0
:100B200020180CD00748007801F0F0F9002806D111
:100B3000CA22BDE8104004A1002001F023B910BD75
:100B400098140020D80100202E2E5C736F757263FC
:100B5000655C6170705C6D6D695C635C79785F6D1C
:100B60006D695F73656E642E630000002DE9F041CE
:100B70001448007801F0CAF920B102F009FC0546DA
:100B800000241AE0602210E0204602F0FBFB07463A
:100B9000406902F0B1FD0646B86902F0ADFD30448F
:100BA000C1B2B889884206D06722BDE8F04106A1EB
:100BB000002001F0E7B8641CE4B2AC42E4D3BDE825
:100BC000F0810000080200202E2E5C736F757263A6
:100BD000655C68616C5C746F6F6C626F785C635CA1
:100BE00079785F64796D5F6472762E63000000002F
:100BF000064900200860091D0860091D0860091DDC
:100C0000086002490248143108607047000401403E
:100C1000FFFF0F0070B505464FF43026304600F058
:100C20003FF8042811D1094C206940F002002061EE
:100C30006561206940F040002061304600F030F8E6
:100C4000216941F6FD721140216170BD0020024012
:100C500008490420CA68D20701D001207047CA6839
:100C6000520701D502207047C968C906FBD5032089
:100C700070470000002002400248016941F08001F5
:100C80000161704700200240034802494160034966
:100C9000416070472301674500200240AB89EFCDDA
:100CA00000B50346FFF7D4FF03E000BFFFF7D0FF16
:100CB0005B1E012803D0002B00D1052000BD002BB6
:100CC000F4D1FAE7F0B50A7A002502F00F03D20654
:100CD00001D54A6813430C784FF00F0E0122ECB196
:100CE000D0F800400F8802FA05F63740B74211D11C
:100CF0004FEA850C0EFA0CF724EA070703FA0CF406
:100D00003C438F68282F02D0482F02D002E0466172
:100D100000E006616D1C082DE4D304600C88FF2CF4
:100D20001ED944685FF0000606F1080702FA07F5CD
:100D30000F882F40AF420FD14FEA860C0EFA0CF706
:100D4000BC4303FA0CF73C438F68282F00D1456160
:100D50008F68482F00D10561761C082EE4D34460CB
:100D6000F0BD0000F0B5144C002801DAE36900E0A2
:100D70006368420D120185B2C0F301579540C0F37C
:100D80000346032F05D0C2020AD50322B240934383
:100D900007E023F07062636823F07063636002E031
:100DA000AB4343F0706201B12A43002801DAE261EB
:100DB000F0BD6260F0BD000000000140416170477D
:100DC0000161704710B5552905D0522209A10020B4
:100DD00000F0D8FF09E0802807D24FF0006101EB56
:100DE000C020FFF717FF042801D0002010BD01200C
:100DF00010BD00002E2E5C736F757263655C6861B8
:100E00006C5C6472697665725C635C68616C5F6679
:100E10006C6173685F6472762E630000552804D09D
:100E2000402206A1002000F0ADBF0E480178002945
:100E300003D000210170FFF71FBF70472E2E5C7397
:100E40006F757263655C68616C5C6472697665720B
:100E50005C635C68616C5F666C6173685F6472762A
:100E60002E63000014020020552804D0302206A171
:100E7000002000F087BF0E480178002903D101212E
:100E80000170FFF701BF70472E2E5C736F757263A0
:100E9000655C68616C5C6472697665725C635C68F1
:100EA000616C5F666C6173685F6472762E630000CC
:100EB000140200202DE9F84F044604200D4600904E
:100EC000552B05D0BC2228A1002000F05BFF43E099
:100ED0002F49A01888423FD8E0073DD1D0073BD129
:100EE0004FF4302AA04656085046FFF7D9FE00902E
:100EF000042831D1DFF89C90D9F8101041F001019D
:100F0000C9F8101000270BE000F046F805EB470188
:100F100015F81700497800EB012028F8020B7F1C18
:100F2000B742F1D35046FFF7BBFE0090D9F810103E
:100F3000042821F00101C9F810100DD100200FE0A4
:100F400005EB400215F81010527801EB022134F83D
:100F5000102089B28A4202D00020BDE8F88F401CE0
:100F6000B042EDD30120F8E72E2E5C736F757263EB
:100F7000655C68616C5C6472697665725C635C6810
:100F8000616C5F666C6173685F6472762E630000EB
:100F9000000004080020024000F066BB10B545F2D6
:100FA000555000F075FB032000F066FB40F6C410BE
:100FB00000F068FB00F058FBBDE8104000F04CBBAF
:100FC000010010B51A4830D0B1F5805F2DD2C91C90
:100FD00021F0030227E0417A21BB4189914221D3CC
:100FE000AA2444724189134B891A0C2913D98118F8
:100FF0000C310C724489A41A0C3C4C8100244C72B4
:10100000086044684C60446804B1216041604281DA
:101010005968491C5960428919681144196020B106
:101020000C3010BD40680028D5D1002010BD000054
:10103000EC1A00200C02002030B428B10C38017AE0
:10104000AA2903D0A0223BE09D2239E0417AAA29B7
:1010500001D0A12234E0002141721D4944890A686F
:10106000121B0A60D0E9002362B1557A55B955893F
:101070002C440C3454814468546003B11A604B68AA
:101080005B1E4B604368A3B11AB154689C4200D107
:1010900010464268547A53685CB9448955892C4497
:1010A0000C3444815268426003B118604868401EA5
:1010B00048600868002808D14868012805D0D32274
:1010C00030BC04A1002000F05DBE30BC70470000C1
:1010D0000C0200202E2E5C736F757263655C686174
:1010E0006C5C746F6F6C626F785C635C79785F685E
:1010F0006561706D656D2E630000000002280ED1E1
:10110000087801280BD106480021418081800178B0
:1011100041F0010101700021022002F0BBBC7047C8
:10112000AC0C00202DE9F04F0D468DB01446002187
:10113000E32002F0AFFC2246294609A802F075FA26
:1011400009A802F0BAFE064609A802F0ABFE054661
:1011500009A802F09FFE5F4C0746A068B0427DD10F
:1011600061687019884279D85B480A224FF47A7115
:10117000007800F04FFE012F01D00420A0E0554878
:101180004FF0010B4FF0000890F80C084FF4007A74
:10119000B6F5067F04D320B94E4981F80CB81FE09C
:1011A00028B14C4890F80C08012819D05CE0C6F52D
:1011B0000060A84206D240F22D1248A1002000F0A3
:1011C000E1FD08E009A802F0DCF90146A0190C30A5
:1011D0002A46FFF73DF8A06851462844A06058E031
:1011E0003C49FF2001F5037781F80C08D7F80390FC
:1011F000384602F05FF810B16168494501D003201C
:101200005EE0AA2038705F4684F801B05520FFF7F1
:101210002BFE002001F068FB012001F065FB02F0CD
:101220003DF94FF4E131CDE9008102AA40460421A5
:1012300083C20802CDE906800890CDF81480684684
:1012400001F0ECFB4FF41650CDE90070C820CDE959
:10125000070A684601F0E2FBB2B200E01BE01D495C
:1012600000200C3102F0CEFE607838B109A802F0FF
:1012700088F901462A46304602F0C4FEA068284498
:10128000A0606168884209D20A1A51468A4200D891
:1012900091B202F06EFD0DB0BDE8F08F01F0EAFFF3
:1012A00028B103202070012002F045FDF3E7A0786B
:1012B000401CC0B2A070052805D984F80280022025
:1012C000FFF75AFAE7E702202070C4F8088002F01E
:1012D00015FDE0E79C0400205C0100202E2E5C73CD
:1012E0006F757263655C6170705C6D6D695C635C89
:1012F00079785F6D6D695F646F776E6C6F61642E76
:10130000630000007FB50D4614460021E12002F085
:10131000C1FB22462946684602F087F9684602F07A
:10132000B9FD0446684602F0B5FD012801D1012C43
:1013300002D00420FFF720FA7FBD0021082002F030
:10134000A9BB000010B50021E42002F0A3FB08486F
:10135000007803280BD1052002F05CFD05480A2225
:101360004FF47A710078BDE8104000F053BD10BD15
:101370009C0400205C01002010B5012812D10878DF
:1013800001280FD10848002141808180017841F077
:10139000010101700021012002F07CFBBDE810403A
:1013A00001F0CEBC10BD0000AC0C002000210620D6
:1013B00002F070BB7CB50878AA2818D10C491E2011
:1013C000C88002F0F5FD0546012102F04DFE2846D9
:1013D00002F0D5F884B2284602F0D5F80146002084
:1013E0000090034601902246422002F081FB7CBD22
:1013F000AC0C002070B586B0412846D102A802F09E
:1014000014F902A802F046FD0546002423E002A8D4
:1014100002F040FD064602A802F03CFD012E04D079
:10142000022E0AD0052E14D10FE0012802D0FFF7BA
:1014300020FA0EE0FFF74AFA0BE0012802D0FFF78E
:101440000FFA06E0FFF739FA03E0012801D1FFF7B0
:1014500046FA641CE4B2AC42D9D34125012402F01F
:10146000A7FD0646214602F0FFFD304602F087F850
:1014700084B2304602F087F801460020009003460F
:1014800001902246284602F033FB06B070BD0000F2
:1014900030B587B0E22831D102A802F0C6F802A820
:1014A00002F00BFD044602F083FD05461449A4F545
:1014B0000070884204D30221284602F0D5FD07E0DF
:1014C0000121284602F0D0FD0E480021C0E901416B
:1014D0004FF40071284602F02DFE284602F04FF826
:1014E00084B2284602F04FF80146074A0120CDE9B0
:1014F000000203462246E22002F0FAFA07B030BDAD
:10150000017603009C040020C90700087CB50C4646
:1015100002F04EFD0546217802F0A6FD0121284685
:1015200002F0A2FD284602F02AF884B2284602F012
:101530002AF801460020009003460190224605202B
:1015400002F0D6FA7CBD00007CB50C4602F030FDFE
:101550000546217802F088FD0121284602F084FD2D
:10156000284602F00CF884B2284602F00CF8014636
:10157000044A0520CDE9000201232246072002F09B
:10158000B7FA7CBDF92100087CB502F011FD0546D3
:10159000012102F069FD1421284602F065FD01F0E9
:1015A000F5FF0446FEF784FEC1B2284602F05CFD5A
:1015B0002146284602F0F9FD284601F0E0FF84B2FA
:1015C000284601F0E0FF014600200090034601900C
:1015D0002246042002F08CFA7CBD000030B40F4A91
:1015E000C478526816E01379A34212D1936843B1CC
:1015F000D268934207D05A2230BC09A1002000F0E3
:10160000C1BB5922F8E7091F8AB2011D204630BC30
:1016100018471268002AE6D130BC7047CC01002080
:101620002E2E5C736F757263655C6170705C6D6D9E
:10163000695C635C79785F6D6D695F726563762E56
:1016400063000000C0B200F0DBB9C0B200F0D8B94E
:10165000C0B200F0D5B9000002494CF6CC40086099
:10166000704700000030004002494AF6AA20086096
:10167000704700000030004001494860704700009A
:101680000030004001498860704700000030004091
:101690000149086070470000003000402DE9FC5F00
:1016A000414E4FF47A7B01225946B07800F0B2FBEC
:1016B00002F0E8F93D4C4FF4167800254FF4E13A7A
:1016C00058B16088401C80B26080142820D36580A7
:1016D00001F036FB3078B0B11AE002F069FC8146C7
:1016E000142102F0C1FC484601F049FF87B2484688
:1016F00001F049FF0146009500233A46012001957B
:1017000002F0F6F922E0072002F06EFB01203070B3
:10171000E088D8B1401E0004000CE08002D00A2806
:101720000BD013E0A4F80680207820F00100207090
:101730006580A58002F09CFA1DE0002301220421AF
:10174000504602F004F8032002F036FBA088401C4B
:1017500080B2A080404516D3207820F00100207090
:101760006580A580357002F083FA40F2791210A1ED
:10177000012000F007FBF07802B05946BDE8F05FA9
:10178000032200F047BBA0F500714E390AD10023B7
:1017900001220421504601F0DAFFBDE8FC5F012080
:1017A00002F00ABBBDE8FC9F80010020AC0C0020C9
:1017B0002E2E5C736F757263655C6170705C6D6D0D
:1017C000695C635C79785F6D6D695F6472762E63C6
:1017D000000000007047000070B502F053F91C4C87
:1017E0004FF47A75B8B11B48017805292ED2DFE88D
:1017F00001F02D030619260002F080FA0BE0D0E973
:101800000110091A4FF40072914201D9114600E00B
:1018100089B202F0AEFA29462078BDE870400A226B
:1018200000F0F8BA01F066FE5520FFF7F7FABDE8C0
:10183000704040F2B51208A1022000F0A3BA0021C6
:1018400001702078BDE8704000F010BB70BD000052
:101850005C0100209C0400202E2E5C736F75726367
:10186000655C6170705C6D6D695C635C79785F6DFF
:101870006D695F646F776E6C6F61642E630000004A
:10188000F0B50F210278446801234FF0E026DCB167
:10189000124C2468457804F4E064C4F5E064240A3A
:1018A000C4F10407E1408478BD400C402C43210181
:1018B0000B4C1155007800F01F018B40400906EBDE
:1018C0008000C0F80031F0BD02F01F0083405009D5
:1018D00006EB8000C0F88031F0BD00000CED00E0A8
:1018E00000E400E002490843024908607047000034
:1018F0000000FA050CED00E0024A114001430248E5
:101900000160704780FFFF1F08ED00E070B50546DD
:101910001AB1032D03D34D2212E04C2210E0124BDA
:10192000002000BF00EB400403EBC404246924B191
:10193000401CC0B22028F5D301E0202806D3542251
:101940000AA1002000F01EFAFF2070BD00EB400647
:10195000002403F8364003EBC6035D70C3E90114AD
:10196000C3E903425A6170BDB81700202E2E5C7384
:101970006F757263655C68616C5C6B65726E616CDF
:101980005C635C6F735F74696D65722E6300000049
:10199000114810B5427881788A4201D10A2A01D9CA
:1019A000952213E0002A15D001784B1C03708A425F
:1019B00001D80021017000EB81014868C96A8842A2
:1019C00003D110B1BDE8104000479F2203A10020C1
:1019D00000F0D8F910BD0000BC1400202E2E5C735E
:1019E0006F757263655C68616C5C6B65726E616C6F
:1019F0005C635C6F735F6572726D616E2E63000075
:101A000070B5114D0646002404EB440015F8301063
:101A1000A9B105EBC0014A78B24210D10A6972B18E
:101A20004B699A4206D0BDE87040C02207A1002051
:101A300000F0A8B9002305F8303048689047641CCE
:101A4000E4B2202CE0D370BDB81700202E2E5C73BA
:101A50006F757263655C68616C5C6B65726E616CFE
:101A60005C635C6F735F74696D65722E6300000068
:101A7000032801D300207047024900EB800001EBEE
:101A800080007047E842000803207047F4210148B5
:101A9000FEF7F7BBBC1400202DE9F0410F490020F0
:101AA000087048808880FFF7EFFF8046002410E030
:101AB0002046FFF7DDFF077C0025C66805E030689B
:101AC00000B18047361D6D1CEDB2BD42F7D3641CDA
:101AD000E4B24445ECD3BDE8F0810000B01500202D
:101AE00000210A4A084600BF01EB4103491C02F8E5
:101AF000330002EBC303C9B2587018615861202942
:101B0000F2D303498860486000F0D6B9B8170020C6
:101B1000FC0100202DE9F0472D4C4FF00008A7886C
:101B200084F80080002F50D0618804EB0110491C1C
:101B3000D0E90352067AD0F8149088B292466080B9
:101B4000202801D3A4F80280A0887F1E401EA08018
:101B5000FFF79AFF8642E5D23046FFF789FF01463C
:101B6000D1E901024188A9421BD80A44AA4218D9E6
:101B70006A1A00EBC2014B88AB4201D0982216E0F2
:101B800030F83200B04201D0992210E0D1F804C000
:101B9000BCF1000FC6D0A9B24B4652463046E047D2
:101BA000C0E7002DBED10288B24206D09F22BDE818
:101BB000F04708A1002000F0E5B84568002DB1D03D
:101BC0004B4652463046A847ACE7BDE8F0870000D8
:101BD000B01500202E2E5C736F757263655C6861B2
:101BE0006C5C6B65726E616C5C635C6F735F716D76
:101BF00073672E630000000070B5104CA588202D7F
:101C000006D34C220EA1002000F0BCF8002070BDCD
:101C100066883544ADB2202D01D3203DADB204EB32
:101C2000051528720C350EC5207808B901202070E2
:101C3000A088401CA080012070BD0000B0150020CD
:101C40002E2E5C736F757263655C68616C5C6B658E
:101C5000726E616C5C635C6F735F716D73672E6332
:101C6000000000002DE9F00F9A46089B14460D462F
:101C7000E0B1124E00227188B78815E0202901D307
:101C8000203989B206EB011CDCF80C80A04507D195
:101C90009CF80800A84203D1BDE8F00F012070476E
:101CA000521C491C92B289B29742E7D8524621464B
:101CB0002846BDE8F00FFFF79FBF0000B0150020D9
:101CC0000C4910B54A780A2A0FD270B101EB820292
:101CD00050604A78521C4A708A7801EB8202D062C6
:101CE0008878401C8870012010BDAB2202A1002022
:101CF00000F048F8BC1400202E2E5C736F757263E0
:101D0000655C68616C5C6B65726E616C5C635C6F7A
:101D1000735F6572726D616E2E63000010B509B15C
:101D2000022801D3002010BD0C4B00EB80000022E4
:101D300003EBC00000EB82035B6D43B1521CD2B2D7
:101D40000A2AF7D3572206A1002000F01BF800EB67
:101D500082004165C0F8A410012010BDBC14002011
:101D60002E2E5C736F757263655C68616C5C6B656D
:101D7000726E616C5C635C6F735F6572726D616ED5
:101D80002E630000824693460D46204C0846FEF71F
:101D90008FFAC2B206E0A81810F8010C5C2803D034
:101DA000521ED2B2002AF6D1194805EB0209C178B9
:101DB000491CC9B2C170BAF1020F25D0012923D83C
:101DC0000026804606EB8601002508EBC10700BF10
:101DD00007EB8500436DD0F8A400834204D11BB10A
:101DE0005A464946504698476D1CEDB20A2DEFD32E
:101DF000761CF6B2022EE5D3A41E002CFDD0641E84
:101E0000FBD1FFF7C9F8F8E7641EF6E7FFFF0F0004
:101E1000BC14002030B420280ED20A4B00EB400442
:101E200003EBC40005693DB151438160C1600020EE
:101E300003F8340030BC70477C2230BC02A1002083
:101E4000FFF7A0BFB81700202E2E5C736F7572636A
:101E5000655C68616C5C6B65726E616C5C635C6F29
:101E6000735F74696D65722E63000000202804D3CF
:101E70008B2207A10020FFF785BF0E4A00EB400030
:101E800002EBC00300219960D96002F8301070475E
:101E90002E2E5C736F757263655C68616C5C6B653C
:101EA000726E616C5C635C6F735F74696D65722EDA
:101EB00063000000B817002010B586B0684600F037
:101EC0003DF900214C1E0322204600F089FC0D49FB
:101ED000204600F0CBFC00984FF47A71B0FBF1F093
:101EE000B0F1807F0CD220F07F414FF0E020491EFE
:101EF0004161054AF02111700021816107210161D2
:101F000006B010BD6903000823ED00E010B52028DD
:101F100005D3AB2208A10020FFF734FF0AE000EB55
:101F200040010E4800EBC100016919B1806808B199
:101F3000012010BD002010BD2E2E5C736F757263E2
:101F4000655C68616C5C6B65726E616C5C635C6F38
:101F5000735F74696D65722E63000000B81700200E
:101F6000F8B52D4CD4E90110884253D0FFF714F88E
:101F70006068A168884201D3431A01E0C9430B1885
:101F8000A0600020244D04462C54401C0328FBD3A1
:101F9000002022495FF0010600EB400701EBC70279
:101FA000D2F810C0BCF1000F24D0D2F808E0BEF186
:101FB000000F1FD0D2F80CC09C4505D3BCEB030C1E
:101FC000C2F80CC001D015E0D46092F801C0BCF199
:101FD000030F06D3BDE8F840EB2211A10020FFF764
:101FE000D1BEC2F80CE001F8376015F80C200AB930
:101FF00005F80C60401C2028CED30026A85D30B127
:102000000023F1B21A4618460094FFF72BFE761C07
:10201000032EF3D3F8BD0000FC010020B817002008
:102020002E2E5C736F757263655C68616C5C6B65AA
:10203000726E616C5C635C6F735F74696D65722E48
:1020400063000000014908627047000000000E4272
:1020500070B51B4C651E617849B1012913D0601E13
:102060000229007823D0BDE87040FFF7FFBE01F0E1
:1020700084FBFEF7E3FBFEF7EAFB0120607003221E
:102080004FF47A710EE0FEF706FCFEF7E0FB00234A
:10209000012204214FF4E13001F059FB0220032218
:1020A000607064212878BDE87040FFF7B3BEFFF789
:1020B000DDFEFEF7F9FB6078401C607070BD00002B
:1020C000C9010020044A0029516901D0014300E000
:1020D000814351617047000000100240044A00290A
:1020E000D16901D0014300E08143D1617047000014
:1020F00000100240044A0029116901D0014300E0A8
:10210000814311617047000000100240044A002919
:10211000916901D0014300E0814391617047000063
:1021200000100240044A0029D16801D0014300E0B8
:102130008143D1607047000000100240F0B52A4A88
:1021400051682A4B11F00C014FF00F0503D0042900
:1021500001D0082901D0036026E05168546805EADF
:10216000914104F480340D2901D0891C00E006213E
:10217000BCB1D46A14F4803FD46A04F00F0404F1B3
:1021800001040AD0D66AD76AC6F30316761CB3FBDD
:10219000F6F3C7F30327BF1C7B43B3FBF4F34B43B6
:1021A000D9E7134B594301605168124C05EA1111EC
:1021B000635C0168D94041605368072505EA132331
:1021C000E35C21FA03F38360536805EAD323E35CFD
:1021D000D940C1605268032303EA9232231F9A5CFC
:1021E000B1FBF2F10161F0BD0010024000127A0073
:1021F00000093D00DE010020EE2202A10120FFF7D0
:10220000C1BD00002E2E5C736F757263655C6170DA
:10221000705C6D6D695C635C79785F6D6D695F643E
:1022200072762E6300000000012803D020B103283D
:1022300004D1052001F0EEBD0220FBE7704700004D
:10224000054810B5C078FFF711FE01F013FDBDE899
:10225000104001F04DBD0000800100202DE9F0414B
:102260008CB004007ED0E06800254FF08008B0B349
:102270004B49401877D0282876D064287ED1494F22
:10228000112601214FEA0100FFF71CFFE068FEF76D
:1022900047FB6846FEF7EFFB60696946001DCDE924
:1022A00000051020CDE90205CDE9045806950795F3
:1022B000089509950A95E068FEF7C0FB00213046B5
:1022C00000F03EFA3946304600F0D0FA02220021F2
:1022D000304600F085FA0121304600F031FA2069DD
:1022E00000284BD02E491439401852D0282853D0FA
:1022F0003C2843D12C4F102601210846FFF7E2FE6F
:102300002069FEF70DFB6846FEF7B5FB606903AA7E
:10231000001D0090217801EBC10000EB4111234822
:1023200000EB81012231CDE901152021A2E8220133
:1023300006950795089509950A95217801EBC10244
:1023400002EB411100EB8100694645702069FEF700
:1023500075FB0021304600F0F3F93946304600F0B5
:1023600085FA02E00AE00CE00EE00222002130468D
:1023700000F036FA0121304600F0E2F90CB0BDE879
:10238000F0810C260A4F7CE70E260121094F02201E
:102390007AE70D26084FAFE70F26084FACE700009D
:1023A000E4FFFDBFAD060008AB0600087C2B002053
:1023B000670600088706000885060008A9060008C9
:1023C0002DE9F047064686B00078FEF7C7F94FF0D2
:1023D000000A4FF40071ADF810A0ADF814100446D7
:1023E000ADF812A0ADF816A0F068D6F80490042855
:1023F00001D0052801D0002701E04FF48057306953
:10240000012805D0022808D0032801D0042801D0D3
:10241000002504E04FF4405501E04FF40055B0684A
:1024200018B1012803D0022804D0002604E04FF49C
:10243000806601E04FF4C0664FF00C08606900F060
:1024400013FEADF80470ADF808600121CDF80090DE
:10245000ADF80650ADF80A80ADF80CA00846FFF7BD
:1024600055FE2D4960698842E0694FF0010102D1B3
:10247000FFF74CFE01E0FFF731FE6946606900F0AE
:1024800065FE04A9606900F0CDFDE06840F22447D4
:102490000028206940F2255515D0002860694FF0CA
:1024A000010206D0C02100F0D6FD204600F036F82B
:1024B00019E0802100F0CFFD204600F02FF8012226
:1024C000294660691EE040F2277680B10122402152
:1024D000606900F0C0FD204600F020F8012231467E
:1024E000606900F01AFE0122394660690AE0204660
:1024F00000F014F801222946606900F00EFE012266
:102500003146606900F009FE0121606900F099FD23
:1025100006B0BDE8F08700000038014070B5002823
:1025200024D040691249401808D0B0F5806F08D017
:10253000B0F5744F1AD125250E4C04E026250E4C1B
:1025400001E00E4C27250021284600F0F9F821462D
:10255000284600F08BF902220021284600F040F9BD
:102560002846BDE87040012100F0EAB870BD0000C7
:1025700000BCFFBFCF060008F706000823070008CD
:102580002DE9FE430E46040036D0A078FF2807D080
:102590000028206A01D0012100E00021FEF7E2FBC3
:1025A00001252179032705FA01F0ADF800004FF06D
:1025B0001008019736B1182002906946A069FEF70D
:1025C00081FB0CE0CDF808806946A069FEF77AFB34
:1025D000207905FA00F081B2A069FEF7EFFB217ABD
:1025E000019705FA01F0ADF800003EB10420029019
:1025F0006946A069FEF766FBBDE8FE83CDF808805A
:102600006946A069FEF75EFB207A8540A9B2A06901
:10261000FEF7D4FBF0E70000024800210160FEF75E
:10262000E7BA0000180200202DE9FE43FDF7AEFED8
:10263000804601210846FFF769FD002529E028466C
:10264000FDF79AFE07460121D7E90204FFF75EFD78
:1026500000264FF0030917E0A07990B16088ADF82B
:10266000000020796946CDE901907868FEF72AFBE1
:102670002079102801D0142803D16179607800F006
:1026800044F80834761CF6B2387CB042E4D86D1CAD
:10269000EDB24545D3D3BDE8FE832DE9FE43984610
:1026A00014460D460646FDF77BFEB0422BD9304658
:1026B000FDF76EFE07460078FDF75EFE014678885E
:1026C000ADF800001DB1042C0FD010200EE0012C3D
:1026D00005D0022C05D0032C05D0042006E04820AC
:1026E00004E0282002E0002000E0142002900320F3
:1026F000019048686946FEF7E5FA012D03D141468D
:10270000304600F002F8BDE8FE8370B50D46044681
:10271000FDF746FEA04201D8002070BD2046FDF71F
:1027200037FE04460078FDF727FE6188406815B142
:10273000FEF746FB01E0FEF741FB012070BD000003
:10274000002803DB00F11002542A04DBB4221BA191
:102750000020FFF717BB00F01F0301229A40400939
:102760004FF0E02303EB800089B1EFF3108101F01B
:102770000101002905D1EFF3108141F0010181F33E
:102780001088C0F8002117D1EFF3108010E0EFF3AC
:10279000108101F00101002905D1EFF3108141F012
:1027A000010181F31088C0F8802105D1EFF310807A
:1027B00020F0010080F31088704700002E2E5C731B
:1027C0006F757263655C68616C5C64726976657272
:1027D0005C635C73745F6972715F6472762E630010
:1027E0001CB510F1100F03DD00F11003542B01DBB9
:1027F0009C2202E0102A05D39D2213A10020FFF79E
:10280000C1FA1CBD10388DF800008DF801100120B0
:102810008DF802200190EFF3108010F0010F03D02B
:102820006846FFF72DF81CBDEFF3108040F0010063
:1028300080F310886846FFF723F8EFF3108020F04C
:10284000010080F310881CBD2E2E5C736F757263BF
:10285000655C68616C5C6472697665725C635C730C
:10286000745F6972715F6472762E630010F1100FED
:1028700003DD00F11002542A01DB882209E031B1A6
:10288000EFF3108202F00102002A07D00CE04FF0B3
:1028900089020BA14FF00000FFF774BAEFF310822A
:1028A00042F0010282F310880E4A02EB80000164BC
:1028B00005D1EFF3108020F0010080F310887047FD
:1028C0002E2E5C736F757263655C68616C5C6472FC
:1028D000697665725C635C73745F6972715F647260
:1028E000762E6300000000202DE9F0410446042804
:1028F00002D30020BDE8F081FDF730FF06464078A6
:102900000028F7D00025022C01D11F48057004EBE8
:10291000C40000EB44171D4C14F82700010616D51F
:1029200020F0810004F8270000213046FFF728FE40
:102930000021706900F085FB706900F095FBF0687C
:1029400008B1FDF7EDFF306908B1FDF7E9FF14F8B4
:10295000270020F0810004F8270004EB8704606E54
:1029600030B140F267220AA1FEF766FB6566256773
:10297000A06E30B140F26D2205A1FEF75DFBA566A9
:10298000E5660120B6E70000BC0300207C2B002098
:102990002E2E5C736F757263655C68616C5C64722B
:1029A000697665725C635C73745F756172745F6491
:1029B00072762E630000000000B589B04FF42471D8
:1029C0000B48FDF75EFC00200421CDE90201012146
:1029D000CDE904100690480208904FF41650CDE956
:1029E000001080200790684600F018F809B000BD7C
:1029F0007C2B0020042808D200EBC00101EB401022
:102A0000054911F82020120601D40020704701EB7F
:102A100080008C3000F07CBE7C2B00202DE9F04142
:102A2000050005D02868042805D34FF4FD7216E090
:102A300040F2F91213E0296A61B1E96969B1C4B2DF
:102A40002046FDF78BFE0646407800280CD0022C6D
:102A50000CD00EE040F2FB1201E04FF4FE7237A101
:102A60000020FFF78FF90020BDE8F0813D490220EA
:102A7000087004EBC40000EB44173B4C14F827002B
:102A8000010612D520F0810004F8270000217069AA
:102A900000F0D7FA706900F0E7FAF06808B1FDF7C6
:102AA0003FFF306908B1FDF73BFFA04604EB870408
:102AB000606E40B1216FEA69914214D040F2192250
:102AC0001EA1FEF7B9FA40F21B231CA20021E869FF
:102AD000FEF776FA60660100C6D0EA6904F1740078
:102AE000226700F097FDA06E40B1E16E2A6A914224
:102AF00014D040F2292211A1FEF79EFA40F22B23B6
:102B00000EA20021286AFEF75BFAA0660100ABD096
:102B10002A6A04F18C00E26600F07CFD0121304657
:102B2000FFF72EFD3046FFF799FB2846FFF748FCDC
:102B3000802108F82710012096E700002E2E5C73F4
:102B40006F757263655C68616C5C647269766572EE
:102B50005C635C73745F756172745F6472762E631C
:102B600000000000BC0300207C2B00204FF0FF324F
:102B7000042808D200EBC00101EB4010054911F810
:102B800020301B0601D41046704701EB80007430E2
:102B900001F0A7B97C2B00202DE9F05F814661B1DF
:102BA0005AB1B9F1040F08D200EBC0032A4D03EB70
:102BB000491715F82700000602D40020BDE8F09F51
:102BC00005EB870404F18C00804601F05BFA834634
:102BD000EFF3108010F0010005D1EFF3108141F008
:102BE000010181F3108815F82710C90701D050B3EF
:102BF0002FE028B9EFF3108020F0010080F3108857
:102C0000AA46404601F0E0F90604360C21D0202EF9
:102C100002D92026002501E0002506E0404601F00B
:102C200060F961196D1C8870ADB2B542F6D31AF81F
:102C30002710324641F001010AF82710A11C48462E
:102C4000FDF7FAFB05E0EFF3108020F0010080F3C0
:102C500010885846B2E700007C2B0020F8B52148C8
:102C600001220A210078FFF7D5F81F4C4FF4806647
:102C7000002500BF01F000F8411C31D0C1B220880E
:102C800028B17E2908D0B04223D32580F2E77E29DF
:102C9000F0D1A570012021E00128EBD91349401E95
:102CA00083B20091E21C3146A01C00F0BDFB2080E5
:102CB0000428EAD321791929E7D1411EE01C00F04C
:102CC00053FCA1788842E0D12188A01CFEF786FC45
:102CD000DBE7054A921C81542088401C2080C9E70C
:102CE000F8BD0000CC010020E40C00208042000868
:102CF00070B5124801224FF47A710078FFF78AF814
:102D000000F046FB00240546264613E0204600F06E
:102D100039FB806900F0E0FC50B1818829B102687C
:102D2000521C02608A4200D3066000F0DDFCF3E72B
:102D3000641CE4B2AC42E9D370BD0000080200207C
:102D40007CB501F035F90546142101F08DF92846CE
:102D500000F015FC84B2284600F015FC0146002066
:102D60000090034601902246022000F0C1FE7CBD87
:102D7000F8B5554800F0C0FC044653480C3000F04C
:102D8000BBFC2118514824D001220A210078FFF70A
:102D900041F84D4800F0A0FC0446002544B3E0880B
:102DA000401C80B2E080218988421CD9E580214600
:102DB000454800F06DFC06462079401E10F0FF00EB
:102DC00020710BD0404821460C3000F037FC3446CF
:102DD000E4E70078BDE8F840FFF748B80221204654
:102DE000FDF756FEF3E7204600F07EFC0446D5E7EB
:102DF00035480C3000F070FC0FE0E4B1E088401C76
:102E000080B2E0802189884204D9E580207930B100
:102E1000401E2071204600F067FC0446EDE72A487A
:102E200021460C3000F034FC064602212046FDF716
:102E30002FFE3446E1E724480C3000F05DFC00280A
:102E400040D021480C3000F047FC0446002C39D01B
:102E50006089022101EB400086B296231CA200216A
:102E60003046FEF7ADF807002CD022480090638969
:102E700031463846E26800F0C5F906001AD000F085
:102E8000F9FFB04203D33146384600F032FFAB229F
:102E90000FA13846FEF7D0F80B4821460C3000F061
:102EA000F7FB0646207938B1E5802146064800F058
:102EB000C5FB05E02571EAE700212046FDF7E8FDA6
:102EC0003446C3E7F8BD000098140020D801002064
:102ED0002E2E5C736F757263655C6170705C6D6DD6
:102EE000695C635C79785F6D6D695F73656E642E94
:102EF00063000000804200080CB500212E480191BB
:102F00000091026842F4803202604FF4A0630268CC
:102F100002F400320092019A521C0192009A12B9F6
:102F2000019A9A42F3D10268920342D5012100919D
:102F300022490A6842F010020A600A6822F003027D
:102F40000A600A6842F002020A6041684160416812
:102F50004160416841F480614160C16A184A114092
:102F6000C162C16A174A1143C162016841F08061C0
:102F7000016001680901FCD5416821F47C114160C0
:102F8000416841F4E8114160016841F080710160DD
:102F900001688901FCD5416821F003014160416865
:102FA00041F0020141604168C1F381010229FAD177
:102FB0000CBD00910CBD000000100240002002403A
:102FC00000F0FEFF70060100124810B5016841F0E4
:102FD000010101604168104A1140416001680F4AD7
:102FE00011400160016821F480210160416821F4F1
:102FF000FE014160016821F0A05101604FF47F01A2
:1030000081600021C162FFF777FF05494FF0006042
:10301000086010BD001002400000FFF0FFFFF6FE48
:1030200008ED00E010B5038A4FF2FF0213400A8852
:103030004C8822438C88C9880C4322431A4302825D
:1030400010BD0029818902D041F4005101E021F432
:10305000005181817047002A828A01D00A4300E032
:103060008A43828270470000174910B588420AD10E
:1030700001218C032046FFF755F82046BDE810409B
:103080000021FFF74FB81149884202D101214C04B9
:1030900010E00F49884202D101218C040AE00D4959
:1030A000884202D10121CC0404E00B4988420AD1B4
:1030B00001210C052046FFF71DF82046BDE8104011
:1030C0000021FFF717B810BD003801400044004050
:1030D00000480040004C00400050004030B501F076
:1030E0001F0201240025C1F3421304FA02F2012B4E
:1030F0000FD0022B0FD0838A4FEA11210088134290
:1031000004FA01F400EA040001D000B101252846C8
:1031100030BD8389F0E7038AEEE710B5C1F34213AF
:1031200001F01F040121A140012B07D0022B07D081
:103130001430002A026805D00A4304E00C30F8E796
:103140001030F6E78A43026010BD000030B5044637
:10315000008A85B00D464CF6FF710840E9880143AE
:103160002182A1894EF6F3100140A8882A891043D4
:103170006A890A431043A081A08A4FF6FF410840A4
:10318000A9890143A1826846FEF7D8FF1B48844203
:1031900001D1039800E00298A1890904002900EBFD
:1031A000C00101EB0010296802DA4FEA410101E099
:1031B0004FEA8101B0FBF1F06422B0FBF2F14FEA7B
:1031C00001114FEA11136FF018056B4300EB8300F8
:1031D000A3891D044FF0320306D503EBC000B0FBFA
:1031E000F2F000F0070005E003EB0010B0FBF2F096
:1031F00000F00F000843208105B030BD00380140C9
:1032000070470000F0B5059D85B32C7800F8014BA0
:1032100001248E1E23E000BF12F8017B95F800C048
:10322000BC4505D1B44222DA6F780770AF7808E068
:1032300095F801C0BC4508D1B44218DA80F800C046
:10324000EF784770801CA41C06E0A1F1010C6445D6
:103250000DDA00F8017B641C5B1EA4B29BB2002B4C
:10326000DAD129780170641CA0B2F0BDFFE700201C
:10327000FBE7000038B50E48B0F80110ADF80010BB
:10328000D0F8034000F016F880B1B4F55E3F0DD8D9
:10329000BDF8005045B13CB10548A4F20721C01D5E
:1032A00000F04CF8854201D1012038BD002038BD26
:1032B0000082000810B504460078552801D0AA28DD
:1032C0000DD1042208A104F10800FCF7F8FF30B981
:1032D000042207A104F10C00FCF7F1FF08B1002063
:1032E00010BD012010BD000053544D3300000000FC
:1032F000415050300000000010B50022134606E097
:1033000010F8014B5B1C2244D4B204EB12228B4216
:10331000F6D3521CD0B210BD10B50022134608E0FF
:1033200010F8014BE443E4B22244D4B204EB12227D
:103330005B1C8B42F4D3521CD0B210BD70B50C464E
:103340000546FFF7D9FF060221462846FFF7E4FFAE
:10335000304370BD084801784278090601EB02410C
:103360008278C07801EB022108440449884201D1E7
:10337000012070470020704700F80308A55AAA559D
:1033800070470000014901EB4010704738430008C6
:10339000012070472DE9F047FFF7FAFF06460025A8
:1033A00028E02846FFF7EEFF044690F80C800778E7
:1033B000D0F81090806900F0A3F942464946A3680E
:1033C000606900F050F9606900F086F94FF0460935
:1033D0004FF0AA0860B1C77180F8069080F80880A5
:1033E000636800F10C0203F8028000F07DF9F1E758
:1033F0006D1CEDB2B542D4D30021084A0846FEF751
:1034000085FA0749012208704FF47A71FEF702FD30
:10341000BDE8F0470348FEF753BC0000F12C00085C
:10342000080200206D0B0008F0B50446DDF814C05A
:10343000BCF1000F30D09CF8017000206FEA070E3D
:103440000EF0FF0525E000BF12F8016BBD4215D15B
:103450009CF80250B54207D10EF0FF0588421BD2FE
:103460009CF8006026700FE09CF80350B54213D121
:103470000EF0FF0588420FD2277005E03546BE42A8
:1034800005D0884208D22570641C401C80B25B1EA7
:103490009BB2002BD8D1F0BD0020F0BD70B5102438
:1034A0005FF07F05FDF778FD55212046FDF78AFC8A
:1034B00028B1641CA4B2AC42F4D3012070BD6322D5
:1034C00002A10020FEF75EFC002070BD2E2E5C7372
:1034D0006F757263655C6170705C636F6D6D6F6E4C
:1034E0005C635C79785F626F6F746D61696E2E6387
:1034F0000000000010B57F205521FDF763FC08B1E6
:10350000012010BD392203A10020FEF73BFC002062
:1035100010BD00002E2E5C736F757263655C617068
:10352000705C636F6D6D6F6E5C635C79785F626F0A
:103530006F746D61696E2E630000000030B5044643
:103540004FF00000002B0ED014F8015B8D4203D128
:10355000002A08D0521ED2B25B1E1B0400F10100EB
:103560001B0C80B2F0D130BD02460020002905D0EE
:1035700012F8013B491E1844C0B2F9D17047806867
:10358000704740687047006870470000114810B5E8
:1035900001681148FCF7A0FE104810494069143139
:1035A00044586FF00060204447F6FF7188420AD209
:1035B0002046FCF77DFE83B201222D212046FFF735
:1035C000BDFF211800E006A10348FCF765FE024894
:1035D00010BD0000784200087404002000020008BA
:1035E0002D782E780000000070470000074A084838
:1035F00000211160416001604172AA21017240F610
:10360000F471418101205060704700000C020020DD
:10361000EC1A002002600023436081608B18C360B5
:1036200083680361836843617047002805D00023E5
:10363000C260C0E9011301600120704778B171B127
:10364000826841F8082D02685AB1826851600022F0
:103650004A6081600168491C0160012070470020B8
:1036600070474160F3E770B515460C46064600F01A
:1036700047F800280BD0083445B121463046FFF703
:10368000DDFF002803D01C446D1EF6D1012070BD63
:1036900002000ED069B11068002809D0401E083918
:1036A0001060D1E9003033B1586030B140F8083BC8
:1036B0007047002070475060F7E79360F9E710B556
:1036C00040B1016831B1446808342146FFF7E0FF9A
:1036D000204610BD002010BD20B1016811B1406826
:1036E0000830704700207047002804D050F8040CC0
:1036F000002800D008307047002800D000687047CC
:10370000002804D0002141608160016001207047E1
:1037100008B5014600BFEFF3108202F001030093E9
:10372000009A2AB9EFF3108242F0010383F3108864
:1037300000BFD1E90023D01A00BF009A2AB9EFF3E5
:10374000108222F0010383F3108800BF08BD10B57A
:103750008AB00024CDE900400DF10C0C0293ACE8D6
:1037600016004FF40070CDE906404FF44070089009
:103770006846FFF753F90AB010BD0020FFF7B4B850
:103780002DE9F84F164605460A208A4600EB46000A
:103790001FFA80F94FF49A732BA20021FDF710FC59
:1037A00007003CD03149BC19DFF8C4804878401C80
:1037B00048700120A0701920E070A5F19101E8B2D5
:1037C0000F292ED3472D2CD0462D2AD0492D28D075
:1037D000632D26D0642D24D0482D22D02071601D69
:1037E00032465146FCF734FDA01CF11CFFF7BCFE2D
:1037F0006070361DCDF80080B3B2621C4946384671
:10380000FFF700FD01001DD0384600F072FA0446B3
:1038100040F259120CA13846FDF70EFC2046BDE8D7
:10382000F88F902121716071A01D32465146FCF73E
:103830000FFDA01C311DFFF797FE6070761DCDF8BF
:103840000080D9E70024E3E72E2E5C736F75726366
:10385000655C6170705C6D6D695C635C79785F6DEF
:103860006D695F73656E642E63000000D8010020EF
:10387000804200087047000070B5094D00242E1FDB
:1038800009E000BF05EBC400416815F8340000F002
:10389000F9F9641CE4B230788442F3D370BD0000BF
:1038A0005401002070B54FF401610E48FCF7E9FCAB
:1038B0000D4D002405EBC400416815F8340000F0FC
:1038C000E1F9641CE4B2042CF4D3084A002102207C
:1038D000FEF71CF80449091F0870BDE8704000F0AD
:1038E000B1BA00009C04002060010020D917000834
:1038F00070B538212248FCF7C4FC21494FF41670FA
:10390000C88000F049F8FFF7B5FF00F061F800F05B
:1039100093F8FFF7B1FFFFF7C5FF1A4D002405F13B
:10392000080608E006EBC400416816F8340000F011
:10393000A9F9641CE4B268788442F3D3124A0021E6
:103940000220FDF7E3FFA870104A00210220FDF7D6
:10395000DDFFE8700E4A00210220FDF7D7FF287135
:103960000A224FF47A71FEF755FA0A490020FEF751
:10397000D5F900F083FABDE8704000F07BB9000093
:10398000AC0C0020800100209D1600084122000898
:10399000D51700082922000810B50B4C0020A4F808
:1039A0000100FCF727FFFCF72BFFFCF73BFFFCF7C0
:1039B00045FFFCF74CFFFCF765FF044A002102209D
:1039C000FDF7A4FF207010BDC801002051200008A1
:1039D00010B540F202411448FCF753FC0021134B90
:1039E000084600BF03EB011202F1100414601071CD
:1039F000491C9060C9B2D0602C29F3D303EB0111AC
:103A00000B4C086008718860C860C4E90103094A6A
:103A100000210220FDF77AFF20700122BDE810404E
:103A20000A21FEF7F7B90000E40C0020E81000209E
:103A3000CC0100205D2C000810B50E4C00206070F9
:103A40000D48FFF75DFE0C480C30FFF759FE0A49A0
:103A50001C23E039082201F1F800FFF704FE074AB1
:103A600000210220FDF752FF2070BDE810400448FD
:103A7000FEF726B9D801002098140020712D000807
:103A8000E90A000802480078C00700D0012070470A
:103A9000AC0C002070B505460E461448FFF71CFE1E
:103AA00008E02088A84202D1214610480FE02046B5
:103AB000FFF71AFE0400F4D10C480C30FFF70CFE9F
:103AC00010E02088A8420AD1084821460C30FFF7B0
:103AD000DFFD31462046FCF7DBFF012070BD2046AC
:103AE000FFF702FE0400ECD170BD00009814002026
:103AF0002DE9F05F9846DDE90AA916468B46054692
:103B0000B2F5007F02D90020BDE8F09F3848FFF7EA
:103B1000D6FD0400F8D0301D80B26081401CF52332
:103B200034A20021FDF74CFAE060E8B33A4F25805B
:103B30000AEBCA0279786180491C797002EB0A129B
:103B4000012184F8048001EB420222810022E280FC
:103B5000C4F810904170E16819208870A5F19101B6
:103B6000E8B20F292BD3472D29D0462D27D0492D38
:103B700025D0632D23D0642D21D0482D1FD0E1689E
:103B80003246C870E0685946001DFCF761FBE068EA
:103B9000F11C401CFFF7E8FCE1680870144821465E
:103BA0000C38FFF74BFD00E004E03878FEF7AEF983
:103BB000B8B11BE021460E48FFF740FDA3E761893D
:103BC000491C6181E2689021D170E1683246087138
:103BD000E0685946401DFCF73BFBE068401C311D86
:103BE000D8E701220A213878FEF714F901208BE783
:103BF000B01400202E2E5C736F757263655C61706B
:103C0000705C6D6D695C635C79785F6D6D695F7325
:103C1000656E642E63000000D80100200A4810B5CC
:103C20000178C9070FD0002101704170FFF7A5FD91
:103C3000FCF704FEFCF70BFE0348401E0078BDE8CD
:103C40001040FEF713B910BDC901002007480178E4
:103C5000C90709D1012101700021417001226421AD
:103C6000401E0078FEF7D6B870470000C90100205A
:103C7000FFF7D4BFFFF7EABF10B50020FEF776FFCD
:103C800000B210BD70B5104B5C68254605E0227986
:103C9000824201D1C22211E02468002CF7D151B137
:103CA0009A6852B114689C6015605A6010719160F6
:103CB0000120D16070BDC62200E0C72203A1002010
:103CC000FEF760F8002070BDCC0100202E2E5C7342
:103CD0006F757263655C6170705C6D6D695C635C6F
:103CE00079785F6D6D695F726563762E63000000A1
:103CF00070470A4601460020FEF74EBF7CB5FFF72D
:103D0000C1FE002816D000F053F90546012100F04D
:103D1000ABF92846FFF733FC84B22846FFF733FCA3
:103D2000014603200022CDE9000203462246E1209D
:103D3000FFF7DEFE7CBD7CB50446FFF7A3FE00283E
:103D400016D000F035F90546214600F08DF92846D9
:103D5000FFF715FC84B22846FFF715FC0146032047
:103D60000022CDE9000203462246E420FFF7C0FE10
:103D70007CBD7CB50E460446FFF784FE00281AD0B1
:103D800000F016F90546214600F0E0F931462846D4
:103D900000F0D0F92846FFF7F2FB84B22846FFF77F
:103DA000F2FB014603200022CDE900020346224631
:103DB000E320FFF79DFE7CBD70B5044600F014F8CB
:103DC00000F0F6F80546214600F04EF92846FFF7C8
:103DD000D6FB84B22846FFF7D6FB2246BDE87040EA
:103DE00001460820FFF7CCBC70B5044600F0E0F8AF
:103DF0000546214600F038F92846FFF7C0FB84B29B
:103E00002846FFF7C0FB2246BDE8704001460A2065
:103E1000FFF7B6BC70B50446FFF7E6FF00F0C8F840
:103E20000546214600F020F92846FFF7A8FB84B29A
:103E30002846FFF7A8FB2246BDE870400146062051
:103E4000FFF79EBC094810B50121017000214160B7
:103E500081608170FFF752FF05480A224FF47A71A2
:103E60000078BDE81040FDF7D5BF00009C0400209D
:103E70005C0100200020FEF7BDBD0000044810B525
:103E800001224FF47A718078FDF7C4FF012010BD44
:103E9000800100208168491C816041684A1C4260A1
:103EA0000878704710B50446FFF7F4FF0302204678
:103EB000FFF7F0FF184480B210BD10B50446FFF7BD
:103EC000E9FF03062046FFF7E5FF03EB004320462A
:103ED000FFF7E0FF03EB00232046FFF7DBFF18446A
:103EE00010BD08B5014600BFEFF3108000F00103DC
:103EF0000093009828B9EFF3108040F0010383F39A
:103F0000108800BF486860B900BF009828B9EFF377
:103F1000108020F0010383F3108800BF4FF0FF30C2
:103F200008BD00BF009828B9EFF3108020F001030E
:103F300083F3108800BF4B69581C48611A78CB681E
:103F40004869984201D38868486100BFEFF3108048
:103F500000F001030093009828B9EFF3108040F0BF
:103F6000010383F3108800BF4868401E486000BF0B
:103F7000009828B9EFF3108020F0010383F3108834
:103F800000BF1046CCE70146486810B94FF0FF303B
:103F900070474B69581C48611A78CB684869984249
:103FA00001D3886848614868401E48601046EFE7C2
:103FB000044900B5802201F18000FFF736FB01487B
:103FC000803000BDEC2A002008B5014600BFEFF3A9
:103FD000108202F001030093009A2AB9EFF31082D5
:103FE00042F0010383F3108800BF486800BF009AC5
:103FF0002AB9EFF3108222F0010383F3108800BF87
:1040000008BD000070B50E460C49154644185523EE
:1040100031462046FCF74EFF30B955232A4631463B
:104020002046FCF747FF08B1012070BD892204A19A
:104030000020FDF7A7FE002070BD000000800008F2
:104040002E2E5C736F757263655C6170705C636F5C
:104050006D6D6F6E5C635C79785F626F6F746D61BC
:10406000696E2E630000000000280AD0D0E9022308
:104070009A4206D24268531C436011708168491C01
:1040800081607047F8B504460D4616462046FFF796
:104090003FFBB04201D20020F8BD002728E015F810
:1040A000011B2269501C20611170D4E90310884261
:1040B00001D3A068206100BFEFF3108000F0010180
:1040C0000091009828B9EFF3108040F0010181F3CE
:1040D000108800BF6068401C606000BF009828B96D
:1040E000EFF3108020F0010181F3108800BF7F1CE6
:1040F000B742D4D30120CFE7F0B50346D3E9000699
:10410000851BAA4200D92A4600240FE011F8016B52
:104110001F69781C18613E70D3E90360B04201D377
:10412000986818615868401C5860641C9442EDD32C
:104130000120F0BD30B50C460546090AFFF794FF93
:10414000E1B22846BDE83040FFF78EBF30B50C46DF
:104150000546090EFFF788FFC4F307412846FFF71D
:1041600083FFC4F307212846FFF77EFFE1B228460C
:10417000BDE83040FFF778BF02460AB9002070471B
:10418000D2E90030984201D30020F8E71369581CA7
:1041900010611970D2E90330984201D39068106120
:1041A0005068401C50600120E9E730B50C460546D8
:1041B00003E0641C2846FFF757FF21780029F8D157
:1041C00030BD02E008C8121F08C1002AFAD17047AA
:1041D0007047002001E001C1121F002AFBD1704787
:1041E00000B585B0FFF7B6F868B9FFF743F850B1EE
:1041F0001F481E49016049684160416881608847E5
:1042000005B0002000BD6846FDF798FF00214FF083
:104210000050FDF771FB4FF4C060FDF763FB012018
:10422000FDF710FF0020FCF7C9FA0020FCF7C0FAE8
:1042300001210C20FDF76AFF01210846FDF766FF0A
:1042400001210C48FCF78EFDFCF7F2FAFCF7A4FE06
:10425000FDF71CFCFDF744FCFDF71EFCFDF780FE9E
:10426000FDF758FCFDF794FBF8E70000008000081C
:10427000F001002000043000DC430008EF43000898
:104280007E7D0201000001005116000800000000C0
:1042900000000000010002004B16000800000000B2
:1042A00000000000020003004516000800000000A6
:1042B00000000000E9350008ED35000895330008DE
:1042C0009D0F000829260008B929000819260008B2
:1042D00000000000813300080000000001320008E7
:1042E000F1380008000000000000000084420008CF
:1042F00001000000B44200080700000001000000B7
:104300009442000801000000D442000801000000AF
:1043100002000000A442000801000000DC42000886
:10432000020000000000000000000000000000008B
:104330000000000000000000000000000400000079
:104340001C00000001000000D01A0020B81A002054
:10435000C41A00200444000800000000000000000F
:10436000000000000000000000000000000000004D
:1043700000000000000000000000000000080140F4
:10438000040000001C0200201000000001000000DA
:10439000000C0140080000009C02002010000000FA
:1043A0000200000000100140100000001C0300206B
:1043B0001000000003000000001401402000000075
:1043C0009C0300200300000000000000000000002B
:1043D000000000000000000000000000626F6F7429
:1043E0002D313130727630316D332D312E30004F1A
:1043F000637420323420323031372031353A31384D
:104400003A33320044594D5F363400003C440008D2
:104410000000002050010000C24100088C45000847
:10442000500100202403000010030008304700085A
:10443000740400209C2D0000D24100080000000000
:1044400000000000AD030008AF030008B10300083E
:10445000B3030008B50300080000000000000000DE
:104460000000000000000000B9030008B7030008C6
:1044700000000000BB030008BD030008BF030008E4
:10448000C1030008C3030008C5030008C7030008F0
:10449000C9030008CB030008CD030008CF030008C0
:1044A000D1030008D3030008D5030008D703000890
:1044B000D9030008DB030008DD030008DF03000860
:1044C000E1030008E3030008E5030008E703000830
:1044D000E9030008EB030008ED030008EF03000800
:1044E000F1030008F3030008F5030008F7030008D0
:1044F000F9030008FB030008FD030008FF030008A0
:10450000010400080304000805040008070400086B
:10451000090400080B0400080D0400080F0400083B
:10452000110400081304000800000000000000004F
:10453000000000000000000000000000000000007B
:104540000000000015040008170400081904000802
:104550001B0400081D0400081F04000821040008B3
:104560002304000825040008270400082904000883
:104570002B0400082D0400082F0400083104000853
:1045800033040008350400083704000832013241C2
:1045900013F513420832E11A050C32E21391143379
:1045A00008E31325113308E42A4524392621293844
:1045B0001A7910320213FD103308041389153308D9
:1045C000051A0D0832061AAD20292F1A3B083207AA
:1045D0001A491832425AB56CE13C020406162D0104
:1045E0000203040405300607080912012A109A4B39
:1045F0000102081302042A18081303082A04084BAE
:104600000410181305201B4801084B0640081B071F
:1046100080083112083A012012093A02082A0A32A7
:104620001908120B2B081020120C3A1010120D2B27
:10463000201038120E3A4010120F2A80081A012555
:1046400029504C011102084B120408131308294089
:104650004B0114801C0115201019084B1640104BFB
:1046600017800829AD292812193A0208121A2B04BA
:104670001C08121B3A08081A1C8029082A1D8019D8
:1046800008121E3A4060121F2A80084B0220804BFD
:104690000221804B0222804C022308081A24801930
:1046A000382B02258019081A268029181A278029F4
:1046B000082A28C3190812293A0230122A3A04108B
:1046C000122B3A0808122C3A1018122D3A20081210
:1046D0002E3A4048122F2A80083C033001584C03E0
:1046E0003102084A3280D11910320632071244537F
:1046F0000240143801401A0C04190E3A042312FF28
:10470000320232036A80241A441E1A0824391A1904
:104710000619573209EA0A482924594812033AFF70
:104720000832056A1C241A481E2A1048291A012634
:0400000508000219D4
:00000001FF
