:020000040800F2
:10000000102C0020F50100081D2A0008E51D00083D
:1000100000000000000000000000000000000000E0
:1000200000000000000000000000000095440008EF
:1000300000000000000000005531000871080008B1
:100040007308000807020008790800087B08000808
:100050007D0800087F080008810800088308000860
:100060008508000887080008890800088B08000830
:100070008D0800088F080008910800089308000800
:100080009508000897080008990800089B080008D0
:100090009D0800089F080008A1080008A3080008A0
:1000A000A5080008A7080008A9080008AB08000870
:1000B000AD080008AF080008B1080008B308000840
:1000C0000000000000000000000000000000000030
:1000D0000000000000000000000000000000000020
:1000E0000000000000000000000000000000000010
:1000F0000000000000000000000000000000000000
:10010000550000000000000053544D30424F4F5442
:10011000A860000000F002F800F040F80CA030C821
:10012000083824182D18A246671EAB4654465D4673
:10013000AC4201D100F032F87E460F3E0FCCB646FD
:100140000126334200D0FB1AA246AB463343184780
:10015000C8660000F8660000103A02D378C878C17B
:10016000FAD8520701D330C830C101D504680C60F9
:10017000704700000023002400250026103A01D318
:1001800078C1FBD8520700D330C100D50B6070474F
:100190001FB5C046C0461FBD10B510BD00F0B2F976
:1001A0001146FFF7F5FF05F0E3FF00F0CAF903B4CD
:1001B000FFF7F2FF03BC00F0CFF9000070B5054671
:1001C0000C46164602E00FCC0FC5103E102EFAD298
:1001D000082E02D303CC03C5083E042E07D301CC5E
:1001E00001C5361F03E021782970641C6D1C761E42
:1001F000F9D270BD0748804707480047FEE7FEE791
:10020000FEE7FEE7FEE7FEE704480549054A064B20
:1002100070470000994C00081501000810270020C5
:10022000102C002010280020102800207047704754
:10023000034610B50B439B070FD1042A0DD308C802
:1002400010C9121FA342F8D018BA21BA884201D9A6
:10025000012010BD0020C04310BD002A03D0D307E9
:1002600003D0521C07E0002010BD03780C78401C1E
:10027000491C1B1B07D103780C78401C491C1B1B15
:1002800001D1921EF1D1184610BD000030B5441CBA
:1002900003E00178401C00290DD08107F9D10B4BF8
:1002A000DD0104C8D11A91432940FAD0001B0A0687
:1002B00003D0C01E30BD001B30BD0A0401D0801E1B
:1002C00030BD0902FCD0401E30BD0000010101011B
:1002D000F8B5042A2CD3830712D00B78491C03707D
:1002E000401C521E83070BD00B78491C0370401C26
:1002F000521E830704D00B78491C0370401C521E09
:100300008B079B0F05D0C91ADF002023DE1B08C90D
:100310000AE0FFF753FFF8BD1D4608C9FD401C4623
:10032000B4402C4310C0121F042AF5D2F308C91A96
:10033000521EF0D40B78491C0370401C521EEAD4A4
:100340000B78491C0370401C521EE4D409780170DC
:10035000F8BDD2B210B513029A1813049A1800F01F
:100360000EF810BD01E004C0091F0429FBD28B0761
:1003700001D50280801CC90700D002707047002997
:100380000BD0C30702D00270401C491E022904D3BF
:10039000830702D50280801C891EE3E70022EEE776
:1003A0000022DFE7002203098B422CD3030A8B4291
:1003B00011D300239C464EE003460B433CD400225D
:1003C00043088B4231D303098B421CD3030A8B426F
:1003D00001D394463FE0C3098B4201D3CB01C01A3D
:1003E000524183098B4201D38B01C01A5241430908
:1003F0008B4201D34B01C01A524103098B4201D3F6
:100400000B01C01A5241C3088B4201D3CB00C01A62
:10041000524183088B4201D38B00C01A52414308DA
:100420008B4201D34B00C01A5241411A00D20146FF
:100430005241104670475DE0CA0F00D04942031098
:1004400000D34042534000229C4603098B422DD3E7
:10045000030A8B4212D3FC22890112BA030A8B428F
:100460000CD3890192118B4208D3890192118B42DE
:1004700004D389013AD0921100E08909C3098B4263
:1004800001D3CB01C01A524183098B4201D38B01A6
:10049000C01A524143098B4201D34B01C01A524149
:1004A00003098B4201D30B01C01A5241C3088B428E
:1004B00001D3CB00C01A524183088B4201D38B0079
:1004C000C01A5241D9D243088B4201D34B00C01A03
:1004D0005241411A00D20146634652415B10104618
:1004E00001D34042002B00D54942704763465B1060
:1004F00000D3404201B50020C046C04602BD70474F
:1005000070477047754600F023F8AE46050069460F
:100510005346C008C000854618B020B5FFF774FEEA
:1005200060BC00274908B6460026C0C5C0C5C0C586
:10053000C0C5C0C5C0C5C0C5C0C5403D49008D4689
:1005400070470446C046C0462046FFF730FE000014
:1005500000487047AC26002001491820ABBEFEE7DA
:1005600026000200704770B58C180578401C6B0798
:100570005B0F01D10378401C2A1106D10278401C80
:1005800003E00678401C0E70491C5B1EF9D12B0756
:1005900005D40023521E0DD40B70491CFAE70378D2
:1005A000401CCB1A921C03E01D785B1C0D70491C8B
:1005B000521EF9D5A142D8D3002070BD70B51546A2
:1005C0000E4600F03FF9C4680021204600F00AFF03
:1005D00000220221204600F065FFE66065600122EE
:1005E0000221204600F05EFF0121204600F0FAFEC5
:1005F00070BDF1B582B0032829D2002801D1684826
:100600000078029000F01EF906460298A4214843A3
:1006100064490746C85D020610D5C0070ED00846DB
:100620003C1820468C30009005F094FC05042D0CFD
:100630000ED0202D1BD9202500261AE00021F068BD
:1006400000F0D0FE00220221F06800F02BFFFEBD7A
:1006500054480022C15D49084900C1550221F06893
:1006600000F020FF0021F06800F0BCFEFEBD002677
:1006700006E0009805F044FCA119761C8870B6B21B
:10068000AE42F6D3A11C2A460298FFF797FFFEBDA3
:10069000F8B5032812D2002801D141480078044659
:1006A00000F0D0F806460769A4203E4D4443285D7B
:1006B000000604D40021384600F094FEF8BD384608
:1006C00000F0E2FE2021081A80B200900021384696
:1006D00000F088FE64196078002830781AD0A421D0
:1006E000484340192230F8602020786001213846C4
:1006F00000F078FE6078002811D00020607030781B
:10070000A42148434119423120467430009A05F033
:10071000BFFCF8BDA421484340194230E3E7012063
:1007200060703078A421484341192231ECE710B5BC
:100730000C46032812D2002801D119480078A421C0
:10074000484318490A5C120609D540188C3005F058
:10075000D7FB411C02D0C005C00D208510BD002272
:100760001149204604F026FB10BD10B50B460328A6
:100770000ED2002801D10A480078A421094C484330
:10078000215C090605D50019D1B2743005F0BEFC14
:1007900010BD00220549184604F00CFB10BD0000F6
:1007A0006F020020B00E00200701070005010500C0
:1007B000704710B5202000F06BFE002805D02020E7
:1007C00000F00AFE0020FFF714FF10BD704710B5BF
:1007D00001246403204600F05BFE002805D020467B
:1007E00000F0FAFD0120FFF704FF10BD704710B5BF
:1007F000124C1149204604F0C1FA002808D00F48D5
:10080000203080882146C205D20D0020FFF7ADFFC1
:1008100010BD10B50A4C0849204604F0AFFA002874
:1008200008D00748203080882146C205D20D01201B
:10083000FFF79BFF10BD00000501050000380140D7
:1008400000440040032801D300207047242148437E
:100850000249401870470320704700009C6300085D
:100860007047FEE7FEE7FEE7FEE770477047704718
:1008700070477047704770477047704770477047C0
:1008800070477047704770477047704770477047B0
:1008900070477047704770477047704770477047A0
:1008A0007047704770477047704770477047704790
:1008B00070477047042801D3002070471421484333
:1008C00007494018704704207047332801D300209F
:1008D00070470A2148430349401870473320704746
:1008E000346600082C640008032801D300207047F8
:1008F0001821484302494018704703207047000000
:100900009866000802480168491C016070470000B1
:1009100080020020F0B58BB0FFF7EFFF070053D047
:100920000020FFF7E1FF04464069012102F070FC5E
:10093000E06800F09DF8684600F035F900260120D7
:10094000009602960496059601906946E06800F0CC
:10095000C5F800251AE02846FFF7C6FF04000ED0B0
:10096000427801210B4693409AB2069203220991E4
:1009700008920A96079206A9206900F0C7FF05228F
:100980006168E06800F024F86D1CEDB2BD42E2D36E
:10099000012105220904E06800F01AF8012000F0A6
:1009A0000BF90A4C012105224904204600F010F8F9
:1009B000012000F01DF9012105228904204600F0E4
:1009C00007F8012000F006F90BB0F0BD002401404B
:1009D000836A0B438362426170470029816801D0BA
:1009E000012200E002221143816070470029C168A2
:1009F00002D00122114301E049084900C16070475B
:100A000010B5044601218CB0084602F0DDFBA06859
:100A100000F0F4FC684600F06BFDE0680621403011
:100A200000900D480190039180210591002049001C
:100A300006910290890007912021089104900902F3
:100A400009910A906946A06800F034FD012103482D
:100A500000F0C8FC0CB010BD9E1000200800024041
:100A6000C26802239A43C260C2680A43C2607047E8
:100A7000064910B5884208D144150121204602F0EC
:100A8000D3FB0021204602F0CFFB10BD0024014023
:100A9000826800210123DB071A4382600F231B03B6
:100AA0008268491CD20FD207994201D0002AF7D19F
:100AB0008168002901DB006C704700207047024606
:100AC0000020CB0104D5926801231B069A4300E065
:100AD00012680A4200D001207047000030B5C36898
:100AE000084A8C6813400A684D682243CC686D033D
:100AF0002C4322430C69496922430A431A43C260CA
:100B000030BD000003D2FFFFF8B5FFF7F6FE002866
:100B10002BD00020FFF7E8FE0446FFF771FFFFF738
:100B2000F9FEE068FFF7B4FF0221E068FFF798FFE5
:100B30000121E068FFF75AFF0121E068FFF74DFF50
:100B400001252E030B4F00F093F83946E068FFF7BC
:100B5000B6FF002802D16D1CB542F4D3B54205D3CF
:100B6000C22205A1002002F095F9F8BDE06800F06E
:100B700015F8F8BD010000012E2E5C736F757263CD
:100B8000655C68616C5C6472697665725C635C73F9
:100B9000745F6164635F6472762E6300816804220F
:100BA0001143816070470021016041608160C16034
:100BB000016141617047000001220549D20500280A
:100BC000886801D0104300E09043886070470000BF
:100BD000002701400122054912060028886801D03B
:100BE000104300E0904388607047000000270140F8
:100BF0000122054992050028886801D0104300E0D1
:100C000090438860704700000027014010B50446FB
:100C1000552000F0A5FF04F0E1FA552000F078FF20
:100C2000064904200870002048700548007802F04A
:100C3000A3F9204604F0BEFF10BD0000D80200203A
:100C4000EC0100207047000010B5074C0220207016
:100C500006480A223221007802F064F90121490293
:100C6000A06804F0C5FF10BDD8020020EC010020F0
:100C700010B50E2003F027F8002801D0002100E075
:100C800001210E2003F07CF810BD10B501220023D5
:100C90001146142003F041F810BD10B500230122C5
:100CA0001146184603F039F810BD10B50122002393
:100CB0001146042003F031F810BD012210B50023C5
:100CC0001146104603F029F810BD10B5012200238B
:100CD0001146082003F021F810BD10B501220023B1
:100CE00011460F2003F019F810BD10B5044600F0AE
:100CF00067F9A04208D9204600F056F90123807810
:100D00001A46002103F009F810BD704710B50446DB
:100D100000F07DFAA04208D9204600F07BFAC378A3
:100D200001228078114602F0F8FF10BD704710B51F
:100D30000122002311460C2002F0EFFF10BD10B578
:100D40000122002311462A2002F0E7FF012200239E
:100D500011462B2002F0E1FF10BD10B50122002347
:100D600011460E2002F0D9FF10BD10B5044600F068
:100D70004EFAA04206D9204600F04CFA80780021B5
:100D800002F0FEFF10BD10B5FFF77FFF0021142019
:100D900002F0F6FF10BD10B5FFF77FFF00210846F7
:100DA00002F0EEFF10BD10B5FFF77FFF0021042019
:100DB00002F0E6FF10BD10B5FFF77FFF0021012014
:100DC00002F0DEFF10BD10B5FFF77FFF0021082005
:100DD00002F0D6FF10BD10B5FFF77FFF00210F20F6
:100DE00002F0CEFF10BD10B50020FFF7BEFF0120BE
:100DF000FFF7BBFF10BD10B5FFF799FF00210C20D6
:100E000002F0BEFF10BD10B500212A2002F0B8FF8D
:100E100010BD10B500212B2002F0B2FF10BD10B59F
:100E2000044600F0F4F9A04206D9204600F0F2F999
:100E30008078012102F0A4FF10BD10B5FFF725FF57
:100E40000121142002F09CFF10BD10B5FFF725FF13
:100E50000121002002F094FF10BD10B5FFF725FF1F
:100E60000121042002F08CFF10BD10B5FFF725FF13
:100E70000121084602F084FF10BD10B5FFF725FFE1
:100E80000121082002F07CFF10BD10B5FFF725FFFF
:100E900001210F2002F074FF10BD000010B50B48B7
:100EA0000178002908D0002101700846FFF75DFF96
:100EB0000120FFF7B4FF10BD012101700020FFF7F2
:100EC000AEFF0120FFF751FF10BD00006C020020B3
:100ED00010B5FFF72CFF01210C2002F051FF10BDCF
:100EE00010B501212A2002F04BFF10BD10B50121E1
:100EF0002B2002F045FF10BD10B500F03CF8002893
:100F00000DD102F08FFE0849884201DD074904E057
:100F1000A3218900884204DD0549884201DD0020C3
:100F200010BD012010BD00002C060000C607000007
:100F30008103000010B5044600F042F8A04201D839
:100F4000002010BD204600F02FF8807802F0D0FE7F
:100F500010BD10B5044600F033F8A04207D9204672
:100F600000F022F8807802F0C3FE002801D00020B3
:100F700010BD012010BD10B5002002F053FEFF216E
:100F80009131884201DA012010BD002010BD10B55A
:100F9000FFF7D5FE01212A2002F0F2FE00212B20CE
:100FA00002F0EEFE10BD0000122801D300207047B1
:100FB000142148430149401870470000C0610008EF
:100FC00012207047002801D0002070470048704769
:100FD0003C63000801207047F0B585B0FFF7F0FFD3
:100FE000142801D9C72217E0372109012848FFF743
:100FF000D7F9FFF7EFFF0026039036E03046FFF702
:10100000E1FF0546446800780027029028E0287830
:101010002178884206D0D2221EA1002001F03AFF9A
:1010200005B0F0BDE16820690190607800908847C4
:101030000298002808D10199009888470146009835
:101040002C225043124A115400982C214843104935
:10105000143442180B5C5370085C7F1C9070FFB214
:10106000287AB842D3D8761CF6B203988642C5D304
:10107000124A0021012001F0D3FC1149022208701C
:10108000012101F04FFF0F4801F09EFEC8E700006C
:10109000A40A00202E2E5C736F757263655C646118
:1010A0006C5C6465766963655C635C64616C5F69F4
:1010B0006E7075745F6472762E630000AD44000834
:1010C0006D020020E115000870B514460D46064675
:1010D000FFF776FFB04202D8FF22233212E0002C45
:1010E00016D0680713D011482C2100234E43301826
:1010F000C118097A00290ED05B1CDBB2042BF7D390
:10110000FF2234320AA1002001F0C4FE002070BD8D
:10111000FF222432F6E7C1180D7299004118CC6005
:10112000CC61C178491CC170012070BDA40A0020A7
:101130002E2E5C736F757263655C64616C5C6465B4
:10114000766963655C635C64616C5F696E7075741D
:101150005F6472762E63000010B50446FFF730FF1F
:10116000A04207D8FF220D3207A1002001F092FE15
:10117000002010BD2C2044430D4820188078002802
:10118000F7D0012010BD00002E2E5C736F757263C6
:10119000655C64616C5C6465766963655C635C6412
:1011A000616C5F696E7075745F6472762E630000A7
:1011B000A40A002010B50446FFF702FFA04206D89B
:1011C000FB2207A1002001F065FE002010BD2C20AD
:1011D00044430D48005D0028F8D0012010BD0000F8
:1011E0002E2E5C736F757263655C64616C5C646504
:1011F000766963655C635C64616C5F696E7075746D
:101200005F6472762E630000A40A002070470320FA
:1012100070470000032801D30020704701490001F6
:10122000401870475C63000870B59C211E48FFF7AA
:10123000B7F8FFF7ECFF0646032805D997221BA154
:10124000002001F027FE70BD00241CE02046FFF7BF
:10125000E1FF054621463420414313480A185560F2
:10126000EA7842546968002901D020468847E87826
:10127000002801D0A96800E0E968002901D02046D3
:101280008847641CE4B2B442E0D3124A0021012032
:1012900001F0C6FB104905220870012101F042FE51
:1012A0000E4801F091FD70BD140E00202E2E5C73CF
:1012B0006F757263655C64616C5C646576696365B7
:1012C0005C635C64616C5F6F75747075745F64728D
:1012D000762E6300B51700086E0200202516000860
:1012E000FFB581B01D460C4606460A9FFFF78FFFEB
:1012F000B04201D8BC2202E0032C06D3BD2210A1CB
:10130000002001F0C7FD05B0F0BD03980028FAD019
:1013100028463843F7D034214E43134962007118F0
:101320008A18039890820819857347740572C772EA
:10133000A00008180B9A82620C99C161E3E70000D3
:101340002E2E5C736F757263655C64616C5C6465A2
:10135000766963655C635C64616C5F6F75747075FE
:10136000745F6472762E6300140E002070B515460B
:101370000C460646FFF74BFFB04205D8ED220BA105
:10138000002001F087FD70BD20462843FBD03420AB
:10139000464310480021C943301801830474C574C2
:1013A000847245730021016370BD00002E2E5C73B2
:1013B0006F757263655C64616C5C646576696365B6
:1013C0005C635C64616C5F6F75747075745F64728C
:1013D000762E6300140E002001494860704700001B
:1013E000000002400029016802D00122114301E0FF
:1013F000014A114001607047FEFF00000168204A69
:10140000114001600021016041608160C1601D499F
:101410001C4A0839904202D148680F2205E0194A57
:101420001432904204D14868F0221043486070475B
:10143000144A2832904203D148680F221202F4E77E
:10144000104A3C32904203D148680F221203ECE765
:101450000C4A5032904203D148680F221204E4E74C
:10146000084A6432904203D148680F221205DCE733
:10147000044A78329042DAD148680F221206D4E743
:10148000FEFF000008000240406880B27047000084
:10149000034A0146126800200A4200D0012070472A
:1014A00000000240002A026801D00A4300E08A439B
:1014B0000260704730B503680C4A0C6A13408A68B2
:1014C0004D6922430C692C4322438C692243CC6929
:1014D00022434C6A22438C6A22431A430260CA6840
:1014E00042600A6882604968C16030BD0F80FFFFBA
:1014F0000021016041608160C160016141618161E1
:10150000C1610162416281627047000070B50446AA
:101510000569C0680E46002805D0502206A100F0DB
:10152000F9FB0020E06021460C4803F0C3FE002DCB
:1015300001D03046A84770BD2E2E5C736F75726364
:10154000655C6170705C6D6D695C635C79785F6D22
:101550006D695F73656E642E6300000014040020E3
:1015600010B5144803F00FFF044612480C3003F086
:101570000AFF24180F48183003F005FF201880B226
:10158000082801D0C42210E00A4803F0FCFE0446FB
:1015900008480C3003F0F7FE20180AD006480078FF
:1015A00001F038FD002804D1C72204A1002001F079
:1015B00071FC10BDFC0300205C0200202E2E5C7329
:1015C0006F757263655C6170705C6D6D695C635CA6
:1015D00079785F6D6D695F73656E642E63000000DE
:1015E00010B50548007801F015FD002803D1B6229A
:1015F00002A101F04FFC10BD6D0200202E2E5C7385
:101600006F757263655C64616C5C64657669636563
:101610005C635C64616C5F696E7075745F64727644
:101620002E63000010B50548007801F0F3FC002897
:1016300003D1872202A101F02DFC10BD6E02002013
:101640002E2E5C736F757263655C64616C5C64659F
:10165000766963655C635C64616C5F6F75747075FB
:10166000745F6472762E6300F8B51448007801F058
:10167000D1FC002804D003F007FD0546002419E042
:10168000602210E0204603F0F9FC0746406903F0B1
:101690007AFE0646B86903F076FE3018C1B2B88902
:1016A000884205D0672206A1002001F0F3FBF8BDB7
:1016B000641CE4B2AC42E5D3F8BD00007302002024
:1016C0002E2E5C736F757263655C68616C5C746F01
:1016D0006F6C626F785C635C79785F64796D5F646E
:1016E00072762E6300000000F8B50B2706463F0413
:1016F000384600F041F804280FD1084C2069022533
:1017000028432061666120694021084320613846F2
:1017100000F032F82169A9432161F8BD00200240A0
:1017200008490420CA68D20701D001207047CA685E
:10173000D20601D502207047C9684907FBD50320AE
:1017400070470000002002400248016980221143D6
:10175000016170470020024004480169090603D571
:101760000349416003494160704700000020024086
:1017700023016745AB89EFCD70B50446FFF7D0FF75
:101780007D260546F6000BE0FFF7CAFF0546641EFE
:1017900031462046FEF706FE002901D1FFF768FA20
:1017A000012D02D0002C02D002E0002CECD1052546
:1017B000284670BDFEB5484805220121007801F099
:1017C000B1FBFFF724FD0746032805D9442243A1B6
:1017D000002001F05FFBFEBD00247AE021463420AA
:1017E00041430022474801910D186A701646022CA9
:1017F00009D1444871000818818A002951D140302C
:10180000008900284DD170002818808A002844D013
:1018100001206870A8190090807B3A4900280DD0FB
:101820000E460099401E887368688168002901D0BF
:101830002046884701990120705432E00098407C8E
:10184000002810D00099401E48746868C1680029BB
:1018500001D0204688472B48019A002181540098E6
:10186000407C00281DD170002818818A264A9142A8
:1018700001D0491E81820804000C07D1B00028184D
:10188000826A002A02D0C169204690470098017AF6
:1018900081730098C17A417403E0761CF6B2032E7E
:1018A000A5D369781748002911D1022C0FD0002C3C
:1018B0000DD0012C0BD00199405C0028686801D044
:1018C000816800E0C168002901D020468847641C77
:1018D000E4B2BC4282D3FEBD6E0200202E2E5C73A9
:1018E0006F757263655C64616C5C64657669636581
:1018F0005C635C64616C5F6F75747075745F647257
:10190000762E6300140E0020FFFF0000F0B50022C9
:10191000012423460D6893401D409D422AD14D6805
:10192000012D01D0022D12D1876855000326AE404B
:10193000B74387608E68AE4085682E438660858891
:101940009D43858085888B8993401D4385800668EB
:1019500055000323AB409E4306604E680768AE40C7
:101960003E430660C6689E43C6600B69AB40C568CF
:101970002B43C360521C102ACBD3F0BD4B07DB0EA8
:101980009A40C90810B589000818016A0F249C40C4
:10199000A1430162016A1143016210BD0246128A2D
:1019A00000200A4200D0012070470246928A00209F
:1019B0000A4200D00120704701857047816170475D
:1019C000F8B5002000900820FFF7F4FB80240028E1
:1019D00003D06946C8782043C8700920FFF7EAFBA6
:1019E0002025002803D06946C8782843C8700A20FB
:1019F000FFF7E0FB1026002803D06946C878304383
:101A0000C8700620FFF7D6FB0427002803D06946DC
:101A1000C8783843C8700520FFF7CCFB002803D0F6
:101A200069468878204388700020FFF7C3FB0028B0
:101A300003D069464878204348700120FFF7BAFB7D
:101A4000002805D069464878402108436946487017
:101A50000420FFF781FB002803D06946487828431B
:101A600048700720FFF7A6FB002803D06946487896
:101A7000304348700B20FFF79DFB002805D06946D6
:101A8000487808210843694648700C20FFF792FB0C
:101A9000002803D069464878384348700320FFF790
:101AA00089FB002805D06946487802210843694629
:101AB00048700098F8BD000010B5552905D0512296
:101AC00009A1002001F0E6F909E0402807D2012130
:101AD000C002C9064018FFF707FE042801D0002005
:101AE00010BD012010BD00002E2E5C736F75726357
:101AF000655C68616C5C6472697665725C635C6885
:101B0000616C5F666C6173685F6472762E6300005F
:101B100010B5552805D03F2206A1002001F0BAF9E2
:101B200010BD0E4801780029FAD000210170FFF79E
:101B30000BFE10BD2E2E5C736F757263655C686161
:101B40006C5C6472697665725C635C68616C5F662C
:101B50006C6173685F6472762E630000720200200D
:101B600010B5552805D02F2206A1002001F092F9CA
:101B700010BD0E4801780029FAD101210170FFF74C
:101B8000EBFD10BD2E2E5C736F757263655C686132
:101B90006C5C6472697665725C635C68616C5F66DC
:101BA0006C6173685F6472762E63000072020020BD
:101BB000F0B50446042085B00E460190552B05D0A3
:101BC000BB2228A1002001F065F943E02F49A018AD
:101BD00088423FD8E0073DD1D0073BD10B205708C2
:101BE00000040094FFF7C8FD0190042832D1284872
:101BF000016901221143016100250DE0FFF738F86A
:101C00006800315C8019407800020818009908804B
:101C10000098801C6D1C0090BD42EFD30B20000487
:101C2000FFF7AAFD019004281948016903D049086B
:101C3000490001610EE049084900016100200DE002
:101C400041008B195B78725C1B02D218615A92B208
:101C5000914202D0002005B0F0BD401CB842EFD345
:101C60000120F8E72E2E5C736F757263655C686106
:101C70006C5C6472697665725C635C68616C5F66FB
:101C80006C6173685F6472762E6300000000020866
:101C900000200240010010B51C4834D0012212037C
:101CA000914230D2C91C8A0892002AE0417A002968
:101CB00026D14189914223D3AA2444724189144BED
:101CC000891A0C2914D981180C310C724489A41A70
:101CD0000C3C4C8100244C72086044684C604468A1
:101CE000002C00D02160416042815968491C596034
:101CF0004289196889181960002804D00C3010BD79
:101D000040680028D2D1002010BD000070110020D2
:101D10007402002070B5002805D00C38017AAA2979
:101D200003D0A02242E09D2240E0417AAA2901D0BE
:101D3000A1223BE0002141721F4944890A68121B1D
:101D40000A6002684368002A0ED0557A002D0BD134
:101D500055892C190C34548144685460002B00D0F0
:101D60001A604B685B1E4B604368002B17D0002A3B
:101D700003D054689C4200D110464268547A53689C
:101D8000002C0CD14489558964190C344481526863
:101D90004260002B00D018604868401E4860086808
:101DA000002807D14868012804D0D32203A10020CD
:101DB00001F070F870BD0000740200202E2E5C73DC
:101DC0006F757263655C68616C5C746F6F6C626F79
:101DD000785C635C79785F686561706D656D2E63B2
:101DE00000000000FEE7000010B502280ED10878C0
:101DF00001280BD106480021418081800178012211
:101E0000114301700021022003F008FD10BD000005
:101E1000E402002010B500219A2003F0FFFC10BD61
:101E20001FB5684603F03DFA684603F0DDFF6846DB
:101E300003F0EFFF01460022982003F0ABFD1FBD29
:101E4000F0B50D468FB014460021E32003F0E6FC08
:101E50002246294609A803F024FA09A803F0E4FF62
:101E6000064609A803F0D5FF054609A803F0BCFF04
:101E7000474C0746A068B0426AD161687019884231
:101E800066D844480A223221007801F04BF8012F2D
:101E900001D0042071E0002E41D109A803F0CFF950
:101EA000C71DF9370422F91C0DA8FEF711FA3846B0
:101EB00003F078F8002803D060680D99884201D0BB
:101EC00003205AE0AA203870012767705520FFF7D9
:101ED00047FE002002F01EF9012002F01BF903F07A
:101EE00051F9E12100204902019100900421029062
:101EF00005900690C8010790032003910002089006
:101F00000497684602F0ACF94B20C0010190C8204C
:101F10000790780208900097684602F0A1F960786F
:101F2000002807D009A803F08AF901462A4630465E
:101F300004F030F8A0684019A0606168884209D2B6
:101F40000A1A012149028A4200D891B203F050FED8
:101F50000FB0F0BD02F0F8FF002805D0032020707C
:101F6000012003F027FEF3E7A078401CC0B2A07068
:101F7000052805D90020A0700220FEF747FEE7E7FC
:101F8000022020700020A06003F0F7FDE0E70000D1
:101F9000D8020020EC0100207FB50D461446002138
:101FA000E12003F03BFC22462946684603F079F91C
:101FB000684603F019FF0446684603F015FF012840
:101FC00001D1012C02D00420FEF720FE7FBD704716
:101FD00010B50021B32003F021FC10BD10B5002185
:101FE000A42003F01BFC10BD10B50021082003F055
:101FF00015FC10BD10B50021E42003F00FFC0748CC
:102000000078032808D1052003F047FE04480A227F
:102010003221007800F086FF10BD0000D8020020B9
:10202000EC01002010B5012812D1087801280FD149
:10203000084800214180818001780122114301700C
:102040000021104603F0EAFB02F0CBFB03F03AFE5E
:1020500010BD0000E402002010B50021062003F0AE
:10206000DDFB10BD10B50878012803D100217A20CE
:1020700003F0D4FB10BD10B50021632003F0CEFBAC
:1020800010BD10B50021622003F0C8FB10BD10B5D3
:1020900000217B2003F0C2FB10BD10B50878012899
:1020A00003D10021742003F0B9FB10BD10B5442802
:1020B00002D1002103F0B2FB10BD10B50021712048
:1020C00003F0ACFB10BD1FB5684603F0EAF86846A4
:1020D00003F08AFE01460222922002F015FB1FBD8A
:1020E0001FB5684603F0DDF8684603F07DFE014643
:1020F0000122932002F008FB1FBD10B58AB004A88E
:1021000003F0CFF804A803F06FFE044604A803F020
:102110008BFE009004A803F067FE401E694608711C
:1021200004A803F061FE401E6946487104A803F04C
:102130005BFE69468871082800D908200246C91D3F
:1021400004A803F059FE01222146992002F0DCFA8E
:102150000AB010BD1FB5684603F0A3F8684603F047
:1021600043FE01460222942002F0CEFA1FBD1FB5A5
:10217000684603F096F8684603F036FE01460222F0
:10218000952002F0C1FA1FBD1FB5684603F089F81B
:10219000684603F029FE01460222912002F0B4FABB
:1021A0001FBD00007CB50878AA2818D10C491E2054
:1021B000C88003F0C3FE0546012103F01FFF284637
:1021C00003F03BF884B2284603F03BF801460020B8
:1021D0000090034601902246422003F04DFB7CBD57
:1021E000E402002070B586B002A803F05AF803F0AC
:1021F000A5FE064602A803F0F7FD0546002407E009
:1022000002A803F0F1FD02A803F0EEFD641CE4B2A5
:10221000AC42F5D30121304603F0F0FE304603F026
:102220000CF884B2304603F00CF801460020009010
:10223000034601902246482003F01EFB06B070BD05
:102240007FB5412842D1684603F02BF8684603F079
:10225000CBFD0646002433E0684603F0C5FD054685
:10226000684603F0C1FD2B0003F075FF0628040C3F
:10227000141C2428012802D0FEF7ADFD1EE0FEF755
:1022800004FE1BE0012802D0FEF79DFD16E0FEF7DC
:10229000F4FD13E0012802D0FEF7B5FD0EE0FEF7D5
:1022A0001FFE0BE0012802D0FEF7B3FD06E0FEF7AB
:1022B0001DFE03E0012801D1FEF70AFE641CE4B212
:1022C000B442C9D30121412002F03DFA7FBD10B5CF
:1022D0000C78E00702D0FEF7C0FD01E0FEF763FDD9
:1022E000A00702D5FEF7C1FD01E0FEF764FD012164
:1022F000B22002F042FA10BD30B587B0E22832D1E8
:1023000002A802F0CEFF02A803F08EFD044603F0FF
:1023100015FE0546E01FFF381449FA38884204D3F9
:102320000221284603F06AFE07E00121284603F057
:1023300065FE0F4900204C60886001214902284653
:1023400003F0C4FE284602F078FF84B2284602F06B
:1023500078FF01460120074A034601920090224679
:10236000E22003F089FA07B030BD000001760100D9
:10237000D8020020490C0008FEB50F4603F0DEFD30
:1023800000903E78314603F039FE002413E03819FE
:1023900045780098294603F031FE0121009803F0AA
:1023A0002DFE6D1EE8B201F03DFC81B2009803F0F5
:1023B0008DFE641CE4B2B442E9D3009802F03DFF04
:1023C00084B2009802F03DFF0146002000900346D1
:1023D00001902246792003F04FFAFEBD7047704706
:1023E00010B5012001F0F8FF002801D0012100E024
:1023F0000221B42002F0C1F910BD10B50121A120C5
:1024000002F0D5F910BD10B50121A22002F0CFF9DC
:1024100010BD000010B5A32813D10A480A784270F5
:102420004A788B781202D2180346203B5A84CA7825
:1024300002710A794271497981710121A32002F068
:10244000B6F910BDCC02002030B585B0452846D184
:1024500001AA04ABD11D02A801F0A4FD002840D0C0
:1024600003F06CFD0546012103F0C8FD6946097AB9
:10247000284603F0C3FD6946497A284603F0BEFDAD
:102480006946897A284603F0B9FD6946C97A284623
:1024900003F0B4FD6946097B284603F0AFFD6946A9
:1024A000497B284603F0AAFD69460979284603F0CE
:1024B000A5FD01F071FD002801D0012100E00221FD
:1024C000284603F09BFD284602F0B7FE84B228465A
:1024D00002F0B7FE01462246452002F09BFF05B000
:1024E00030BD0221452002F02EF9F8E77CB50C46FC
:1024F00003F024FD0546217803F080FD01212846E4
:1025000003F07CFD284602F098FE84B2284602F0D3
:1025100098FE0146002000900346019022460520C7
:1025200003F0AAF97CBD00007CB50C4603F006FD63
:102530000546217803F062FD0121284603F05EFD87
:10254000284602F07AFE84B2284602F07AFE01465E
:10255000044A05200192009001232246072003F03F
:102560008BF97CBD39380008F0B587B078282AD1BE
:10257000684602F096FE684603F036FC06460024E4
:10258000124F1AE0684603F02FFC0546684603F038
:102590002BFC0590684603F03CFC0490684603F071
:1025A00023FC032D07D87919059ACA746B00DB192F
:1025B000049ADA824877641CE4B2B442E2D301217F
:1025C000782002F0F4F807B0F0BD0000AC02002063
:1025D00030B589B0B12854D10D784C788A784B2029
:1025E000C978C0012B0003F0B6FD091A06090C1AC0
:1025F0000F1215181A004B20000110E04B2040016B
:102600000DE04B2080010AE04B20000207E04B2048
:10261000400204E0E120000201E0E120400223004A
:1026200003F099FD06040505050505040424012AA7
:1026300004D0022A09D0032A09D001220B0003F09A
:102640008AFD0608080D0A0D0C080422F6E702228E
:10265000F4E7002102E0012100E0032101AD13C5F0
:1026600001230020009305900690C820079058028F
:1026700008900492684601F0F3FD0121B12002F0B8
:102680007CF809B030BD000010B575280DD10748A1
:102690000A7802734A788B781202D218C281C978FC
:1026A00001740121752002F082F810BDAC020020F7
:1026B00010B586B043283BD1684602F0F2FD68466B
:1026C00003F092FB69460874684603F08DFB694687
:1026D0004874684603F088FB69468874684603F0CE
:1026E00083FB6946C874684603F07EFB694608753B
:1026F000684603F079FB69464875684603F074FB49
:102700000446401E072800D30124012001F07EFC6E
:10271000002809D004A92246033104A801F0C2FC14
:10272000002801D0012100E00221432002F00BF833
:1027300006B010BD10B50121722002F038F810BDAE
:1027400010B573280FD100290DD0002A0BD00648F0
:102750000A7882714A788978120251180181012120
:10276000732002F024F810BDAC0200207CB503F009
:10277000E5FB0546012103F041FC1421284603F046
:102780003DFC02F061FD0446FDF780FDC1B2284624
:1027900003F034FC2146284603F0D1FC284602F021
:1027A0004CFD84B2284602F04CFD0146002000900A
:1027B000034601902246042003F05EF87CBD7CB500
:1027C00003F0BCFB0546022103F018FC284602F08A
:1027D00034FD84B2284602F034FD0146002000900A
:1027E000034601902246642003F046F87CBD0000B9
:1027F00010B50F4AC478526817E01379A34213D179
:102800009368002B08D0D268934207D04D2209A1CB
:10281000002000F03FFB10BD4C22F8E7091F8AB2F0
:10282000011D2046984710BD1268002AE5D110BD51
:10283000600200202E2E5C736F757263655C6170A0
:10284000705C6D6D695C635C79785F6D6D695F72FA
:102850006563762E6300000010B5C0B200F058F931
:1028600010BD10B5C0B200F053F910BD704710B5DF
:10287000C0B200F04DF910BDFEB5344E0122322138
:10288000707800F04FFB02F0C1FF0025304C0028AB
:1028900013D06088401C80B26080142802D3658009
:1028A00001F09FFFE08800282BD0401E0004000CA0
:1028B000E08018D00A281AD023E003F03FFB14214F
:1028C000009003F09BFB009802F0B7FC87B20098E1
:1028D00002F0B7FC0146009500233A46012001951D
:1028E00002F0CAFF0DE0FF206930E08011E0E12036
:1028F000002301220421400202F072FD032003F0B4
:102900009AF9A088FF21401C80B26931A0808842DA
:102910000DD320784008400020706580A58003F02A
:1029200095F803223221B07800F0FCFAFEBD014692
:10293000FF395F39FAD1E12000230122042140024E
:1029400002F04EFD012003F076F9FEBD10020020DA
:10295000E402002010B502F059FF184C002815D0F1
:10296000174801780B0003F0F6FB05160407172340
:10297000160003F002F909E0416880680A1A012193
:1029800049028A4200D891B203F032F90A22322178
:10299000207800F0C7FA10BD02F020FC5520FFF7A8
:1029A000B7F8FF22A63207A1022000F073FA10BD8B
:1029B00000210170207800F0DFFA10BDEC0100204A
:1029C000D80200202E2E5C736F757263655C617097
:1029D000705C6D6D695C635C79785F6D6D695F6477
:1029E0006F776E6C6F61642E6300000030B40A4C28
:1029F00008780023DD00655D854207D1DB001B19E7
:102A0000521E5B6830BC92B2491C18475B1CDBB29B
:102A10000C2BEFD330BC7047C4000020704700007F
:102A2000F8B50546002A03D0032D03D34D2211E04B
:102A30004C220FE0114E0020182343439B191B69C1
:102A4000002B04D0401CC0B22028F5D301E0202880
:102A500006D354220AA1002000F01CFAFF20F8BD82
:102A60001827034600247B43F4549B195D709C6037
:102A70001A61DC605A615960F8BD0000AC23002087
:102A80002E2E5C736F757263655C68616C5C6B6540
:102A9000726E616C5C635C6F735F74696D65722EDE
:102AA0006300000010B51048427881788A4201D155
:102AB0000A2A01D9952213E0002A0FD001784B1C75
:102AC00003708A4201D8002101708900081841680A
:102AD000C06A814203D1002901D0884710BD9F22DE
:102AE00002A1002000F0D6F9702100202E2E5C7388
:102AF0006F757263655C68616C5C6B65726E616C4E
:102B00005C635C6F735F6572726D616E2E63000053
:102B100070B5124D06460024214618204143685CDA
:102B2000002815D048194278B24211D10269002A12
:102B30000ED043699A4205D0C02209A1002000F0BE
:102B4000A9F970BD00226A5441680269084690479D
:102B5000641CE4B2202CDFD370BD0000AC23002045
:102B60002E2E5C736F757263655C68616C5C6B655F
:102B7000726E616C5C635C6F735F74696D65722EFD
:102B800063000000032801D300207047142148434C
:102B90000149401870470000AC67000803207047E7
:102BA00010B5F4210148FDF7FBFB10BD702100209A
:102BB000F8B510490020087048808880FFF7EEFFC4
:102BC0000024009011E02046FFF7DCFF077C002581
:102BD000C66806E03068002800D08047361D6D1CAE
:102BE000EDB2BD42F6D3641CE4B200988442EAD34D
:102BF000F8BD00006422002010B50021094B0846F2
:102C000018224A439854D2185070491C1061C9B216
:102C100050612029F4D304498860486000F0D2F95B
:102C200010BD0000AC2300207C020020FEB52A4C21
:102C30000020A7882070002F44D061880801001967
:102C4000067AC568026901924069491C009088B201
:102C50006080142801D300206080A0887F1E401E61
:102C6000A080FFF79BFF8642E5D23046FFF78AFF40
:102C7000014640688A684188A94219D88A18AA4240
:102C800016D9691AC9000A185388AB4201D0982294
:102C900014E0405AB04201D099220FE050688446B7
:102CA0000028C8D0A9B230466546009B019A10E0C2
:102CB000002DC0D10288B24205D09F2207A100207A
:102CC00000F0E8F8FEBD4568002DB4D03046009B0A
:102CD000019AA847AFE70000642200202E2E5C7303
:102CE0006F757263655C68616C5C6B65726E616C5C
:102CF0005C635C6F735F716D73672E63000000002F
:102D000070B5104CA588142D06D34C220EA10020BE
:102D100000F0C0F8002070BD66887519ADB2142DA2
:102D200001D3143DADB22D012D1928720C350EC5FD
:102D30002078002801D101202070A088401CA080AC
:102D4000012070BD642200202E2E5C736F757263AB
:102D5000655C68616C5C6B65726E616C5C635C6F1A
:102D6000735F716D73672E6300000000FFB581B063
:102D70000A9B9646002822D0124D7146688800248E
:102D8000AE88029A14E0142801D3143880B20701E7
:102D90007F19BC46FF688F4206D167463F7A97424B
:102DA00002D1012005B0F0BD641C401CA4B280B269
:102DB000A642E8D8049A0298FFF7A2FFF2E771460C
:102DC000049AF8E76422002010B50D494A780A2ACF
:102DD00010D200280ED09200521850604A78521C2F
:102DE0004A708A7892005218D0628878401C8870A5
:102DF000012010BDAB2203A1002000F04BF8000021
:102E0000702100202E2E5C736F757263655C6861A3
:102E10006C5C6B65726E616C5C635C6F735F65723A
:102E2000726D616E2E63000010B5002901D002287A
:102E300001D3002010BD0D4B282400226043C01890
:102E40009300C3185B6D002B08D0521CD2B20A2A23
:102E5000F6D3572206A1002000F01CF8920080183B
:102E6000416580304162012010BD000070210020CA
:102E70002E2E5C736F757263655C68616C5C6B654C
:102E8000726E616C5C635C6F735F6572726D616EB4
:102E90002E630000F7B582B00C46204D0846FDF7C2
:102EA000F5F9C2B206E0A0182038C07F5C2803D034
:102EB000521ED2B2002AF6D1A01800901848C1784C
:102EC000491CC9B2C170029A022A24D0012922D811
:102ED000002413482821002661430F18B000381839
:102EE000436D8030406A834205D1002B03D0049AA1
:102EF000009902989847761CF6B20A2EEED3641C0D
:102F0000E4B2022CE5D3AD1E002DFDD06D1EFBD129
:102F1000FDF7AEFEF8E76D1EF6E70000FFFF0F00BD
:102F20007021002070B520280CD21823084C58437B
:102F300003191D69002D05D051439960D960002106
:102F4000215470BD7C2203A10020FFF7A3FF70BDB8
:102F5000AC2300202E2E5C736F757263655C686114
:102F60006C5C6B65726E616C5C635C6F735F7469E3
:102F70006D65722E6300000010B5202805D38B22EA
:102F800006A10020FFF786FF10BD182250430C4A0F
:102F9000002183189960D960115410BD2E2E5C73E6
:102FA0006F757263655C68616C5C6B65726E616C99
:102FB0005C635C6F735F74696D65722E6300000003
:102FC000AC23002070B5104C20698008800020617F
:102FD00000214D1E0322284600F03EFF0B492846E3
:102FE00000F094FF0A487D2189010068FDF7DAF9B5
:102FF00014214843401E60610020A0612069032124
:103000000843206170BD000000E000E005090008F1
:103010008802002010B5202805D3AB2209A100208A
:10302000FFF738FF0BE0182148430F4940180169AA
:10303000002904D08068002801D0012010BD0020A4
:1030400010BD00002E2E5C736F757263655C686145
:103050006C5C6B65726E616C5C635C6F735F7469F2
:103060006D65722E63000000AC230020F8B5284C7B
:103070006168A06888422ED0FDF7FAFD6068A168FB
:10308000884201D3431A01E0431A5B1EA06000206E
:103090001F4C05462554401C0328FBD31D49002026
:1030A00018220646564372181769002F1DD09768DC
:1030B000BC46002F19D0D7689F4203D3FF1AD760B0
:1030C00001D012E0D5605778032F05D3EB2212A16F
:1030D0000020FFF7DFFEF8BD6746D76001278F5558
:1030E0005278A65C002E00D1A754401C2028D7D3CC
:1030F0000026A05D002806D00023F1B21A4618462B
:103100000095FFF733FE761C032EF2D3F8BD0000C6
:103110007C020020AC2300202E2E5C736F7572633E
:10312000655C68616C5C6B65726E616C5C635C6F46
:10313000735F74696D65722E6300000004498A151F
:103140000028086801D0104300E0904308607047F1
:10315000007000407047000070B51A4C6178651E21
:10316000002908D0012911D0601E0078022920D042
:10317000FFF702FF70BD02F048F9FDF704FEFDF70E
:103180000AFE01200322607032210EE0FDF755FE99
:10319000FDF701FEE120002301220421400202F09C
:1031A0001FF902200322607005212878FFF7BAFE7C
:1031B00070BDFFF7E1FEFDF748FE6078401C6070CF
:1031C00070BD0000E9010020044A0029516901D0C6
:1031D000014300E08143516170470000001002404C
:1031E000044A0029D16901D0014300E08143D16143
:1031F0007047000000100240044A0029116901D004
:10320000014300E08143116170470000001002405B
:10321000044A0029916901D0014300E08143916192
:103220007047000000100240044A0029D16801D014
:10323000014300E08143D16070470000001002406C
:103240000122054912040028086A01D0104300E059
:10325000904308627047000000100240F8B5464DE8
:103260000446696800200C22444E114005D0042910
:1032700003D0082903D00C2918D0266018E069680B
:10328000686803228902D2030F0F1040BF1C002878
:1032900009D0E86A0107090F491C3046FDF782F89A
:1032A0007843206004E036487843FAE735492160E6
:1032B0006968354B0906090F5A5C21680F46D740EB
:1032C00067606A685205520F9A5CD740A7602A6B04
:1032D000D20501D42D4A05E06A68520401D47A0867
:1032E00000E0BA08E2602A6B5306294A03D4284B4F
:1032F0001233236100E022612B6BDB0601D466618F
:1033000000E061612B6B9B070ED02B6B9B079B0F23
:10331000012B0BD02B6B9B079B0F022B08D02B6B29
:10332000DB439B0706D006E0A76104E0A16102E051
:10333000A26100E0A6612B6B9B039B0F0FD02B6B50
:103340009B039B0F012B0CD0296B8903890F02294A
:1033500009D0296B8903890F032906D006E0E761AC
:1033600004E0E16102E0E26100E0E661296B090648
:1033700000D404482062F8BD0010024000127A0018
:1033800000093D00006CDC029C020020809FD500FB
:1033900000800000034600200A495A090CD0012A87
:1033A0000CD0022A0CD0496BDA06D20E01239340CE
:1033B0000B4200D0012070470968F5E7096AF3E77E
:1033C000496AF1E70010024006490A6A52085200B1
:1033D0000A620A6A04239A430A620A6A02430A6278
:1033E000704700000010024004490A6A18239A43FB
:1033F0000A620A6A02430A62704700000010024033
:1034000005490028486A02D00122104301E0400823
:103410004000486270470000001002400122054948
:10342000D2030028086A01D0104300E090430862EC
:10343000704700000010024002490A6A02430A6213
:10344000704700000010024001090A2200075143A2
:10345000000F4018C0B27047002103E0491C0A3831
:10346000C9B2C0B20A28F9D20907090E0843704749
:1034700070B50124E40300280AD001281AD000F016
:10348000A9F90120FFF7CAFF00F0A4F9012070BDDF
:103490000120FFF7B5FF01252646FDF7E9FB412096
:1034A000FFF778FF012802D06D1CB542F5D301204B
:1034B000400213E00120FFF787FF1820FFF794FF79
:1034C00001252646FDF7D4FB2120FFF763FF0128E5
:1034D00002D06D1CB542F5D3FF200130FFF7ACFFE1
:1034E00000F078F9A542CCD3002070BD30B500259E
:1034F000114CCA2060625320606200F025F8002859
:1035000016D0002121600D4860610D486060A06800
:10351000A1600C482061E161E162E163064840304E
:103520004160E160016000F055F9002800D00125FC
:10353000FF206062284630BD00280040FFFF0000E9
:1035400001210000FF007F0018B5002000900C480A
:10355000C168490612D40021C943C1604022031446
:10356000C168009C1140641C00949C4201D0002959
:10357000F6D0C068400601D4002018BD012018BD57
:10358000002800400248C16880229143C160704712
:1035900000280040024610B50F480C464068C02184
:1035A000C94301400002000ECB04E070DB0E6370E3
:1035B0008B069B0E0904490FA3702170002A0AD1C3
:1035C000FFF742FFE0706078FFF73EFF6070A07881
:1035D000FFF73AFFA07010BD002800400149886A3B
:1035E000496870470028004070B50C4610490B68C8
:1035F000104919408A024D04920E22706D0E490640
:103600006570490EA1705902490E40231940E170BE
:1036100000280BD11046FFF717FF20706078FFF7E6
:1036200013FF6070A078FFF70FFFA07070BD00005F
:10363000002800407F7F7F0070B5054600260F4CB4
:10364000CA20606253206062FFF77EFF002811D01D
:10365000A06840218843A060A06829680843A06052
:10366000A86820612069A988090408432061FFF740
:1036700089FF0126FF206062304670BD00280040AF
:1036800010B501210807FFF7ABFD0120FFF756FD3C
:1036900010BD0000034908B5800040180090006884
:1036A00008BD00005028004070B50C4601460026B9
:1036B000607800290ED0FFF7C7FEA078FFF7C4FEA0
:1036C000E078A5780004054360782178000249037A
:1036D000084314E0C10603D5EF2108400A306070AA
:1036E000E078FFF7B9FE05046078FFF7B5FE000249
:1036F0000543A078FFF7B0FE05432078400305435B
:103700000C4CCA20606253206062FFF71DFF002846
:103710000CD0094805406560FFF734FFA0688006BB
:1037200003D400F057F8002800D00126FF20606283
:10373000304670BD002800403FFFFF00F8B502464C
:103740000027224D0C46002A0978AA68384605D081
:1037500052062FD50846FFF777FE2CE0520600D41C
:10376000E0700846FFF778FE06046078FFF774FE05
:1037700000020643A078FFF76FFE0643E0780004DE
:103780000643CA20686253206862FFF7DDFE002806
:103790000CD00F4806402E60FFF7F4FEA8688006A4
:1037A00003D400F017F8002800D00127FF2068623A
:1037B0003846F8BDE0702078A678000406436078AB
:1037C000E178000209040843DAE70000002800401D
:1037D0007F7F7F0018B5002011490090886880061F
:1037E00001D5012018BDCA20486253204862C8682C
:1037F000A0229043C86020229302C868009C104019
:10380000641C00949C4201D00028F6D0C868800651
:1038100001D5012000E00020FF224A6218BD00000F
:1038200000280040034A08B580008018009001601D
:1038300008BD00005028004010B5E82202A1012078
:10384000FFF728FB10BD00002E2E5C736F757263AE
:10385000655C6170705C6D6D695C635C79785F6DEF
:103860006D695F6472762E630000000010B5012858
:1038700006D0002803D0032804D1052000E0022050
:1038800002F00BFA10BD000010B504488078FFF775
:1038900073FB02F0DFF802F01FF910BD10020020E8
:1038A000F0B58BB004007CD0E0680025002834D04F
:1038B0004049401878D0282873D13F4F0B2601216A
:1038C0000846FFF781FCE068FDF798FD6846FDF7C4
:1038D0000FFE60690195283000901020029003953A
:1038E000049580200A9506950795089509950590F9
:1038F0006946E068FDF7DEFD0021304600F05CFA25
:103900003946304600F002FB02220021304600F02A
:10391000A3FA0121304600F04FFA2069002840D078
:1039200024491439401842D028283AD1224F0B2676
:1039300001210846FFF748FC2069FDF75FFD684656
:10394000FDF7D6FD6069A422243000902178A420E0
:1039500041431A480295091822310191202103910F
:10396000049580210A950695079508950995059176
:10397000217851430818457069462069FDF79AFD82
:103980000021304600F018FA3946304600F0BEFA01
:1039900002220021304600F05FFA0121304600F09B
:1039A0000BFA0BB0F0BDFFE70A26054F87E70A26A2
:1039B000034FBDE7E4FFFDBFCF070008B00E0020B6
:1039C000B3070008F0B5064689B00078FCF73AFF67
:1039D0000446406946498842E06903D10121FFF766
:1039E00017FC02E00121FFF7FBFB70680790F0680D
:1039F000042801D0052801D0002701E001273F035A
:103A00003069012805D0022808D0032801D00428F5
:103A100001D0002504E003252D0301E001256D03FD
:103A2000B068002803D0012803D0022804D0002663
:103A300004E00126B60201E0032676020C2006907F
:103A40000021606901F058F9606901F067F9079891
:103A50000197009006980490002003960295059027
:103A60006946606901F0BCF9E068224F0028224DE8
:103A7000206915D00028606907D00122C02101F01B
:103A800045F9204600F03CF81AE00122802101F0BF
:103A90003DF9204600F034F80122294660691EE015
:103AA000164E002810D001224021606901F02EF945
:103AB000204600F025F801223146606901F07AF9CC
:103AC0000122394660690AE0204600F019F8012217
:103AD0002946606901F06EF901223146606901F002
:103AE00069F90121606901F007F909B0F0BD000032
:103AF000003801400401040005010500070107002A
:103B000070B500281DD040690E49401806D03D21EF
:103B10008902401A15D11B250B4C01E00B4C1C25CA
:103B20000021284600F048F92146284600F0EEF929
:103B300002220021284600F08FF90121284600F0DA
:103B40003BF970BD00BCFFBFEF0700081308000879
:103B5000F0B585B00E46040053D0206A002803D08B
:103B600001210846FFF754FB01214804FFF72CFB15
:103B7000217901252846884080B200900327002043
:103B8000029704950390002E12D0022001906946FE
:103B9000A069FDF7BBFE2249A0698842A18802D135
:103BA00089B2002201E089B20122FDF7E7FE0BE0B5
:103BB00001956946A069FDF7A9FE2179284688404C
:103BC00081B2A069FDF7F8FE207A2946814088B2CB
:103BD00000900020029704950390002E13D002203D
:103BE00001906946A069FDF791FE0D49A0698842E0
:103BF000218902D189B2002201E089B20122FDF7B8
:103C0000BDFE05B0F0BD01956946A069FDF77EFED9
:103C1000207A8540A9B2A069FDF7CEFEF1E7000049
:103C200000040048062807D2044940004018408894
:103C300003494843000B7047002070479C10002048
:103C4000E40C000010B50E210248FCF7A7FBFCF7BE
:103C50005BFF10BD9C100020F0B587B0FCF733FE71
:103C6000002500902AE02846FCF724FE0746C46899
:103C700080680121FFF7A8FA00261AE0207A0028C0
:103C800014D0608801902079029060790490A07926
:103C900005900320039001A97868FDF737FE20798D
:103CA000012803D1E179607800F06AF80A34761CC3
:103CB000F6B2387CB042E1D86D1CEDB20098854276
:103CC000D1D307B0F0BD10B50446FCF707FEA04203
:103CD0000CD92046FCF7F9FD04460078FCF7EAFD14
:103CE00061884068FDF761FE012800D0002010BD0A
:103CF00010B50446FCF7F2FDA0420CD92046FCF7B3
:103D0000E4FD04460078FCF7D5FD61884068FDF7C6
:103D100045FE012800D0002010BDFFB585B0154636
:103D20000E460746FCF7DAFDB84227D93846FCF7BD
:103D3000CCFD04460078FCF7BDFD0146608800908C
:103D400000200122002E07D0019263790393012DF8
:103D500004D0022D04D004E00190F6E7049201E0C3
:103D6000022004900320029048686946FDF7CEFDCA
:103D7000012E03D13846089900F002F809B0F0BDD1
:103D800070B50D460446FCF7A9FDA04201D80020FD
:103D900070BD2046FCF799FD04460078FCF78AFDCB
:103DA00061884068002D02D0FDF708FE01E0FDF7B4
:103DB00003FE012070BD000010B5002803DB0246A1
:103DC0001032302A05DB8A2219A10020FFF762F8A1
:103DD00010BDC3060120DB0E02469A40002910D018
:103DE000EFF31081CB07DB0F04D1EFF31081014318
:103DF00081F3108817480260002BE9D1EFF310809F
:103E000010E0EFF31081C907C90F04D1EFF310835D
:103E1000034383F310880F48803002600029D7D114
:103E2000EFF310804008400080F3108810BD0000C0
:103E30002E2E5C736F757263655C68616C5C647276
:103E4000697665725C635C73745F6972715F6472DA
:103E5000762E630000E100E00F2110B5C9438842CF
:103E600002DD411A302901DB772202E0042A05D362
:103E700078221BA10020FFF70DF810BDEFF3108191
:103E8000CB07DB0F05D1EFF310810124214381F330
:103E900010888107CC0EFF21A1409207120EA2408C
:103EA00000280BDA0007000F083884081548A40022
:103EB0002018C4698C431443C46107E08408124885
:103EC000A40024182068884310432060002BD4D11C
:103ED000EFF310804008400080F3108810BD000010
:103EE0002E2E5C736F757263655C68616C5C6472C6
:103EF000697665725C635C73745F6972715F64722A
:103F0000762E630000ED00E000E400E010B5174BF2
:103F100000221B681A700F22D243904202DD821ADF
:103F2000302A01DB632208E0002905D0EFF310827C
:103F3000D207D20F06D00BE064220DA10020FEF7BD
:103F4000A9FF10BDEFF310830124234383F31088EE
:103F5000104B8000C0180164002AF2D1EFF31080EA
:103F60004008400080F3108810BD0000C000000829
:103F70002E2E5C736F757263655C68616C5C647235
:103F8000697665725C635C73745F6972715F647299
:103F9000762E630000000020014840787047000042
:103FA00070020020FEB505461E4617460C4600204E
:103FB000FFF770FBAA2804D10120FFF76BFBAA28AA
:103FC00001D00020FEBDFFF709FB306001A90020F1
:103FD000FFF70AFB69460020FFF7DCFA6846007924
:103FE000207068464079607068468079A0706846A5
:103FF0004078687068468078A8706846C0782870F5
:104000006846007838700120FEBD0000FEB5054608
:104010000020FFF73FFB214E0124AA2820D0FFF704
:104020002FFBFFF763FA0120FFF70AF90020FFF7E3
:1040300007F92846FFF71CFA002810D03470002D2D
:104040001DD0012D1ED0164963200025019000953A
:1040500002916846FFF7F0FA012816D02846FEBD07
:104060003078002809D13470FFF70AFB002D02D107
:104070000120FFF7C5F9FFF7ADFB0120FEBDFF21D1
:104080009031E1E7FF217F20DFE7FFF7A3FBAA21C3
:104090000020FFF7C7FB2046FEBD00007002002095
:1040A000C30900007CB5054616460C460020FFF704
:1040B000F1FAAA2801D000207CBD21786846017061
:1040C00061784170A1788170207800240C2802D298
:1040D0006846C47002E040206946C8706946002006
:1040E000FFF72CFB012801D020467CBD68460671F5
:1040F00069784171A97881712978C17101A900207D
:10410000FFF7D2FA0128EFD1AA21FFF78BFB01209C
:104110007CBD0000F8B50446032801D30020F8BD9B
:10412000FCF790FB064640780028F8D00027022CC8
:1041300001D11D480770A4201C4D4443285D010691
:1041400017D57E210840285500213046FFF700FD95
:104150000021706900F0D0FD706900F0DFFDF068AB
:10416000002801D0FDF74AF93069002801D0FDF799
:1041700045F9285D7E21084028556419606E0028A5
:1041800005D00B4A0BA1FDF7C5FD67662767A06E3A
:10419000002806D0064A07A1921DFDF7BBFDA766C1
:1041A000E7660120F8BD00006F020020B00E00207D
:1041B000430200002E2E5C736F757263655C68614C
:1041C0006C5C6472697665725C635C73745F756164
:1041D00072745F6472762E630000000010B50328CD
:1041E00005D2A421484305490A5C120601D40020E7
:1041F00010BD4018743001F0ADFE10BDB00E0020AF
:1042000000B5FF2189B0ED310B48FCF7C9F800205B
:104210000421039101210590029006904802089024
:104220004B20C001019080200790049100916846C6
:1042300000F016F809B000BDB00E002010B503283C
:1042400005D2A421484305490A5C120601D4002086
:1042500010BD40188C3001F0A2F810BDB00E002047
:10426000F8B5050005D02868032805D3FF22DE3203
:1042700018E0FF22DD3215E0296A00290DD0E96936
:1042800000290DD0C6B23046FCF7DCFA074640786C
:1042900000280CD0022E0BD00DE0FF22DF3201E00F
:1042A000FF22E03235A10020FEF7F4FD0020F8BD2A
:1042B0003C4902200870A4203B4C4643A05D010607
:1042C00013D57E210840A0550021786900F014FD27
:1042D000786900F023FDF868002801D0FDF78EF81A
:1042E0003869002801D0FDF789F82F483418606E2E
:1042F000002808D0216FEA69914214D0FF22FC32D5
:104300001EA1FDF707FDFF23FE331CA20021E86973
:10431000FDF7C0FC60660100C9D0EA692046743030
:10432000226700F0B3FFA06E002808D0E16E2A6A71
:10433000914213D04122D20010A1FDF7EBFC1B4BA0
:104340000EA20021286AFDF7A5FCA0660100AED0F0
:104350002A6A20468C30E26600F098FF0121384638
:10436000FFF7F6FB3846FFF79BFA2846FFF72AFBD4
:104370000D48802181550120F8BD00002E2E5C7370
:104380006F757263655C68616C5C64726976657296
:104390005C635C73745F756172745F6472762E63C4
:1043A000000000006F020020B00E00200A02000092
:1043B000002210B5D243032805D2A4214843054961
:1043C0000B5C1B0601D4104610BD4018743001F080
:1043D0003FFD10BDB00E0020F7B582B000290BD014
:1043E000002A09D00298032806D20546A420284EA8
:1043F0004543705D000602D4002005B0F0BDAC1945
:1044000020468C30009001F007FE0190EFF3108001
:10441000C007C00F05D1EFF310810122114381F3D2
:104420001088715DC90702D0002829D02EE000282D
:1044300005D1EFF310804008400080F31088009809
:1044400001F088FD07043F0C20D0202F02D920273F
:10445000002601E0002606E0009801F0F9FCA11911
:10446000761C8870B6B2BE42F6D309480122415D7F
:1044700011434155A11C3A460298FCF79FF805E00C
:10448000EFF310804008400080F310880198B4E7F3
:10449000B00E002070470000034A116889088900A7
:1044A00001431160704700000000014010B504484E
:1044B000022201210078FEF735FD00F06FFA10BDF1
:1044C0006D02002070B51448022201214078FEF7E9
:1044D00029FD0120FFF782FE0446642801D96424E7
:1044E00001E0002C17D001F029FD05460120FFF75F
:1044F0005FFFC1B2284601F081FD641EF6D1284657
:1045000000F09BFE84B2284600F09BFE0146224646
:10451000B32000F07FFF70BD48010020F8B53F4890
:10452000012205214078FEF7FDFC01F06FF900281B
:1045300073D000250F273A4C022661192031C87923
:10454000142811D2401CC0B2C87114280CD3002DFD
:104550001BD0012D1CD0022D1CD00E2069460870E6
:104560006846467001F07CFB6D1CEDB2042DE4D36F
:10457000FDF726FA2168814202D0206001F0F1FBAC
:10458000A0790026012807D017E068460770E7E702
:104590000D20E3E70C20E1E7208900280DD0254617
:1045A00063306421FBF7FEFEA988491C89B2A9800B
:1045B000884202D8AE8001F0D4FB00256719387D0F
:1045C00001281BD168000019008B002816D0B97F84
:1045D000002913D063306421FBF7E4FE797C491C89
:1045E000C9B27974884209D8601946740C4803210D
:1045F0001130FBF7D3FE01F071FA03E06D1CEDB250
:10460000032DDBD360894B21401C80B2C90060813F
:10461000884202D3668101F055FBF8BD6C01002091
:10462000AC020020F8B52148012211460078FEF7BF
:1046300079FC0126B60200251D4C01F00FFA411C41
:1046400032D0C1B22088002805D07E2908D0B042DF
:1046500023D32580F1E77E29EFD1A570012021E049
:104660000128EAD91349401E83B20091E21C314669
:10467000A01C00F04DFD20800428EAD321791929DF
:10468000E7D1411EE01C00F0CDFDA1788842E0D1C9
:104690002188A01CFEF7ACF8DBE7054A921C815488
:1046A0002088401C2080C8E7F8BD00006002002080
:1046B00020040020BC61000870B51248012232219C
:1046C0000078FEF72FFC00F0DFFC002405462646AC
:1046D00015E0204600F0D2FC806900F042FE002880
:1046E0000BD08188002905D00268521C02608A42E2
:1046F00000D3066000F03FFEF1E7641CE4B2AC4278
:10470000E7D370BD73020020FEB517460C4606467F
:1047100001F014FC0546214601F070FC394628469C
:1047200001F06CFC284600F088FD84B2284600F0B9
:1047300088FD014600200090034601902246304645
:1047400001F09AF8FEBD7CB50C46064601F0F6FB7A
:104750000546214601F052FC284600F06EFD84B269
:10476000284600F06EFD01460020009003460190AF
:104770002246304601F080F87CBD7CB50C460646EA
:1047800001F0DCFB0546214601F038FC284600F02C
:1047900054FD84B2284600F054FD014600200090EC
:1047A000034601902246304601F066F87CBD7CB598
:1047B0000C46064601F0C2FB0546214601F01EFCF0
:1047C000284600F03AFD84B2284600F03AFD014642
:1047D00000200090034601902246304601F04CF83C
:1047E0007CBD7CB501F0AAFB0546142101F006FC56
:1047F000284600F022FD84B2284600F022FD014642
:1048000000200090034601902246022001F034F877
:104810007CBD0000F8B5554800F0B5FD044653488E
:104820000C3000F0B0FD2118514825D0012211466E
:104830000078FEF777FB4D4800F093FD0446002515
:10484000002C27D0E088401C80B2E080218988427B
:104850001BD9E5802146454800F05AFD06462079DF
:10486000401E0006000E20710AD0404821460C3040
:1048700000F020FD3446E3E70078FEF77DFBF8BD4D
:1048800002212046FCF742FEF4E7204600F073FDCB
:104890000446D5E735480C3000F063FD11E0002CEC
:1048A0001DD0E088401C80B2E0802189884205D973
:1048B000E5802079002806D0401E2071204600F0B7
:1048C0005AFD0446EBE7294821460C3000F020FD54
:1048D000064602212046FCF719FE3446DFE723484E
:1048E0000C3000F050FD0028C9D020480C3000F0FA
:1048F00038FD0446002CC2D0608996234000801CFD
:1049000086B21CA200213046FDF7C4F90700B6D0DC
:1049100021480090638931463846E26800F0DEFAAB
:1049200006001BD001F04EFAB04203D331463846A0
:1049300001F01CF9A8220FA13846FDF7EBF90B484E
:1049400021460C3000F0E4FC06462079002807D010
:10495000E5802146054800F0ADFC05E02571E9E75A
:1049600000212046FCF7D2FD3446C3E7FC030020BB
:104970005C0200202E2E5C736F757263655C617043
:10498000705C6D6D695C635C79785F6D6D695F7398
:10499000656E642E63000000BC610008F0B58BB04A
:1049A000FCF718FB0026069069E03046FCF70AFB8E
:1049B000054644680078002801D000275AE0002707
:1049C00034E028782178884201D06F2237E060787F
:1049D000216900908847024600982C2148432A49C3
:1049E0000A5441184B789A4205D00023264A4B605E
:1049F000105C487017E0002A01D0A26800E06268ED
:104A0000002A00D128224B6893420CD228334B60F5
:104A1000934208D31C4A105C8A78904203D0887075
:104A2000009800F093F814347F1CFFB2287AB84243
:104A3000C7D822E028782178884206D08F2213A197
:104A40000020FEF727FA0BB0F0BD607821690090D6
:104A50008847014600982C2250430B4A1154801875
:104A60008278914203D08170009800F06FF814347E
:104A70007F1CFFB2287AB842DCD8761CF6B20698C2
:104A8000864292D3DFE70000A40A00202E2E5C733A
:104A90006F757263655C64616C5C6465766963659F
:104AA0005C635C64616C5F696E7075745F64727680
:104AB0002E6300001CB5002122480191009102687C
:104AC00001231B041A4302605B00052212030468E1
:104AD0001C400094019C641C0194009C002C02D199
:104AE000019C9442F3D10268920328D501210091E0
:104AF000154A112111604168416041684160416877
:104B00007F22D20391434160416811221204114374
:104B100041600168012212061143016001688901A8
:104B2000FCD541688908890041604168022211432F
:104B3000416041680907890F0229FAD11CBD009123
:104B40001CBD0000001002400020024070B5064667
:104B50002C20204970434418A07800281AD0002542
:104B600014E06019007A80070ED5A8002018C268EA
:104B7000002A04D0C069824203D0472219E04622AD
:104B800017E00221304690476D1CEDB2E078A84254
:104B9000E7D870BD002518E06019007AC00712D070
:104BA000A8002018C268002A08D0C069824207D035
:104BB000502209A10020FEF76DF970BD4F22F8E7E1
:104BC0000121304690476D1CEDB2E078A842E3D851
:104BD00070BD0000A40A00202E2E5C736F757263F6
:104BE000655C64616C5C6465766963655C635C6488
:104BF000616C5F696E7075745F6472762E6300001D
:104C000038B500220123FF25224C0D2812D00E2892
:104C10001FD00F282CD010280BD1022937D0A07A12
:104C2000142805D20E2168460170437001F018F86F
:104C3000A57238BD02290AD0E079142805D20F21C7
:104C400068460170437001F00BF8E57138BDE27100
:104C500038BD02290AD0207A142805D20D216846D1
:104C60000170437000F0FCFF257238BD227238BD20
:104C700002290AD0607A142805D20C2168460170F6
:104C8000437000F0EDFF657238BD627238BDA272EC
:104C900038BD0000CC02002010B514480168012284
:104CA000114301604168124A114041600168114A94
:104CB0001140016001680122920491430160416842
:104CC0003F22120491434160C16A09090901C1628E
:104CD000016BFF22543291430163416B4908490043
:104CE000416300218160FFF7E5FE10BD0010024026
:104CF0000CB8FFF8FFFFF6FE0029016802D0012280
:104D0000114301E04908490001607047002A8268A8
:104D100001D00A4300E08A4382607047134910B50E
:104D2000884209D101218C032046FEF77DFA00213B
:104D30002046FEF779FA10BD0D49884202D10121C3
:104D40004C0404E00B49884209D101218C0420461F
:104D5000FEF752FA00212046FEF74EFA10BD064932
:104D60008842FBD10121CC04F1E70000003801406A
:104D70000044004000480040004C004030B50A04A8
:104D8000130E0122144600258C40012B0ED0022B5D
:104D90000ED08368090C2340C0698A401040002B64
:104DA00002D0002800D00125284630BD0368F1E775
:104DB0004368EFE710B50B041C0E01238B40022C57
:104DC00002D0032C02D002E0001D00E00830016890
:104DD000002A01D0194300E09943016010BD000092
:104DE00030B50446006889B00D4640084000206098
:104DF0006068032109038843A96801436160206852
:104E00001A49EA680840696811432A690243114354
:104E10002160A06803210902884369690143A160F8
:104E20006846FEF71BFA1248844201D1069805E055
:104E30001048844201D1079800E0029821680904D3
:104E4000296800D54000FBF7ADFA2A6852088A426B
:104E500000D8401C2168090404D50107064A490FFF
:104E600010400843A08109B030BD0000F3E9FFFF06
:104E70000038014000440040F0FF0000FEB5154D31
:104E800000242C7001260194334619223146204615
:104E900000960294FCF724FA012301941922194682
:104EA000184600960294FCF71BFA0A2211460020CD
:104EB000FCF75CFA0A2211460120FCF757FA064A71
:104EC00000210220FDF7ACFD68700A223221FEF7B6
:104ED00029F8FEBDC0000020450C0008F0B5059D76
:104EE0008C46002D2DD029780170401C012461468C
:104EF000891E1FE016782F78521CB74205D18C42CC
:104F00001FDA6E780670AE7806E06F78B74207D188
:104F10008C4216DA0770EE784670801CA41C06E0FE
:104F200067467F1EBC420CDA0670401C641C5B1E88
:104F3000A4B29BB2002BDDD129780170641CA0B211
:104F4000F0BD0020F0BD00001CB5154C6846611C8A
:104F50000A780270497841700422E11C01A8FBF72D
:104F6000B7F9204600F01EF8002816D02F2101982E
:104F7000C902884211D868460488002C0BD00198D9
:104F8000002808D001990648FF39C01D083900F0F3
:104F90004FF8844201D101201CBD00201CBD00003F
:104FA0000081000810B504460078552801D0AA28D1
:104FB0000FD12046042209A10830FBF739F9002857
:104FC00007D12046042207A10C30FBF731F9002855
:104FD00001D0002010BD012010BD000053544D3001
:104FE00000000000415050300000000010B50022C9
:104FF000134606E00478401CA218D4B2120AA21884
:105000005B1C8B42F6D3521CD0B210BD10B50022EF
:10501000134608E00478401CE443E4B2A218D4B27A
:10502000120AA2185B1C8B42F4D3521CD0B210BDE2
:1050300070B50C460546FFF7D9FF06022146284603
:10504000FFF7E4FF01463046084370BD0848017889
:1050500042780906120451188278C0781202511859
:1050600040180449884201D1012070470020704750
:1050700000F80108A55AAA557047000001494001EF
:1050800040187047F866000801207047FEB5FFF72A
:10509000FBFF0646002524E02846FFF7EFFF044605
:1050A00000690190207B00902778A06900F06FF9DB
:1050B000A3686069009A019900F014F9606900F032
:1050C00050F900280BD0C77146218171AA210172C5
:1050D000034662680C33D15400F04DF9F1E76D1CC2
:1050E000EDB2B542D8D30021064A0846FDF798FC38
:1050F0000549012208703221FDF714FF0348FDF72E
:1051000063FEFEBDB9460008730200206916000860
:10511000FFB5099D8646002D32D06E780020F14300
:105120008C46C9B228E01478521CB14216D1A97835
:10513000A14208D1019C6146C9B2A04220D22C787C
:1051400077463C7012E0E978A14219D1019C614692
:10515000C9B2A04214D277463E7007E02146B4425D
:1051600008D0019FB8420BD2774639707C1C401C96
:10517000A64680B25B1E9BB2002BD4D104B0F0BD1A
:105180000020FBE770B510243F25FBF771FD55218A
:105190002046FCF791FC002805D0641CA4B2AC4268
:1051A000F3D3012070BD632202A10020FDF772FE3F
:1051B000002070BD2E2E5C736F757263655C61702C
:1051C000705C636F6D6D6F6E5C635C79785F626F4E
:1051D0006F746D61696E2E630000000010B53F2092
:1051E0005521FCF769FC002801D0012010BD3922AF
:1051F00002A10020FDF74EFE002010BD2E2E5C7394
:105200006F757263655C6170705C636F6D6D6F6EFE
:105210005C635C79785F626F6F746D61696E2E6339
:105220000000000002460020002905D01378521C1F
:105230001818C0B2491EF9D170478068704740689D
:10524000704700687047000000A07047626F6F747D
:105250002D313130727630316D302D322E310000EB
:1052600070470000064A0021064811604160016055
:105270004172AA21017204494181012050607047A6
:105280007402002070110020F40F0000026000235F
:10529000436081608B18C3608368036183684361E6
:1052A0007047002805D0002341608360C260016020
:1052B00001207047002811D000290FD008398268DA
:1052C0000A600268002A0BD08268516000224A609E
:1052D00081600168491C016001207047002070470F
:1052E0004160F3E770B515460C46064600F04FF8EE
:1052F00000280CD00834002D08D021463046FFF796
:10530000D9FF002803D0E4186D1EF6D1012070BD2E
:10531000020011D000290FD0106800280BD0401EC9
:10532000083910600B684868002B07D058600028C7
:1053300006D0036008307047002070475060F6E7E1
:105340009360F9E710B5002809D00168002906D05C
:10535000446808342146FFF7DBFF204610BD0020DB
:1053600010BD002805D00168002902D0406808302F
:10537000704700207047002804D008384068002893
:1053800000D008307047002800D00068704700281F
:1053900004D000214160816001600120704708B5A0
:1053A000014600BFEFF31082D307DB0F0093009A92
:1053B000002A05D1EFF310820123134383F31088F1
:1053C00000BF4B680A68D01A00BF009A002A05D1B6
:1053D000EFF3108253085B0083F3108800BF08BD11
:1053E00010B58AB000240694019001200293400277
:1053F0000790032003910002009408900594049202
:105400006846FEF72DFF0AB010BD10B50020FEF76C
:1054100081FE10BDF7B5064650000A3082B081B259
:105420001546FF23019131332AA20021FCF732FCFB
:10543000070038D030487C194178491C4170012060
:10544000A07019203146E0709139F0B20F292CD3A9
:10545000472E2AD0632E28D0642E26D0482E24D062
:105460002071601D2A460399FAF732FFA01CE91C3F
:10547000FFF7D8FE60702D1D2048ABB2621C009073
:1054800038460199FFF72AFD010021D0384600F087
:105490006DFB0446FF2252320EA13846FCF73AFC5F
:1054A000204605B0F0BD0020FBE79021217160711E
:1054B000A01D2A460399FAF70BFFA01C291DFFF730
:1054C000B1FE60706D1D0D48ABB2621C0090D7E755
:1054D0000024DFE72E2E5C736F757263655C61706C
:1054E000705C6D6D695C635C79785F6D6D695F732D
:1054F000656E642E630000005C020020BC61000841
:1055000010B50249902000F0AFFA10BDED29000857
:105510007047000070B5094D00242E1F07E0E00021
:1055200041194968285C00F09FFA641CE4B23078A5
:105530008442F4D3FBF72BFD70BD0000280100204E
:1055400070B50E480021016041600D4D0C46816030
:10555000E00041194968285C00F086FA641CE4B256
:10556000042CF5D3074A00210220FDF759FA04491B
:10557000091F087000F010FC70BD0000D802002068
:10558000F00100205529000870B538211D48FAF7B0
:1055900005FFFF201B496930C88000F065F8FFF760
:1055A000B7FF00F07FF800F0AFF8FFF7B3FFFFF7A9
:1055B000A7FF00F031F800F0CDF800F017F9FFF781
:1055C000BFFF114D00242E1D07E0E000811949683E
:1055D000305C00F049FA641CE4B228788442F4D3C9
:1055E0000A4A00210220FDF71BFA6870084A0021D0
:1055F0000220FDF715FAA87006490020FDF714FCFB
:1056000070BD0000E402002010020020792800088C
:10561000893800086D38000870B5FBF746FBFBF7CA
:105620004CFBFBF7C0FBFBF7C6FB0D4D00242E1D0A
:1056300007E0E00081194968305C00F015FA641C4D
:10564000E4B228788442F4D3064A00210220FDF710
:10565000E7F9687002220121FDF764FC70BD0000CB
:1056600048010020C544000810B50C4800214170D5
:105670008170FBF70AFBFBF710FBFBF758FBFBF70E
:1056800082FBFBF788FBFBF7B6FB054A00210220F3
:10569000FDF7C6F90149087010BD0000E8010020BF
:1056A0005931000870B513491348FAF777FE002105
:1056B000124B08460C01E218154610351D511071A9
:1056C000491C9060C9B2D0602729F3D30901585012
:1056D000C918087188600A4CC860A3606060094AF4
:1056E00000210220FDF79CF9012220701146FDF7F0
:1056F00019FC70BD020400002004002024080020D2
:10570000600200202546000810B50E4C0020607095
:105710000D48FFF73CFE0C480C30FFF738FE0A49F5
:105720001C23E03908460822F830FFF7DBFD074A62
:1057300000210220FDF774F920700548FDF744FBB5
:1057400010BD00005C020020FC030020154800088A
:105750006115000870B52C212048FAF721FE1F487A
:10576000FF2204212730FAF7F4FD1C4801217D2295
:105770008171D2000281C8220173194DC2810024B7
:1057800001742E1D07E0E00081194968305C00F0CB
:105790006BF9641CE4B228788442F4D3114A0021E6
:1057A0000220FDF73DF9687001220521FDF7BAFBE3
:1057B0000D4A03210D20FBF787FC0B4A03210E2025
:1057C000FBF782FC084A03210F20FBF77DFC064A09
:1057D00003211020FBF778FC70BD0000AC02002014
:1057E0006C0100201D450008014C000870B5064DF5
:1057F0000024E00041194968285C00F035F9641C78
:10580000E4B2022CF5D370BDD80100200248007824
:10581000C00700D001207047E402002070B50546A3
:105820000E461448FFF79DFD08E02088A84202D1EB
:10583000214610480FE02046FFF79DFD0400F4D1FB
:105840000C480C30FFF78DFD10E02088A8420AD1EB
:10585000084821460C30FFF75BFD31462046FBF738
:1058600055FE012070BD2046FFF785FD0400ECD1F8
:1058700070BD0000FC030020FFB50546012040027A
:1058800081B01646824202D9002005B0F0BD3648EC
:10589000FFF758FD0400F8D0301D80B26081401C35
:1058A000F22332A20021FCF7F5F9E06000283CD099
:1058B000374F258079786180491C7970049921716E
:1058C0000A9932225143491C21810021E1800B9920
:1058D000216101214170E1681920887028469138C2
:1058E000E9B20F2826D3472D24D0632D22D0642D72
:1058F00020D0482D1ED0E0683246C170E068029981
:10590000001DFAF7E5FCE068F11C401CFFF78AFC7B
:10591000E1680870144821460C38FFF7CBFC387852
:10592000FDF778FB002817D01BE021460E48FFF753
:10593000C1FCA9E76089401C6081E2689020D070BA
:10594000E06832460171E0680299401DFAF7C0FC38
:10595000E068401C311DD9E7012211463878FDF777
:10596000E1FA012091E70000140400202E2E5C7360
:105970006F757263655C6170705C6D6D695C635CB2
:1059800079785F6D6D695F73656E642E63000000EA
:105990005C020020F8B5054617460E461648FFF78C
:1059A000E0FC0BE02088A84205D16088B04202D11B
:1059B0002146114812E02046FFF7DDFC0400F1D13A
:1059C0000D480C30FFF7CDFC13E02088A8420DD124
:1059D0006088B0420AD1084821460C30FFF798FC95
:1059E00039462046FBF792FD0120F8BD2046FFF71F
:1059F000C2FC0400E9D1F8BDFC03002010B5094841
:105A00000178C9070DD0002101704170FFF7FDFC3E
:105A1000FBF7B9F9FBF7BFF90248401E0078FDF724
:105A2000ABFA10BDE901002010B507480178C9079D
:105A300009D10121017000214170401E0122052180
:105A40000078FDF76FFA10BDE901002010B5FFF7EF
:105A5000D5FF10BD10B5FFF7E7FF10BD10B5002052
:105A6000FEF7A6FC00B210BD70B5114B5C68254670
:105A700005E02279824201D1B52213E02468002C8E
:105A8000F7D100290BD09A68002A0AD014689C60CC
:105A900015605A60107191600120D16070BDB9220B
:105AA00000E0BA2203A10020FDF7F4F9002070BD48
:105AB000600200202E2E5C736F757263655C6170EE
:105AC000705C6D6D695C635C79785F6D6D695F7248
:105AD0006563762E6300000070470000F8B5FFF79D
