:020000040800F2
:10000000C04200202D020008350200083702000817
:10001000390200083B0200083D0200080000000011
:100020000000000000000000000000003F02000887
:10003000410200080000000043020008A503000878
:10004000A7030008A9030008AB030008AD030008DC
:10005000AF030008B1030008B3030008B5030008AC
:10006000B7030008B9030008BB030008BD0300087C
:10007000BF030008C1030008C3030008C50300084C
:10008000C7030008C9030008CB030008CD0300081C
:10009000CF030008D1030008D3030008D5030008EC
:1000A000D7030008D9030008DB030008DD030008BC
:1000B000DF030008E1030008E3030008E50300088C
:1000C000E7030008E9030008EB030008ED0300085C
:1000D000EF030008F1030008F3030008F50300082C
:1000E000F7030008F9030008FB0300080000000004
:1000F0000000000000000000000000000000000000
:100100000000000000000000FD030008FF030008DD
:10011000010400080304000805040008070400089F
:10012000090400080B0400080D0400080F0400086F
:10013000110400081304000815040008170400083F
:10014000190400081B0400081D0400081F0400080F
:10015000000000000000000000000000000000009F
:10016000000000000000000000000000000000008F
:10017000000000000000000000000000000000007F
:10018000000000000000000000000000000000006F
:10019000000000000000000000000000000000005F
:1001A000000000000000000000000000000000004F
:1001B000000000000000000000000000000000003F
:1001C000000000000000000000000000000000002F
:1001D000000000000000000000000000000000001F
:1001E000000000000000000000000000000000000F
:1001F00000000000000000000000000000000000FF
:10020000550000000000000053544D334150503061
:10021000F4400000EC400000DFF80CD000F05AF889
:100220000048004769420008C04200200648804755
:1002300006480047FEE7FEE7FEE7FEE7FEE7FEE7CB
:10024000FEE7FEE7FEE7FEE7A1300008190200081E
:1002500040EA01039B0703D009E008C9121F08C048
:10026000042AFAD203E011F8013B00F8013B521EC8
:10027000F9D27047D2B201E000F8012B491EFBD23F
:1002800070470022F6E710B513460A4604461946A1
:10029000FFF7F0FF204610BD421C10F8011B00299B
:1002A000FBD1801A704730B504460020034600E0B9
:1002B0005B1C934203D2E05CCD5C401BF8D030BDA8
:1002C000034611F8012B00F8012B002AF9D118463A
:1002D00070470000064C074D06E0E06840F001035F
:1002E00094E8070098471034AC42F6D3FFF798FF24
:1002F00098440008C844000870B58C1810F8015BD9
:1003000015F0070301D110F8013B2A1106D110F8AE
:10031000012B03E010F8016B01F8016B5B1EF9D1B2
:100320002B0705D40023521E0DD401F8013BFAE738
:1003300010F8013BCB1A921C03E013F8015B01F8A3
:10034000015B521EF9D5A142D8D3002070BD000038
:1003500002480168491C0160704700000402002047
:10036000042801D300207047084900EB800001EB0E
:100370008000704704207047332801D30020704765
:10038000034901EBC0007047332070470444000864
:10039000200200207047FEE7FEE7FEE7FEE7704719
:1003A0007047704770477047704770477047704795
:1003B0007047704770477047704770477047704785
:1003C0007047704770477047704770477047704775
:1003D0007047704770477047704770477047704765
:1003E0007047704770477047704770477047704755
:1003F0007047704770477047704770477047704745
:100400007047704770477047704770477047704734
:100410007047704770477047704770477047704724
:1004200070B515460E4600F08DF9C46800212046CF
:1004300000F08AFA00220221204600F017FBE66055
:10044000656001220221204600F010FB2046BDE835
:100450007040012100F078BA2DE9F04104284AD219
:1004600008B978480078804600F06CF9064608EB39
:100470008801754801EBC80100EB011420780106E2
:100480000ED5C0070CD004F19005284603F0E0FD1E
:1004900007043F0C0FD0202F1CD9202700261BE07B
:1004A0000021F06800F050FAF068BDE8F041002249
:1004B000022100F0DBBA2078002220F00100207039
:1004C0000221F06800F0D2FAF068BDE8F0410021A6
:1004D00000F03ABA002606E0284603F098FDA1197C
:1004E000761C8870B6B2BE42F6D3A11C3A4640468E
:1004F000BDE8F04194E7BDE8F0812DE9F041042822
:10050000F9D208B94F480078044600F01BF90546B7
:10051000066904EB84004C4F00EBC40007EB0014A9
:100520002078000605D43046BDE8F041002100F0F7
:100530000BBA304600F086FAC0F120001FFA80F8AE
:100540000021304600F000FA617820200029297847
:1005500001EB810202EBC10107EB011119D022313D
:10056000F16070600121304600F0EEF9607890B1E2
:1005700000206070287800EB800101EBC00007EBE1
:100580000011423104F178004246BDE8F04103F029
:10059000F7BD4231E4E701206070287800EB80016C
:1005A00001EBC00007EB00112231EBE7A3E710B528
:1005B0000C46042814D208B92248007800EB8001C8
:1005C00001EBC001204800EB01100178090608D5B5
:1005D000903003F01CFD411C02D0C0F30800A08045
:1005E00010BD2046BDE81040002240F2277102F005
:1005F00000BE37B50B4604281CD208B91148007854
:10060000054600EB850000EBC5010F4800EB011427
:10061000207800060FD5BDF80800C1B204F17800BB
:1006200003F0EEFDD4F8CC30002B03D0012202A958
:10063000284698473EBD002240F22551184602F058
:10064000D8FD3EBDC0030020803B0020704710B5A0
:10065000202000F0FBF9002807D0202000F068F9E6
:10066000BDE810400320FFF7F7BE10BD704710B57E
:100670004FF40054204600F0E9F9002807D0204646
:1006800000F056F9BDE810400020FFF7E5BE10BDB0
:100690007047704710B54FF00074204600F0D6F94F
:1006A000002807D0204600F043F9BDE810400120A3
:1006B000FFF7D2BE10BD10B51E4C40F225512046AA
:1006C00002F078FD002809D0201D00882146C0F3E3
:1006D0000802BDE810400020FFF78BBF10BD10B529
:1006E000154C40F22551204602F064FD00280BD045
:1006F000201D00882146C0F3080210480280BDE892
:1007000010400120FFF775BF10BD10B50C4C40F232
:100710002551204602F04EFD002809D0201D0088FA
:100720002146C0F30802BDE810400320FFF761BF77
:1007300010BD00000038014000440040C20300200A
:1007400000480040042801D300207047034900EB13
:10075000C00001EB8000704704207047C4030020F4
:1007600070B50546552000F09FFB02F02FFF552085
:1007700000F074FB09490420094C087000204870FF
:10078000207801F0A5FB1E224FF47A71607801F009
:1007900073FB2846BDE8704003F00FBBA0040020A7
:1007A0005C010020014908607047000088860D4206
:1007B000014908607047000000860D4210B5084CE2
:1007C00002200A22207007484FF47A71007801F065
:1007D00053FBA068BDE810404FF4007103F00BBB61
:1007E000A00400205C010020002305220121142028
:1007F00001F09DBF002305220121184601F097BF9B
:10080000002305220121082001F091BF00230522C9
:1008100001210F2001F08BBF0023052201210C20B4
:1008200001F085BF002305220121332001F07FBFA5
:1008300010B5FFF7D9FF0021BDE81040142001F0EA
:10084000AEBF10B5FFF7D6FF0021BDE81040084647
:1008500001F0A5BF10B5FFF7D3FF0021BDE81040A0
:10086000082001F09CBF10B5FFF7D0FF0021BDE8C4
:1008700010400F2001F093BF10B5FFF7CDFF00210E
:10088000BDE810400C2001F08ABF10B5FFF7ACFFA7
:100890000121BDE81040142001F081BF10B5FFF721
:1008A000A9FF0121BDE81040002001F078BF10B57C
:1008B000FFF7A6FF0121BDE81040082001F06FBF3F
:1008C00010B5FFF7A3FF0121BDE810400F2001F094
:1008D00066BF10B5FFF7A0FF0121BDE810400C2056
:1008E00001F05DBF10B5074C00200146A4F80100DF
:1008F000054A012001F03CF82070BDE8104000F0EE
:1009000005B80000DA0100206D2D000807480178C5
:10091000C90709D101210170002141700122642120
:10092000401E007801F0A8BA70470000DB010020EB
:10093000C10002D50249086070470249486070470B
:1009400004040240000002400029016802D041F086
:10095000010102E04FF6FE72114001607047000095
:1009600001684FF6FE721140016000210160416094
:100970008160C1603149314A0839904203D14868E9
:1009800040F00F0006E02D4A1432904204D148682E
:1009900040F0F00048607047284A2832904203D166
:1009A000486840F47060F5E7244A3C32904203D135
:1009B000486840F47040EDE7204A5032904203D13D
:1009C000486840F47020E5E71C4A6432904203D145
:1009D000486840F47000DDE7184A7832904203D14D
:1009E000486840F07060D5E7154A111F904203D166
:1009F000086840F00F0006E0114A1432904204D11A
:100A0000086840F0F000086070470D4A28329042B4
:100A100003D1086840F47060F5E7094A3C3290421F
:100A200003D1086840F47040EDE7054A5032904227
:100A3000EAD1086840F47020E5E7000008000240B1
:100A400008040240406880B2704700000146002060
:100A5000CA0001D5034A00E0034A12680A4200D0E6
:100A6000012070470004024000000240002A026892
:100A700001D00A4300E08A430260704730B5036842
:100A800047F6F07293430C6A8A682243D1E9044521
:100A90002C4322438C692243CC6922434C6A224373
:100AA0008C6A22431A430260CA6842600A68826004
:100AB0004968C16030BD0021016041608160C16052
:100AC000016141618161C16101624162816270477E
:100AD00070B504460E46D4E9030528B1502208A19A
:100AE00000F0CCFA0020E06021460E4802F0DAFD6A
:100AF000002D04D03046AC46BDE87040604770BD64
:100B00002E2E5C736F757263655C6170705C6D6DC9
:100B1000695C635C79785F6D6D695F73656E642E87
:100B200063000000B414002010B5154802F018FE50
:100B3000044613480C3002F013FE044410481830E9
:100B400002F00EFE204480B2082801D0C72210E037
:100B50000B4802F005FE044609480C3002F000FE86
:100B600020180CD00748007801F002FA002806D1BE
:100B7000CA22BDE8104004A1002001F035B910BD23
:100B80009C140020D80100202E2E5C736F757263B8
:100B9000655C6170705C6D6D695C635C79785F6DDC
:100BA0006D695F73656E642E630000002DE9F0418E
:100BB0001448007801F0DCF920B102F055FC05463C
:100BC00000241AE0602210E0204602F047FC0746AD
:100BD000406902F0C5FD0646B86902F0C1FD304427
:100BE000C1B2B889884206D06722BDE8F04106A1AB
:100BF000002001F0F9B8641CE4B2AC42E4D3BDE8D3
:100C0000F08100000C0200202E2E5C736F75726361
:100C1000655C68616C5C746F6F6C626F785C635C60
:100C200079785F64796D5F6472762E6300000000EE
:100C3000064900200860091D0860091D0860091D9B
:100C400008600249024814310860704700040140FE
:100C5000FFFF0F0070B505464FF43026304600F018
:100C60003FF8042811D1094C206940F002002061AE
:100C70006561206940F040002061304600F030F8A6
:100C8000216941F6FD721140216170BD00200240D2
:100C900008490420CA68D20701D001207047CA68F9
:100CA000520701D502207047C968C906FBD5032049
:100CB00070470000002002400248016941F08001B5
:100CC0000161704700200240034802494160034926
:100CD000416070472301674500200240AB89EFCD9A
:100CE00000B50346FFF7D4FF03E000BFFFF7D0FFD6
:100CF0005B1E012803D0002B00D1052000BD002B76
:100D0000F4D1FAE7F0B50A7A002502F00F03D20613
:100D100001D54A6813430C784FF00F0E0122ECB155
:100D2000D0F800400F8802FA05F63740B74211D1DB
:100D30004FEA850C0EFA0CF724EA070703FA0CF4C5
:100D40003C438F68282F02D0482F02D002E0466132
:100D500000E006616D1C082DE4D304600C88FF2CB4
:100D60001ED944685FF0000606F1080702FA07F58D
:100D70000F882F40AF420FD14FEA860C0EFA0CF7C6
:100D8000BC4303FA0CF73C438F68282F00D1456120
:100D90008F68482F00D10561761C082EE4D344608B
:100DA000F0BD0000F0B5144C002801DAE36900E062
:100DB0006368420D120185B2C0F301579540C0F33C
:100DC0000346032F05D0C2020AD50322B240934343
:100DD00007E023F07062636823F07063636002E0F1
:100DE000AB4343F0706201B12A43002801DAE261AB
:100DF000F0BD6260F0BD000000000140416170473D
:100E00000161704710B5552905D0522209A1002073
:100E100000F0EAFF09E0802807D24FF0006101EB03
:100E2000C020FFF717FF042801D0002010BD0120CB
:100E300010BD00002E2E5C736F757263655C686177
:100E40006C5C6472697665725C635C68616C5F6639
:100E50006C6173685F6472762E630000552804D05D
:100E6000402206A1002000F0BFBF0E4801780029F3
:100E700003D000210170FFF71FBF70472E2E5C7357
:100E80006F757263655C68616C5C647269766572CB
:100E90005C635C68616C5F666C6173685F647276EA
:100EA0002E63000018020020552804D0302206A12D
:100EB000002000F099BF0E480178002903D10121DC
:100EC0000170FFF701BF70472E2E5C736F75726360
:100ED000655C68616C5C6472697665725C635C68B1
:100EE000616C5F666C6173685F6472762E6300008C
:100EF000180200202DE9F84F044604200D4600900A
:100F0000552B05D0BC2228A1002000F06DFF43E046
:100F10002F49A01888423FD8E0073DD1D0073BD1E8
:100F20004FF4302AA04656085046FFF7D9FE0090ED
:100F3000042831D1DFF89C90D9F8101041F001015C
:100F4000C9F8101000270BE000F046F805EB470148
:100F500015F81700497800EB012028F8020B7F1CD8
:100F6000B742F1D35046FFF7BBFE0090D9F81010FE
:100F7000042821F00101C9F810100DD100200FE064
:100F800005EB400215F81010527801EB022134F8FD
:100F9000102089B28A4202D00020BDE8F88F401CA0
:100FA000B042EDD30120F8E72E2E5C736F757263AB
:100FB000655C68616C5C6472697665725C635C68D0
:100FC000616C5F666C6173685F6472762E630000AB
:100FD000000004080020024000F078BB10B540F289
:100FE000712445F2555000F085FB062000F076FB99
:100FF000204600F079FB00F069FBBDE8104000F0EE
:101000005DBB0000010010B51A4830D0B1F5005F9B
:101010002DD2C91C21F0030227E0417A21BB41896E
:10102000914221D3AA2444724189134B891A0C2975
:1010300013D981180C310C724489A41A0C3C4C81D0
:1010400000244C72086044684C60446804B121601C
:10105000416042815968491C5960428919681144AC
:10106000196020B10C3010BD40680028D5D1002097
:1010700010BD0000F01A00201002002030B428B18A
:101080000C38017AAA2903D0A0223BE09D2239E046
:10109000417AAA2901D0A12234E0002141721D49E0
:1010A00044890A68121B0A60D0E9002362B1557AAC
:1010B00055B955892C440C3454814468546003B1AB
:1010C0001A604B685B1E4B604368A3B11AB1546849
:1010D0009C4200D110464268547A53685CB94489F6
:1010E00055892C440C3444815268426003B1186025
:1010F0004868401E48600868002808D148680128F0
:1011000005D0D32230BC04A1002000F06DBE30BC5D
:1011100070470000100200202E2E5C736F75726302
:10112000655C68616C5C746F6F6C626F785C635C4B
:1011300079785F686561706D656D2E6300000000F1
:1011400002280ED1087801280BD1064800214180E1
:101150008180017841F0010101700021022002F03C
:10116000DBBC7047B00C00202DE9F04F0D468DB070
:1011700014460021E32002F0CFFC2246294609A8AC
:1011800002F087FA09A802F0DCFE064609A802F080
:10119000CDFE054609A802F0C1FE634C0746A068D3
:1011A000B0427CD161687019884278D8DFF87CB190
:1011B0000A224FF47A719BF8000000F05DFE012FC7
:1011C0006ED12046BA4690F80C084FF00008B6F5EC
:1011D000067F04D320B9214681F80CA820E028B16D
:1011E000514890F80C0801281AD05CE0C6F5006060
:1011F000A84206D24FF49A724DA1002000F0F4FDEF
:1012000008E009A802F013FA0146A0190C302A469A
:10121000FFF71EF8A0684FF400712844A06060E05A
:101220004149FF2001F5037781F80C08D7F80390B6
:10123000384602F0ABF810B16168494501D003208F
:1012400068E0AA203870574684F801A05520FFF7BF
:101250002BFE002001F092FB032001F08FFB02F037
:1012600089F94FF4E13902AA4046CDE90089042109
:1012700083C20F02CDE90687CDF81480684608972F
:1012800001F010FC0320CDE9000907970897684694
:1012900001F008FC2449B2B20C31002001E022E048
:1012A00024E002F0F3FE607800B309A802F0BFF971
:1012B00001462A46304602F0E9FE4FF496724FF49A
:1012C0007A719BF8010000F0D7FDA0682844A06067
:1012D000616888420CD20A1A4FF400718A4200D821
:1012E00091B202F088FD0DB0BDE8F08F042011E04E
:1012F00002F02CF828B103202070012002F05DFDDF
:10130000F1E7A078401CC0B2A070052805D984F888
:1013100002800220FFF724FAE5E702202070C4F8DB
:10132000088002F02DFDDEE7A00400205C01002013
:101330002E2E5C736F757263655C6170705C6D6D91
:10134000695C635C79785F6D6D695F646F776E6C03
:101350006F61642E630000007FB50D4614460021C6
:10136000E12002F0D9FB22462946684602F091F9B5
:10137000684602F0D3FD0446684602F0CFFD01281E
:1013800001D1012C02D00420FFF7EAF97FBD002132
:10139000082002F0C1BB000010B50021E42002F0DB
:1013A000BBFB0848007803280BD1052002F074FD30
:1013B00005480A224FF47A710078BDE8104000F029
:1013C0005BBD10BDA00400205C01002010B5012809
:1013D00012D1087801280FD108480021418081806E
:1013E000017841F0010101700021012002F094FB1D
:1013F000BDE8104001F010BD10BD0000B00C002091
:101400000021062002F088BB7CB50878AA2818D1F4
:101410000C491E20C88002F00FFE0546012102F093
:1014200067FE284602F001F984B2284602F001F96D
:10143000014600200090034601902246422002F01F
:1014400099FB7CBDB00C002070B586B0412846D118
:1014500002A802F01EF902A802F060FD0546002471
:1014600023E002A802F05AFD064602A802F056FD4B
:10147000012E04D0022E0AD0052E14D10FE001282F
:1014800002D0FFF7F0F90EE0FFF71AFA0BE001289F
:1014900002D0FFF7DFF906E0FFF709FA03E00128C1
:1014A00001D1FFF716FA641CE4B2AC42D9D341254E
:1014B000012402F0C1FD0646214602F019FE304625
:1014C00002F0B3F884B2304602F0B3F801460020CF
:1014D0000090034601902246284602F04BFB06B0DE
:1014E00070BD000030B587B0E22837D102A802F005
:1014F000D0F802A802F025FD044602F09DFD054645
:101500001749A4F50070884204D30221284602F04E
:10151000EFFD0DE00121284602F0EAFD114800210F
:10152000C0E9014180F80C180F48407800F0D0FC69
:101530004FF40071284602F041FE284602F075F88B
:1015400084B2284602F075F80146084A0120CDE928
:10155000000203462246E22002F00CFB07B030BD39
:1015600001760300A00400205C010020BD070008F4
:101570007CB50C4602F060FD0546217802F0B8FD0E
:101580000121284602F0B4FD284602F04EF884B24C
:10159000284602F04EF801460020009003460190D4
:1015A0002246052002F0E6FA7CBD00007CB50C4620
:1015B00002F042FD0546217802F09AFD01212846FD
:1015C00002F096FD284602F030F884B2284602F078
:1015D00030F80146044A0520CDE9000201232246E5
:1015E000072002F0C7FA7CBD5D2200087CB502F03E
:1015F00023FD0546012102F07BFD1421284602F05F
:1016000077FD02F019F80446FEF746FEC1B22846FF
:1016100002F06EFD2146284602F00BFE284602F03D
:1016200004F884B2284602F004F801460020009035
:10163000034601902246042002F09CFA7CBD000083
:1016400030B40F4AC478526816E01379A34212D11D
:10165000936843B1D268934207D05A2230BC09A1A3
:10166000002000F0C1BB5922F8E7091F8AB2011D12
:10167000204630BC18471268002AE6D130BC7047BB
:10168000CC0100202E2E5C736F757263655C6170F7
:10169000705C6D6D695C635C79785F6D6D695F72BC
:1016A0006563762E63000000C0B200F0DBB9C0B203
:1016B00000F0D8B9C0B200F0D5B9000002494CF62C
:1016C000CC400860704700000030004002494AF6F4
:1016D000AA200860704700000030004001494860BF
:1016E00070470000003000400149886070470000EA
:1016F00000300040014908607047000000300040A1
:101700002DE9FC5F414E4FF47A7B01225946B078B7
:1017100000F0B2FB02F0F8F93D4C4FF416780025CA
:101720004FF4E13A58B16088401C80B260801428C0
:1017300020D3658001F070FB3078B0B11AE002F080
:101740007BFC8146142102F0D3FC484601F06DFF7A
:1017500087B2484601F06DFF0146009500233A46E6
:101760000120019502F006FA22E0072002F07EFB3C
:1017700001203070E088D8B1401E0004000CE080E9
:1017800002D00A280BD013E0A4F80680207820F0BD
:10179000010020706580A58002F0ACFA1DE00023F6
:1017A00001220421504602F006F8032002F046FB15
:1017B000A088401C80B2A080404516D3207820F03D
:1017C000010020706580A580357002F093FA40F228
:1017D000791210A1012000F007FBF07802B0594601
:1017E000BDE8F05F032200F047BBA0F500714E3961
:1017F0000AD1002301220421504601F0DCFFBDE89C
:10180000FC5F012002F01ABBBDE8FC9F80010020B4
:10181000B00C00202E2E5C736F757263655C617076
:10182000705C6D6D695C635C79785F6D6D695F6438
:1018300072762E63000000007047000070B502F061
:1018400063F91C4C4FF47A75B8B11B48017805292F
:101850002ED2DFE801F02D030619260002F090FADF
:101860000BE0D0E90110091A4FF40072914201D93E
:10187000114600E089B202F0BEFA29462078BDE8A0
:1018800070400A2200F0F8BA01F0A0FE5520FFF7E0
:10189000E5FABDE8704040F2D31208A1022000F042
:1018A000A3BA002101702078BDE8704000F010BBA1
:1018B00070BD00005C010020A00400202E2E5C738F
:1018C0006F757263655C6170705C6D6D695C635CA3
:1018D00079785F6D6D695F646F776E6C6F61642E90
:1018E00063000000F0B50F210278446801234FF037
:1018F000E026DCB1124C2468457804F4E064C4F5B9
:10190000E064240AC4F10407E1408478BD400C403F
:101910002C4321010B4C1155007800F01F018B4026
:10192000400906EB8000C0F80031F0BD02F01F0056
:101930008340500906EB8000C0F88031F0BD000004
:101940000CED00E000E400E00249084302490860B1
:10195000704700000000FA050CED00E0024A11405B
:10196000014302480160704780FFFF1F08ED00E05F
:1019700070B505461AB1032D03D34D2212E04C2257
:1019800010E0124B002000BF00EB400403EBC40446
:10199000246924B1401CC0B22028F5D301E02028DE
:1019A00006D354220AA1002000F01EFAFF2070BDC9
:1019B00000EB4006002403F8364003EBC6035D70DD
:1019C000C3E90114C3E903425A6170BDBC1700208A
:1019D0002E2E5C736F757263655C68616C5C6B6501
:1019E000726E616C5C635C6F735F74696D65722E9F
:1019F00063000000114810B5427881788A4201D115
:101A00000A2A01D9952213E0002A15D001784B1C2F
:101A100003708A4201D80021017000EB81014868FF
:101A2000C96A884203D110B1BDE8104000479F2227
:101A300003A1002000F0D8F910BD0000C014002060
:101A40002E2E5C736F757263655C68616C5C6B6590
:101A5000726E616C5C635C6F735F6572726D616EF8
:101A60002E63000070B5114D0646002404EB4400BF
:101A700015F83010A9B105EBC0014A78B24210D177
:101A80000A6972B14B699A4206D0BDE87040C02223
:101A900007A1002000F0A8B9002305F830304868FD
:101AA0009047641CE4B2202CE0D370BDBC1700202A
:101AB0002E2E5C736F757263655C68616C5C6B6520
:101AC000726E616C5C635C6F735F74696D65722EBE
:101AD00063000000032801D300207047024900EB97
:101AE000800001EB800070477443000803207047BA
:101AF000F4210148FEF7C5BBC01400202DE9F041D8
:101B00000F490020087048808880FFF7EFFF80466B
:101B1000002410E02046FFF7DDFF077C0025C668A3
:101B200005E0306800B18047361D6D1CEDB2BD4246
:101B3000F7D3641CE4B24445ECD3BDE8F081000067
:101B4000B415002000210A4A084600BF01EB4103FA
:101B5000491C02F8330002EBC303C9B25870186184
:101B600058612029F2D303498860486000F0D6B953
:101B7000BC170020000200202DE9F0472D4C4FF04B
:101B80000008A78884F80080002F50D0618804EBFB
:101B90000110491CD0E90352067AD0F8149088B29B
:101BA00092466080202801D3A4F80280A0887F1E7E
:101BB000401EA080FFF79AFF8642E5D23046FFF72D
:101BC00089FF0146D1E901024188A9421BD80A4494
:101BD000AA4218D96A1A00EBC2014B88AB4201D065
:101BE000982216E030F83200B04201D0992210E07D
:101BF000D1F804C0BCF1000FC6D0A9B24B46524682
:101C00003046E047C0E7002DBED10288B24206D080
:101C10009F22BDE8F04708A1002000F0E5B8456824
:101C2000002DB1D04B4652463046A847ACE7BDE840
:101C3000F0870000B41500202E2E5C736F75726360
:101C4000655C68616C5C6B65726E616C5C635C6F3B
:101C5000735F716D73672E630000000070B5104CE8
:101C6000A588202D06D34C220EA1002000F0BCF840
:101C7000002070BD66883544ADB2202D01D3203DD3
:101C8000ADB204EB051528720C350EC5207808B9E5
:101C900001202070A088401CA080012070BD0000A1
:101CA000B41500202E2E5C736F757263655C6861DD
:101CB0006C5C6B65726E616C5C635C6F735F716DA5
:101CC00073672E63000000002DE9F00F9A46089B11
:101CD00014460D46E0B1124E00227188B78815E017
:101CE000202901D3203989B206EB011CDCF80C80D5
:101CF000A04507D19CF80800A84203D1BDE8F00F29
:101D000001207047521C491C92B289B29742E7D811
:101D1000524621462846BDE8F00FFFF79FBF00005E
:101D2000B41500200C4910B54A780A2A0FD270B1B8
:101D300001EB820250604A78521C4A708A7801EBAB
:101D40008202D0628878401C8870012010BDAB22CE
:101D500002A1002000F048F8C01400202E2E5C7371
:101D60006F757263655C68616C5C6B65726E616CEB
:101D70005C635C6F735F6572726D616E2E630000F1
:101D800010B509B1022801D3002010BD0C4B00EBA7
:101D90008000002203EBC00000EB82035B6D43B1C7
:101DA000521CD2B20A2AF7D3572206A1002000F013
:101DB0001BF800EB82004165C0F8A410012010BDA3
:101DC000C01400202E2E5C736F757263655C6861B1
:101DD0006C5C6B65726E616C5C635C6F735F65728B
:101DE000726D616E2E630000824693460D46204C54
:101DF0000846FEF751FAC2B206E0A81810F8010C26
:101E00005C2803D0521ED2B2002AF6D1194805EB45
:101E10000209C178491CC9B2C170BAF1020F25D0BC
:101E2000012923D80026804606EB8601002508EB11
:101E3000C10700BF07EB8500436DD0F8A4008342C3
:101E400004D11BB15A464946504698476D1CEDB225
:101E50000A2DEFD3761CF6B2022EE5D3A41E002C79
:101E6000FDD0641EFBD1FFF7B7F8F8E7641EF6E774
:101E7000FFFF0F00C014002030B420280ED20A4B00
:101E800000EB400403EBC40005693DB151438160A0
:101E9000C160002003F8340030BC70477C2230BCA5
:101EA00002A10020FFF7A0BFBC1700202E2E5C73FC
:101EB0006F757263655C68616C5C6B65726E616C9A
:101EC0005C635C6F735F74696D65722E6300000004
:101ED000202804D38B2207A10020FFF785BF0E4ADC
:101EE00000EB400002EBC00300219960D96002F8CA
:101EF000301070472E2E5C736F757263655C68617D
:101F00006C5C6B65726E616C5C635C6F735F746953
:101F10006D65722E63000000BC17002010B586B0FE
:101F2000684600F03DF900214C1E0322204600F0D7
:101F3000A1FC0D49204600F0E3FC00984FF47A71B3
:101F4000B0FBF1F0B0F1807F0CD220F07F414FF078
:101F5000E020491E4161054AF02111700021816194
:101F60000721016106B010BD5103000823ED00E018
:101F700010B5202805D3AB2208A10020FFF734FFBD
:101F80000AE000EB40010E4800EBC100016919B105
:101F9000806808B1012010BD002010BD2E2E5C739A
:101FA0006F757263655C68616C5C6B65726E616CA9
:101FB0005C635C6F735F74696D65722E6300000013
:101FC000BC170020F8B52D4CD4E90110884253D03D
:101FD000FFF702F86068A168884201D3431A01E064
:101FE000C9430B18A0600020244D04462C54401C0B
:101FF0000328FBD3002022495FF0010600EB4007D5
:1020000001EBC702D2F810C0BCF1000F24D0D2F807
:1020100008E0BEF1000F1FD0D2F80CC09C4505D3DC
:10202000BCEB030CC2F80CC001D015E0D46092F8F0
:1020300001C0BCF1030F06D3BDE8F840EB2211A1AB
:102040000020FFF7D1BEC2F80CE001F8376015F8A8
:102050000C200AB905F80C60401C2028CED30026BD
:10206000A85D30B10023F1B21A4618460094FFF77C
:102070002BFE761C032EF3D3F8BD000000020020D7
:10208000BC1700202E2E5C736F757263655C6861EF
:102090006C5C6B65726E616C5C635C6F735F7469C2
:1020A0006D65722E630000000149086270470000F0
:1020B00000000E4270B51B4C651E617849B10129C4
:1020C00013D0601E0229007823D0BDE87040FFF7CE
:1020D000FFBE01F086FBFEF7ABFBFEF7B2FB012073
:1020E000607003224FF47A710EE0FEF7CEFBFEF72C
:1020F000A8FB0023012204214FF4E13001F05BFB37
:1021000002200322607064212878BDE87040FFF748
:10211000B3BEFFF7DDFEFEF7C1FB6078401C6070C8
:1021200070BD0000C9010020044A0029516901D096
:10213000014300E0814351617047000000100240FC
:10214000044A0029D16901D0014300E08143D161F3
:102150007047000000100240044A0029116901D0B4
:10216000014300E08143116170470000001002400C
:10217000044A0029916901D0014300E08143916143
:102180007047000000100240044A0029D16801D0C5
:10219000014300E08143D16070470000001002401D
:1021A000F0B52A4A51682A4B11F00C014FF00F0587
:1021B00003D0042901D0082901D0036026E051682A
:1021C000546805EA914104F480340D2901D0891C3A
:1021D00000E00621BCB1D46A14F4803FD46A04F054
:1021E0000F0404F101040AD0D66AD76AC6F30316B5
:1021F000761CB3FBF6F3C7F30327BF1C7B43B3FB8B
:10220000F4F34B43D9E7134B594301605168124C27
:1022100005EA1111635C0168D940416053680725E4
:1022200005EA1323E35C21FA03F38360536805EAAC
:10223000D323E35CD940C1605268032303EA92329E
:10224000231F9A5CB1FBF2F10161F0BD0010024066
:1022500000127A0000093D00E1010020EE2202A1F7
:102260000120FFF7C1BD00002E2E5C736F757263F5
:10227000655C6170705C6D6D695C635C79785F6DE5
:102280006D695F6472762E6300000000012803D040
:1022900020B1032804D1052001F0FEBD0220FBE798
:1022A00070470000054810B5C078FFF711FE01F037
:1022B00023FDBDE8104001F05DBD0000800100205D
:1022C00010B501F043F860B1052001F0E5FD01F023
:1022D0007DF9BDE810404FF4D27205A10320FFF74D
:1022E00083BD0D484078BDE81040FFF7F1BD000008
:1022F0002E2E5C736F757263655C6170705C6D6DC2
:10230000695C635C79785F6D6D695F646F776E6C33
:102310006F61642E630000005C0100202DE9F04134
:102320008CB004007ED0E06800254FF08008B0B388
:102330004B49401877D0282876D064287ED1494F61
:10234000112601214FEA0100FFF7EEFEE068FEF7DB
:1023500007FB6846FEF7AFFB60696946001DCDE9E3
:1023600000051020CDE90205CDE904580695079532
:10237000089509950A95E068FEF780FB0021304634
:1023800000F028FA3946304600F0BAFA022200215D
:10239000304600F06FFA0121304600F01BFA206948
:1023A00000284BD02E491439401852D0282853D039
:1023B0003C2843D12C4F102601210846FFF7B4FEDC
:1023C0002069FEF7CDFA6846FEF775FB606903AA3F
:1023D000001D0090217801EB810000EBC101234832
:1023E00000EB01112231CDE901152021A2E82201E3
:1023F00006950795089509950A95217801EB8102C4
:1024000002EBC10100EB0110694645702069FEF73F
:1024100035FB0021304600F0DDF93946304600F04A
:102420006FFA02E00AE00CE00EE0022200213046E2
:1024300000F020FA0121304600F0CCF90CB0BDE8E4
:10244000F0810C260A4F7CE70E260121094F02205D
:102450007AE70D26084FAFE70F26084FACE70000DC
:10246000E4FFFDBF9506000893060008803B0020AE
:102470004F0600086F0600086D0600089106000868
:102480002DE9F047064686B00078FEF75BF94FF07D
:10249000000A4FF40071ADF810A0ADF81410044616
:1024A000ADF812A0ADF816A0F068D6F80490042894
:1024B00001D0052801D0002701E04FF48057306992
:1024C000012805D0022808D0032801D0042801D013
:1024D000002504E04FF4405501E04FF40055B0688A
:1024E00018B1012803D0022804D0002604E04FF4DC
:1024F000806601E04FF4C0664FF00C08606900F0A0
:102500001FFEADF80470ADF808600121CDF8009011
:10251000ADF80650ADF80A80ADF80CA00846FFF7FC
:1025200027FE2D4960698842E0694FF0010102D120
:10253000FFF71EFE01E0FFF703FE6946606900F049
:1025400071FE04A9606900F0D9FDE06840F22447FB
:102550000028206940F2255515D0002860694FF009
:10256000010206D0C02100F0E2FD204600F036F85E
:1025700019E0802100F0DBFD204600F02FF8012259
:10258000294660691EE040F2277680B10122402191
:10259000606900F0CCFD204600F020F801223146B1
:1025A000606900F026FE0122394660690AE0204693
:1025B00000F014F801222946606900F01AFE012299
:1025C0003146606900F015FE0121606900F0A5FD4B
:1025D00006B0BDE8F08700000038014070B5002863
:1025E00024D040691249401808D0B0F5806F08D057
:1025F000B0F5744F1AD125250E4C04E026250E4C5B
:1026000001E00E4C27250021284600F0E3F8214682
:10261000284600F075F902220021284600F02AF928
:102620002846BDE87040012100F0D4B870BD00001C
:1026300000BCFFBFB7060008DF0600080B07000854
:102640002DE9FE430E4604002DD0A078FF2807D0C8
:102650000028206A01D0012100E00021FEF7A2FB42
:1026600001252179032705FA01F0ADF800004FF0AC
:102670000008019716B11820029001E0CDF80880FB
:102680006946A069FEF73EFB207A01978540ADF8C8
:10269000005016B10420029001E0CDF80880694690
:1026A000A069FEF72FFBBDE8FE8300000248002171
:1026B0000160FEF7BDBA00001C0200202DE9FE43B8
:1026C000FDF758FE804601210846FFF751FD002521
:1026D00029E02846FDF744FE07460121D7E9020418
:1026E000FFF746FD00264FF0030917E0A07990B1EF
:1026F0006088ADF8000020796946CDE901907868DE
:10270000FEF700FB2079102801D0142803D161794D
:10271000607800F044F80834761CF6B2387CB04299
:10272000E4D86D1CEDB24545D3D3BDE8FE832DE959
:10273000FE43984614460D460646FDF725FEB04278
:102740002BD93046FDF718FE07460078FDF708FE46
:1027500001467888ADF800001DB1042C0FD0102080
:102760000EE0012C05D0022C05D0032C05D004204E
:1027700006E0482004E0282002E0002000E01420C9
:1027800002900320019048686946FEF7BBFA012DCC
:1027900003D14146304600F002F8BDE8FE8370B533
:1027A0000D460446FDF7F0FDA04201D8002070BDA3
:1027B0002046FDF7E1FD04460078FDF7D1FD618874
:1027C000406815B1FEF71CFB01E0FEF717FB012086
:1027D00070BD0000002803DB00F11002542A04DB66
:1027E000B4221BA10020FFF7FFBA00F01F03012253
:1027F0009A4040094FF0E02303EB800089B1EFF3EA
:10280000108101F00101002905D1EFF3108141F0A1
:10281000010181F31088C0F8002117D1EFF3108077
:1028200010E0EFF3108101F00101002905D1EFF371
:10283000108141F0010181F31088C0F8802105D199
:10284000EFF3108020F0010080F310887047000043
:102850002E2E5C736F757263655C68616C5C64726C
:10286000697665725C635C73745F6972715F6472D0
:10287000762E63001CB510F1100F03DD00F110037C
:10288000542B01DB9C2202E0102A05D39D2213A1C8
:102890000020FFF7A9FA1CBD10388DF800008DF854
:1028A000011001208DF802200190EFF3108010F04C
:1028B000010F03D06846FFF715F81CBDEFF3108039
:1028C00040F0010080F310886846FFF70BF8EFF343
:1028D000108020F0010080F310881CBD2E2E5C7348
:1028E0006F757263655C68616C5C64726976657251
:1028F0005C635C73745F6972715F6472762E6300EF
:1029000010F1100F03DD00F11002542A01DB8822C0
:1029100009E031B1EFF3108202F00102002A07D082
:102920000CE04FF089020BA14FF00000FFF75CBAFA
:10293000EFF3108242F0010282F310880E4A02EB9C
:102940008000016405D1EFF3108020F0010080F3D6
:10295000108870472E2E5C736F757263655C6861BA
:102960006C5C6472697665725C635C73745F6972D7
:10297000715F6472762E63000000002070B504461B
:10298000042801D3002070BDFDF7DCFE0546407829
:102990000028F8D00026022C01D11D48067004EB57
:1029A000840000EBC4011B4800EB011420780106F1
:1029B00015D520F08100207000212846FFF740FE49
:1029C0000021686900F0A9FB686900F0B9FBE868BC
:1029D00008B1FDF7C5FF286908B1FDF7C1FF2078F0
:1029E00020F081002070606E30B140F26B220AA1AD
:1029F000FEF744FB66666667A06E30B140F2712256
:102A000005A1FEF73BFBA6662667012070BD00000E
:102A1000C0030020803B00202E2E5C736F75726314
:102A2000655C68616C5C6472697665725C635C733A
:102A3000745F756172745F6472762E6300000000CB
:102A400000B589B04FF450710B48FDF71AFC002017
:102A50004FF4E131CDE90110042103910121CDE9C9
:102A600004100690880207900890032000906846A2
:102A700000F018F809B000BD803B0020042809D2FE
:102A800000EB800101EBC001054800EB011001786B
:102A9000090601D400207047903000F06DBE0000A0
:102AA000803B002070B5050005D02868042805D3B8
:102AB00040F2FD1216E04FF4FE7213E0296A61B194
:102AC000E96969B1C4B22046FDF73CFE064640788C
:102AD00000280CD0022C0BD00DE04FF4FF7201E067
:102AE00040F2FF1237A10020FFF77EF9002070BDF1
:102AF0003E490220087004EB840000EBC4013C480E
:102B000000EB01142078010611D520F0810020701F
:102B10000021706900F001FB706900F011FBF068A2
:102B200008B1FDF71DFF306908B1FDF719FF606EB0
:102B300040B1616FEA69914214D04FF4077221A14C
:102B4000FEF79CFA40F21E231EA20021E869FEF760
:102B500059FA60660100CAD0EA6904F17800626738
:102B600000F08CFDA06E40B1216F2A6A914214D012
:102B70004FF40B7213A1FEF781FA40F22E2311A23B
:102B80000021286AFEF73EFAA0660100AFD02A6A4B
:102B900004F19000226700F071FD01213046FFF73B
:102BA0004FFD3046FFF7BAFB2846FFF769FC04F1FA
:102BB000A80024222946FDF74BFB8020207001202D
:102BC00070BD00002E2E5C736F757263655C68616A
:102BD0006C5C6472697665725C635C73745F75616A
:102BE00072745F6472762E6300000000C0030020E0
:102BF000803B00204FF0FF31042809D200EB800217
:102C000002EBC002054800EB02100278120601D464
:102C100008467047783001F0A8B90000803B0020DA
:102C20002DE9F047804669B162B1B8F1040F09D2CD
:102C300000EB8003274803EBC80300EB0314207864
:102C4000000602D40020BDE8F08704F19005284674
:102C500001F05CFA8146EFF3108010F0010005D11D
:102C6000EFF3108141F0010181F310882178C90749
:102C700001D038B32CE028B9EFF3108020F0010028
:102C800080F31088284601F0E3F907043F0C1FD0B9
:102C9000202F02D92027002601E0002606E0284642
:102CA00001F063F9A119761C8870B6B2BE42F6D362
:102CB0002078A11C40F0010020703A464046FDF704
:102CC000AFFB05E0EFF3108020F0010080F31088E7
:102CD0004846B8E7803B0020F8B5214801220A2188
:102CE0000078FFF7C9F81F4C4FF48066002500BF3D
:102CF00001F004F8411C31D0C1B2208828B17E29EE
:102D000008D0B04223D32580F2E77E29F0D1A57008
:102D1000012021E00128EBD91349401E83B2009124
:102D2000E21C3146A01C00F0EBFB20800428EAD313
:102D300021791929E7D1411EE01C00F06BFCA17834
:102D40008842E0D12188A01CFEF77AFCDBE7054A27
:102D5000921C81542088401C2080C9E7F8BD0000E7
:102D6000CC010020E80C00200843000810B5154CE9
:102D70004FF47A71601E627800783AB1012A0ED061
:102D8000022A15D0BDE81040FFF7A2B80322FFF7D2
:102D900073F8FDF75FFDFDF766FD012010E00222EC
:102DA000FFF76AF8FDF783FDFDF78AFD022007E0D3
:102DB00019226421FFF760F8FDF74CFD6078401C94
:102DC000607010BDDB01002070B5124801224FF485
:102DD0007A710078FFF750F800F046FB00240546B2
:102DE000264613E0204600F039FB806900F0A8FC7D
:102DF00050B1818829B10268521C02608A4200D316
:102E0000066000F0A5FCF3E7641CE4B2AC42E9D331
:102E100070BD00000C0200207CB501F00DF90546E4
:102E2000142101F065F9284600F0FFFB84B2284622
:102E300000F0FFFB0146002000900346019022466F
:102E4000022000F097FE7CBDF8B5554800F088FCE4
:102E5000044653480C3000F083FC2118514824D01C
:102E600001220A210078FFF707F84D4800F068FCBE
:102E70000446002544B3E088401C80B2E0802189EC
:102E800088421CD9E5802146454800F035FC0646BD
:102E90002079401E10F0FF0020710BD040482146E1
:102EA0000C3000F0FFFB3446E4E70078BDE8F84062
:102EB000FFF70EB802212046FDF70AFEF3E7204691
:102EC00000F046FC0446D5E735480C3000F038FCED
:102ED0000FE0E4B1E088401C80B2E08021898842A4
:102EE00004D9E580207930B1401E2071204600F0E1
:102EF0002FFC0446EDE72A4821460C3000F0FCFB8D
:102F0000064602212046FDF7E3FD3446E1E724486A
:102F10000C3000F025FC002840D021480C3000F097
:102F20000FFC0446002C39D06089022101EB4000DF
:102F300086B296231CA200213046FEF763F80700F4
:102F40002CD022480090638931463846E26800F070
:102F5000C5F906001AD000F0D1FFB04203D33146C4
:102F6000384600F008FFAB220FA13846FEF786F87E
:102F70000B4821460C3000F0BFFB0646207938B1E3
:102F8000E5802146064800F08DFB05E02571EAE763
:102F900000212046FDF79CFD3446C3E7F8BD000044
:102FA0009C140020D80100202E2E5C736F75726374
:102FB000655C6170705C6D6D695C635C79785F6D98
:102FC0006D695F73656E642E63000000084300083E
:102FD0000CB500212E4801910091026842F4803224
:102FE00002604FF4A063026802F400320092019A7A
:102FF000521C0192009A12B9019A9A42F3D10268C6
:10300000920342D50121009122490A6842F0100240
:103010000A600A6822F003020A600A6842F00202AB
:103020000A604168416041684160416841F48061E3
:103030004160C16A184A1140C162C16A174A11430E
:10304000C162016841F08061016001680901FCD53D
:10305000416821F47C114160416841F4E81141600C
:10306000016841F08071016001688901FCD5416807
:1030700021F003014160416841F002014160416873
:10308000C1F381010229FAD10CBD00910CBD0000F1
:10309000001002400020024000F0FEFF7006010018
:1030A000124810B5016841F0010101604168104A01
:1030B0001140416001680F4A11400160016821F42C
:1030C00080210160416821F4FE014160016821F026
:1030D000A05101604FF47F0181600021C162FFF7C0
:1030E00077FF05494FF00060086010BD00100240F6
:1030F0000000FFF0FFFFF6FE08ED00E010B5038AC8
:103100004FF2FF0213400A884C8822438C88C988FA
:103110000C4322431A43028210BD0029818902D048
:1031200041F4005101E021F4005181817047002AEF
:10313000828A01D00A4300E08A43828270470000FD
:10314000174910B588420AD101218C032046FFF7A8
:103150001BF82046BDE810400021FFF715B81149C3
:10316000884202D101214C0410E00F49884202D16B
:1031700001218C040AE00D49884202D10121CC04CE
:1031800004E00B4988420AD101210C052046FEF7D4
:10319000E3FF2046BDE810400021FEF7DDBF10BD73
:1031A000003801400044004000480040004C00400E
:1031B0000050004030B501F01F0201240025C1F38A
:1031C000421304FA02F2012B0FD0022B0FD0838A94
:1031D0004FEA11210088134204FA01F400EA0400C6
:1031E00001D000B10125284630BD8389F0E7038A6C
:1031F000EEE710B5C1F3421301F01F040121A14015
:10320000012B07D0022B07D01430002A026805D00A
:103210000A4304E00C30F8E71030F6E78A43026016
:1032200010BD000030B50446008A85B00D464CF64E
:10323000FF710840E98801432182A1894EF6F3100D
:103240000140A8882A8910436A890A431043A08153
:10325000A08A4FF6FF410840A9890143A182684630
:10326000FEF79EFF1B48844201D1039800E00298BC
:10327000A1890904002900EBC00101EB00102968B5
:1032800002DA4FEA410101E04FEA8101B0FBF1F0BF
:103290006422B0FBF2F14FEA01114FEA11136FF013
:1032A00018056B4300EB8300A3891D044FF0320324
:1032B00006D503EBC000B0FBF2F000F0070005E01C
:1032C00003EB0010B0FBF2F000F00F000843208188
:1032D00005B030BD0038014070470000F0B5059DD5
:1032E00085B32C7800F8014B01248E1E23E000BF2B
:1032F00012F8017B95F800C0BC4505D1B44222DA32
:103300006F780770AF7808E095F801C0BC4508D128
:10331000B44218DA80F800C0EF784770801CA41C13
:1033200006E0A1F1010C64450DDA00F8017B641C94
:103330005B1EA4B29BB2002BDAD129780170641C09
:10334000A0B2F0BDFFE70020FBE7000038B50E4853
:10335000B0F80110ADF80010D0F8034000F016F8F6
:1033600080B1B4F55E3F0DD8BDF8005045B13CB119
:103370000548A4F20721C01D00F04CF8854201D198
:10338000012038BD002038BD0082000810B5044679
:103390000078552801D0AA280DD1042208A104F1F3
:1033A0000800FCF780FF30B9042207A104F10C00EB
:1033B000FCF779FF08B1002010BD012010BD00000E
:1033C00053544D33000000004150503000000000C5
:1033D00010B50022134606E010F8014B5B1C224496
:1033E000D4B204EB12228B42F6D3521CD0B210BDE1
:1033F00010B50022134608E010F8014BE443E4B294
:103400002244D4B204EB12225B1C8B42F4D3521C34
:10341000D0B210BD70B50C460546FFF7D9FF0602C5
:1034200021462846FFF7E4FF304370BD0848017885
:103430004278090601EB02418278C07801EB022153
:1034400008440449884201D1012070470020704798
:1034500000F80308A55AAA5570470000014901EB7E
:1034600040107047C4430008012070472DE9F04721
:10347000FFF7FAFF0646002528E02846FFF7EEFF93
:10348000044690F80C800778D0F81090806900F01E
:103490006BF942464946A368606900F018F9606913
:1034A00000F04EF94FF046094FF0AA0860B1C7711D
:1034B00080F8069080F80880636800F10C0203F839
:1034C000028000F045F9F1E76D1CEDB2B542D4D3AE
:1034D0000021084A0846FEF74BFA07490122087006
:1034E0004FF47A71FEF7C8FCBDE8F0470348FEF7D9
:1034F00019BC0000C92D00080C020020AD0B00080B
:10350000F0B50446DDF814C0BCF1000F30D09CF8D3
:10351000017000206FEA070E0EF0FF0525E000BFE6
:1035200012F8016BBD4215D19CF80250B54207D18B
:103530000EF0FF0588421BD29CF8006026700FE059
:103540009CF80350B54213D10EF0FF0588420FD20C
:10355000277005E03546BE4205D0884208D2257066
:10356000641C401C80B25B1E9BB2002BD8D1F0BD06
:103570000020F0BD70B510245FF07F05FDF72CFD35
:1035800055212046FDF73EFC28B1641CA4B2AC4294
:10359000F4D3012070BD632202A10020FEF724FCB9
:1035A000002070BD2E2E5C736F757263655C617058
:1035B000705C636F6D6D6F6E5C635C79785F626F7A
:1035C0006F746D61696E2E630000000010B57F207E
:1035D0005521FDF717FC08B1012010BD392203A1C8
:1035E0000020FEF701FC002010BD00002E2E5C73B1
:1035F0006F757263655C6170705C636F6D6D6F6E2B
:103600005C635C79785F626F6F746D61696E2E6365
:103610000000000002460020002905D012F8013BFE
:10362000491E1844C0B2F9D170478068704740689D
:103630007047006870470000034810B501680348F0
:10364000FCF73EFE014810BD00430008780400204E
:1036500070470000074A084800211160416001607E
:103660004172AA21017241F6F4714181012050603A
:103670007047000010020020F01A002002600023B2
:10368000436081608B18C360836803618368436112
:103690007047002805D00023C260C0E90113016013
:1036A0000120704778B171B1826841F8082D026835
:1036B0005AB18268516000224A6081600168491CE9
:1036C000016001207047002070474160F3E770B54A
:1036D00015460C46064600F047F800280BD0083483
:1036E00045B121463046FFF7DDFF002803D01C44DA
:1036F0006D1EF6D1012070BD02000ED069B11068B8
:10370000002809D0401E08391060D1E9003033B1DB
:10371000586030B140F8083B704700207047506057
:10372000F7E79360F9E710B540B1016831B144683B
:1037300008342146FFF7E0FF204610BD002010BDF1
:1037400020B1016811B1406808307047002070470F
:10375000002804D050F8040C002800D0083070472E
:10376000002800D000687047002804D00021416084
:10377000816001600120704708B5014600BFEFF38A
:10378000108202F001030093009A2AB9EFF310822D
:1037900042F0010383F3108800BFD1E90023D01A5F
:1037A00000BF009A2AB9EFF3108222F0010383F3DD
:1037B000108800BF08BD10B58AB00024CDE90040D4
:1037C0000DF10C0C0293ACE816004FF40070CDE93B
:1037D00006404FF4407008906846FFF763F90AB05E
:1037E00010BD0020FFF7CAB82DE9F84F1646054670
:1037F0000A208A4600EB46001FFA80F94FF49A73BC
:103800002BA20021FDF7FEFB07003CD03149BC197B
:10381000DFF8C4804878401C48700120A07019204F
:10382000E070A5F19101E8B20F292ED3472D2CD0DD
:10383000462D2AD0492D28D0632D26D0642D24D0A2
:10384000482D22D02071601D32465146FCF700FD04
:10385000A01CF11CFFF7DEFE6070361DCDF8008065
:10386000B3B2621C49463846FFF738FD01001DD04F
:10387000384600F080FA044640F259120CA138464E
:10388000FDF7FCFB2046BDE8F88F902121716071A7
:10389000A01D32465146FCF7DBFCA01C311DFFF792
:1038A000B9FE6070761DCDF80080D9E70024E3E70B
:1038B0002E2E5C736F757263655C6170705C6D6DEC
:1038C000695C635C79785F6D6D695F73656E642EAA
:1038D00063000000D8010020084300087047000082
:1038E00070B5094D00242E1F09E000BF05EBC40090
:1038F000416815F8340000F007FA641CE4B230782F
:103900008442F3D370BD00005401002070B54FF421
:1039100001611448FCF7B5FC134D002405EBC4000D
:10392000416815F8340000F0EFF9641CE4B2042C8F
:10393000F4D30E4A00210220FEF71AF80A4C0C4A72
:10394000241F002120700220FEF712F860704FF44F
:1039500096724FF47A71FEF78FFABDE8704000F06E
:10396000B3BA0000A0040020600100203D18000848
:10397000C122000870B538212248FCF782FC214999
:103980004FF41670C88000F049F8FFF7A7FF00F069
:1039900061F800F093F8FFF7A3FFFFF7B7FF1A4DA8
:1039A000002405F1080608E006EBC400416816F89B
:1039B000340000F0A9F9641CE4B268788442F3D3BF
:1039C000124A00210220FDF7D3FFA870104A0021FF
:1039D0000220FDF7CDFFE8700E4A00210220FDF71E
:1039E000C7FF28710A224FF47A71FEF745FA0A4997
:1039F0000020FEF7C5F900F085FABDE8704000F040
:103A00007BB90000B00C00208001002001170008E5
:103A1000A5220008391800088D22000810B50B4CAB
:103A20000020A4F80100FCF7DFFEFCF7E3FEFCF742
:103A3000F3FEFCF7FDFEFCF704FFFCF71DFF044A54
:103A400000210220FDF794FF207010BDC801002066
:103A5000B520000810B540F202411448FCF711FCF3
:103A60000021134B084600BF03EB011202F11004C2
:103A700014601071491C9060C9B2D0602C29F3D336
:103A800003EB01110B4C086008718860C860C4E941
:103A90000103094A00210220FDF76AFF207001227C
:103AA000BDE810400A21FEF7E7B90000E80C00204D
:103AB000EC100020CC010020D92C000810B50E4CD1
:103AC000002060700D48FFF74FFE0C480C30FFF7E8
:103AD0004BFE0A491C23E039082201F1F800FFF7E8
:103AE000F6FD074A00210220FDF742FF2070BDE8E5
:103AF00010400448FEF716B9D80100209C1400209D
:103B0000492E0008290B000802480078C00700D0A1
:103B100001207047B00C002070B505460E461448D1
:103B2000FFF70EFE08E02088A84202D12146104887
:103B30000FE02046FFF70CFE0400F4D10C480C30D7
:103B4000FFF7FEFD10E02088A8420AD10848214670
:103B50000C30FFF7D1FD31462046FCF7B9FF0120BC
:103B600070BD2046FFF7F4FD0400ECD170BD0000ED
:103B70009C1400202DE9F05F9846DDE90AA916465D
:103B80008B460546B2F5007F02D90020BDE8F09FC4
:103B90003848FFF7C8FD0400F8D0301D80B26081BE
:103BA000401CF52334A20021FDF72CFAE060E8B3B5
:103BB0003A4F25800AEBCA0279786180491C7970F6
:103BC00002EB0A12012184F8048001EB42022281F7
:103BD0000022E280C4F810904170E16819208870DA
:103BE000A5F19101E8B20F292BD3472D29D0462DFD
:103BF00027D0492D25D0632D23D0642D21D0482DE9
:103C00001FD0E1683246C870E0685946001DFCF7D5
:103C10001FFBE068F11C401CFFF7FCFCE16808702A
:103C2000144821460C38FFF73DFD00E004E03878E9
:103C3000FEF79EF9B8B11BE021460E48FFF732FDB2
:103C4000A3E76189491C6181E2689021D170E16834
:103C500032460871E0685946401DFCF7F9FAE06801
:103C6000401C311DD8E701220A213878FEF704F9FB
:103C700001208BE7B41400202E2E5C736F757263E5
:103C8000655C6170705C6D6D695C635C79785F6DBB
:103C90006D695F73656E642E63000000D8010020BB
:103CA0000A4810B50178C9070FD000210170417092
:103CB000FFF797FDFCF7BCFDFCF7C3FD0348401E72
:103CC0000078BDE81040FEF703B910BDC90100201F
:103CD00007480178C90709D101210170002141700D
:103CE00001226421401E0078FEF7C6B8704700002C
:103CF000C9010020FFF7D4BFFFF7EABF10B50020CD
:103D0000FEF778FF00B210BD70B5104B5C68254619
:103D100005E02279824201D1C22211E02468002C00
:103D2000F7D151B19A6852B114689C6015605A601D
:103D3000107191600120D16070BDC62200E0C722E1
:103D400003A10020FEF750F8002070BDCC01002038
:103D50002E2E5C736F757263655C6170705C6D6D47
:103D6000695C635C79785F6D6D695F726563762EFF
:103D70006300000070470A4601460020FEF750BF6E
:103D80007CB5FFF7C1FE002816D000F055F90546B6
:103D9000012100F0ADF92846FFF747FC84B2284620
:103DA000FFF747FC014603200022CDE9000203464D
:103DB0002246E120FFF7DEFE7CBD7CB50446FFF71E
:103DC000A3FE002816D000F037F90546214600F082
:103DD0008FF92846FFF729FC84B22846FFF729FC13
:103DE000014603200022CDE9000203462246E420DA
:103DF000FFF7C0FE7CBD7CB50E460446FFF784FE8F
:103E000000281AD000F018F90546214600F0E2F922
:103E10003146284600F0D2F92846FFF706FC84B266
:103E20002846FFF706FC014603200022CDE90002E8
:103E300003462246E320FFF79DFE7CBD70B5044695
:103E400000F014F800F0F8F80546214600F050F9AB
:103E50002846FFF7EAFB84B22846FFF7EAFB224632
:103E6000BDE8704001460820FFF7BEBC70B50446AF
:103E700000F0E2F80546214600F03AF92846FFF73F
:103E8000D4FB84B22846FFF7D4FB2246BDE870403D
:103E900001460A20FFF7A8BC70B50446FFF7E6FF0D
:103EA00000F0CAF80546214600F022F92846FFF73F
:103EB000BCFB84B22846FFF7BCFB2246BDE870403D
:103EC00001460620FFF790BC0A4810B50121017099
:103ED000002141608160817080F80C18FFF750FF6D
:103EE00005480A224FF47A710078BDE81040FDF7CA
:103EF000C3BF0000A00400205C0100200020FEF7EA
:103F0000BDBD0000044810B501224FF47A718078DD
:103F1000FDF7B2FF012010BD800100208168491C1F
:103F2000816041684A1C42600878704710B50446B9
:103F3000FFF7F4FF03022046FFF7F0FF184480B2BA
:103F400010BD10B50446FFF7E9FF03062046FFF752
:103F5000E5FF03EB00432046FFF7E0FF03EB002300
:103F60002046FFF7DBFF184410BD08B5014600BF2F
:103F7000EFF3108000F001030093009828B9EFF3ED
:103F8000108040F0010383F3108800BF486860B9D7
:103F900000BF009828B9EFF3108020F0010383F3ED
:103FA000108800BF4FF0FF3008BD00BF009828B94F
:103FB000EFF3108020F0010383F3108800BF4B69FA
:103FC000581C48611A78CB684869984201D38868C0
:103FD000486100BFEFF3108000F0010300930098E8
:103FE00028B9EFF3108040F0010383F3108800BF7D
:103FF0004868401E486000BF009828B9EFF3108061
:1040000020F0010383F3108800BF1046CCE701467F
:10401000486810B94FF0FF3070474B69581C486131
:104020001A78CB684869984201D388684861486823
:10403000401E48601046EFE7044900B5802201F1B8
:104040008000FFF726FB0148803000BDF03A0020D9
:1040500008B5014600BFEFF3108202F001030093A0
:10406000009A2AB9EFF3108242F0010383F310881B
:1040700000BF486800BF009A2AB9EFF3108222F00F
:10408000010383F3108800BF08BD000070B50E4621
:104090000C4915464418552331462046FCF72AFFA3
:1040A00030B955232A4631462046FCF723FF08B194
:1040B000012070BD892204A10020FDF795FE00209B
:1040C00070BD0000008000082E2E5C736F75726357
:1040D000655C6170705C636F6D6D6F6E5C635C7965
:1040E000785F626F6F746D61696E2E63000000000F
:1040F00000280AD0D0E902239A4206D24268531C13
:10410000436011708168491C81607047F8B50446AE
:104110000D4616462046FFF72FFBB04201D2002085
:10412000F8BD002728E015F8011B2269501C20610A
:104130001170D4E90310884201D3A068206100BF48
:10414000EFF3108000F001010091009828B9EFF31F
:10415000108040F0010181F3108800BF6068401CAE
:10416000606000BF009828B9EFF3108020F00101D3
:1041700081F3108800BF7F1CB742D4D30120CFE762
:10418000F0B50346D3E90006851BAA4200D92A46AA
:1041900000240FE011F8016B1F69781C18613E7054
:1041A000D3E90360B04201D3986818615868401C95
:1041B0005860641C9442EDD30120F0BD30B50C462C
:1041C0000546090AFFF794FFE1B22846BDE83040F2
:1041D000FFF78EBF30B50C460546090EFFF788FF86
:1041E000C4F307412846FFF783FFC4F3072128469D
:1041F000FFF77EFFE1B22846BDE83040FFF778BF09
:1042000002460AB900207047D2E90030984201D333
:104210000020F8E71369581C10611970D2E90330C7
:10422000984201D3906810615068401C5060012092
:10423000E9E730B50C46054603E0641C2846FFF765
:1042400057FF21780029F8D130BD02E008C8121FBD
:1042500008C1002AFAD170477047002001E001C16F
:10426000121F002AFBD1704700B585B0FFF7DEF8BA
:1042700068B9FFF76BF850B11F481E4901604968E3
:10428000416041688160884705B0002000BD6846F4
:10429000FDF786FF00214FF00050FDF75FFB4FF464
:1042A000C060FDF751FB0120FDF7FEFE0020FCF78A
:1042B0007FFA0020FCF776FA01210C20FDF758FF69
:1042C00001210846FDF754FF01210C48FCF76AFD67
:1042D000FCF7A8FAFCF780FEFDF70AFCFDF732FCBC
:1042E000FDF70CFCFDF76EFEFDF746FCFDF782FBCB
:1042F000F8E7000000800008F4010020000430000E
:10430000684400087C4400087E7D02010000010032
:10431000B5160008000000000000000001000200C7
:10432000AF160008000000000000000002000300BB
:10433000A916000800000000000000005136000827
:10434000553600086D340008DD0F0008BD26000852
:10435000412A0008AD26000800000000593400087A
:10436000E508000800000000D9320008753900088F
:1043700000000000000000000C43000801000000E5
:104380003C43000807000000010000001C43000837
:10439000010000005C430008020000000200000071
:1043A0002C430008010000006843000802000000E0
:1043B00000000000000000000000000000000000FD
:1043C0000000000000000000040000001C000000CD
:1043D00001000000D41A0020BC1A0020C81A0020D6
:1043E00091440008000000000000000000000000F0
:1043F00000000000000000000000000000000000BD
:10440000000000000000000000080140040000005F
:10441000200200201000000001000000000C0140FC
:1044200008000000A00200201000000002000000B0
:1044300000100140100000002003002010000000C8
:10444000030000000014014020000000A003002031
:104450000300000000000000000000000000000059
:104460000000000000000000626F6F742D313130D9
:1044700072766C31646D332D312E31004A756C20AB
:10448000333020323031382031343A33343A323814
:104490000044594D5F363400C84400080000002035
:1044A000500100004A420008184600085001002050
:1044B00028030000F8020008B8470008780400202C
:1044C000483E00005A4200080000000000000000C2
:1044D0009503000897030008990300089B03000850
:1044E0009D03000800000000000000000000000024
:1044F00000000000A10300089F0300080000000066
:10450000A3030008A5030008A7030008A9030008E7
:10451000AB030008AD030008AF030008B1030008B7
:10452000B3030008B5030008B7030008B903000887
:10453000BB030008BD030008BF030008C103000857
:10454000C3030008C5030008C7030008C903000827
:10455000CB030008CD030008CF030008D1030008F7
:10456000D3030008D5030008D7030008D9030008C7
:10457000DB030008DD030008DF030008E103000897
:10458000E3030008E5030008E7030008E903000867
:10459000EB030008ED030008EF030008F103000837
:1045A000F3030008F5030008F7030008F903000807
:1045B000FB030008000000000000000000000000F5
:1045C00000000000000000000000000000000000EB
:1045D000FD030008FF0300080104000803040008AD
:1045E0000504000807040008090400080B0400087B
:1045F0000D0400080F04000811040008130400084B
:104600001504000817040008190400081B0400081A
:104610001D0400081F0400083201324113491442EE
:104620000832E11359133308E21AE51432E313692F
:10463000113308E41A991849262129381ACD102A6D
:1046400002401920320413ED153308051A71082AA7
:1046500006241940292F1A8F2832071AAD18324222
:104660005A096C01113C020406192D0102030404CD
:1046700005310607080912012A489E1301022A1073
:10468000084B0204084B0308084B0410084B052094
:10469000284B0640101307802A48D512083A01100B
:1046A00012094302102A0A3231120B2B0810201271
:1046B0000C3A1010120D1C20100111120E3A40106D
:1046C000120F2A80081A012529404B0111804B0145
:1046D00012801B01138019301B01148029081B153F
:1046E000200819302A168019084B1780182A182D0F
:1046F000191012193A0208121A2B041C08121B3A3C
:1047000008081A1C8029082A1D801908121E2A4030
:10471000B813011F2A80083C022001C84C02210264
:10472000084B2204084B2308082A248019084A252C
:10473000801B02268019784B0227802B0228C31980
:104740000812292B024808122A3A0428122B3A0888
:1047500008122C3A1018122D3A2050122E3A4018F6
:10476000122F2A80083C033001584C033102083BC9
:10477000320458D11301FF3209320A124453024065
:10478000143801401A0804490E19FB12FF32023294
:10479000036A80241A441E2924391A4906091A4832
:1047A0003A04403AFF0832056A1C241A481E2A10AF
:0847B00048291A01260000004F
:0400000508000219D4
:00000001FF
