:020000040800F2
:10000000007B012079010008FD0F0020310C002049
:10001000F90F0020C3020020C51E002000000000D0
:10002000000000000000000000000000FF1A002097
:1000300011040020000000006D1000209101000854
:10004000930100083D0C00208D1B0020411A002068
:10005000C709002093010008B9090020BD0900204C
:10006000BF090020C1090020C3090020F9030020B6
:10007000FB030020FD030020FF03002001040020FB
:100080000304002005040020C1020020E502002036
:10009000E1020020E3020020DF020020C509002069
:1000A000930100089301000893010008911B0020B0
:1000B000971B0020991B00209B1B0020370C002061
:1000C000350C00203B0C0020390C0020F91A0020D0
:1000D000FB1A0020D91B0020DB1B0020DD1B0020A9
:1000E000BB0900203F1A0020391D002093010008A1
:1000F000930100089301000893010008000000002C
:1001000093010008000000009D1B0020FD1A002044
:10011000A31B0020A51B00209F1B0020A11B00206B
:1001200007040020090400200B0400200D04002017
:100130000F040020B5090020B7090020ED020020BF
:10014000E9020020EB020020E7020020371D00201A
:10015000554C43445F545950455F563031000000C0
:1001600000AADFF810D000F03DF80000004800477A
:10017000C52B0020007B0120064880470648004729
:10018000FEE7FEE7FEE7FEE7FEE7FEE7FEE7FEE747
:10019000FEE7FEE7090200086301000840EA0103E8
:1001A0009B0703D009E008C9121F08C0042AFAD22D
:1001B00003E011F8013B00F8013B521EF9D27047F1
:1001C000D2B201E000F8012B491EFBD27047002299
:1001D000F6E710B513460A4604461946FFF7F0FF46
:1001E000204610BD064C074D06E0E06840F00103D4
:1001F00094E8070098471034AC42F6D3FFF7B5FFF8
:10020000D80300081804000808B51848006840F42E
:100210007000164908601648006840F00100144953
:1002200008600846406840F0800048600020009068
:1002300002E00098401C009044F62061009888423B
:10024000F7D300200A494860C86208460068094997
:100250000840074908604FF47F008860084600683E
:1002600020F48020086000F0B3F808BD88ED00E0BD
:1002700000100240FFFFF6EA02E008C8121F08C1A2
:10028000002AFAD170477047002001E001C1121F17
:10029000002AFBD17047000000200021464A126866
:1002A00042F48032444B1A6000BF401C424A12683C
:1002B00002F4003119B94FF6FF729042F5D13E4A6F
:1002C000126802F400320AB900BFFEE73A4AD26966
:1002D00042F08052384BDA61384A126842F44042A8
:1002E000364B1A60344A5268334B5A601A46526889
:1002F0005A601A46526842F480625A601A4652683E
:100300002F4B1A402C4B5A601A4652682D4B1A43F9
:10031000294B5A601A46D26A2B4B1A40264BDA6296
:100320001A46D26A294B1A43234BDA621A461268DC
:1003300042F080621A6000BF1F4A126802F0006239
:10034000002AF9D01C4A126842F080721A4B1A60D7
:1003500000BF194A126802F00072002AF9D0174A49
:10036000126842F48032154B1A6000BF134A52687B
:1003700002F48032002AF9D0104A126842F40032A6
:100380000E4B1A6000BF0D4A526802F40032002A78
:10039000F9D0094A526822F00302074B5A601A4604
:1003A000526842F002025A6000BF034A526802F0EB
:1003B0000802002AF9D07047001002400070004087
:1003C000FFFFC39F0000352000F0FEBF390F010082
:1003D00010B5FFF761FF10BD1804000800000020F1
:1003E0000002000078020008180600080002002041
:1003F00074370000780200088C3D00087439002032
:100400008400000078020008103E0008F83900203F
:10041000941F000088020008000000000000000097
:10042000FD0F0020310C0020F90F0020C302002036
:10043000C51E0020000000000000000000000000B9
:1004400000000000FF1A002011040020000000003E
:100450006D10002091010008C91E00203D0C0020F5
:100460008D1B0020411A0020C70900203D1A0020E2
:10047000B9090020BD090020BF090020C1090020E2
:10048000C3090020F9030020FB030020FD03002026
:10049000FF030020010400200304002005040020C5
:1004A000C1020020E5020020E1020020E30200205A
:1004B000DF020020C50900208F1B0020951B0020B3
:1004C000931B0020911B0020971B0020991B0020EC
:1004D0009B1B0020370C0020350C00203B0C00201B
:1004E000390C0020F91A0020FB1A0020D91B00202B
:1004F000DB1B0020DD1B0020BB0900203F1A002071
:10050000391D002000000000000000000000000075
:1005100000000000000000000000000000000000DB
:100520009D1B0020FD1A0020A31B0020A51B0020FE
:100530009F1B0020A11B00200704002009040020AD
:100540000B0400200D0400200F040020B50900203A
:10055000B7090020ED020020E9020020EB02002094
:10056000E7020020371D002000000000000000000E
:10057000000000000000000000000000000000007B
:10058000000000000000000000000000000000006B
:10059000000000000000000000000000000000005B
:1005A000000000000000000000000000000000004B
:1005B000000000000000000000000000000000003B
:1005C000000000000000000000000000000000002B
:1005D000000000000000000000000000000000001B
:1005E000000000000000000000000000000000000B
:1005F00000000000000000000000000000000000FB
:1006000000000000000000000000000000000000EA
:10061000000000000000000010B52549254803F047
:1006200089FB58B1234803F0F3FAC4B202212046F3
:1006300001F052FB1E491F4803F06FFB10BD10B5BF
:100640001B491D4803F076FB58B11B4803F0E0FA44
:10065000C4B20421204601F03FFB1549164803F0BF
:100660005CFB10BD10B51249144803F063FB58B190
:10067000124803F0CDFAC4B20821204601F02CFB49
:100680000B490E4803F049FB10BD10B508490C4852
:1006900003F050FB58B10A4803F0BAFAC4B2102173
:1006A000204601F019FB0249054803F036FB10BD56
:1006B000050305000044004000480040004C004095
:1006C0000050004040F2CF1CC0F6000C604740F2E2
:1006D0009D1CC0F6000C6047704700BFFEE7014656
:1006E00008784A7840EA02208A7840EA0240CA78CC
:1006F00040EA026070477047704770477047704724
:10070000704770477047000010B5044617A001F00D
:1007100003FD00224FF40061194802F00AF8204658
:1007200000F01CFC48B90122D102154802F001F882
:1007300014A001F0F1FC002010BD1AA001F0ECFCA7
:1007400000224FF400610E4801F0F3FF204600F054
:1007500005FC48B90122D102094801F0EAFF16A0C0
:1007600001F0DAFC0020E7E70120E5E7C7EBCAE487
:10077000C8EBB2D9D7F7C3DCC2EBA3BA00000000C4
:1007800000180140B6D4B2BBC6F0A3ACC3DCC2EBC8
:10079000B4EDCEF3BBF2CAB1BCE4B3ACCAB1A3A111
:1007A0000A000000C7EBD4D9B4CECAE4C8EBC3DC5E
:1007B000C2EBA3BA00000000B6D4B2BBC6F0A3AC33
:1007C000C1BDB4CECAE4C8EBB5C4C3DCC2EBB2BB96
:1007D000D2BBD6C2BBF2CAB1BCE4B3ACCAB1A3A10E
:1007E0000A00000010B50848007818B1002006493A
:1007F000087002E0012004490870034802780121D2
:10080000024801F096FF10BDF539002000100140AC
:100810007047704770477047704770477047704720
:100820007047704770477047704700002DE9F84FD8
:100830000020D04908702821CF48FFF743FF01F07E
:100840006BF801F0AEFE002001F092FB002001F0F9
:1008500089FB0121684601F044FD50B90122D10213
:10086000C64801F066FFC6A001F056FC0020BDE8B6
:10087000F88F0122D102C14801F05BFF9DF8000012
:10088000312803DB9DF80000352804DDC5A001F008
:1008900043FC0020EBE79DF80000313805282DD2FD
:1008A000DFE800F0030D0E182200C7A001F034FCB1
:1008B0000120FFF729FF08B90020D8E725E000BF95
:1008C000C9A001F029FC0020FFF71EFF08B9002095
:1008D000CDE71AE0CBA001F01FFC0020FFF714FFCA
:1008E00008B90020C3E710E0CEA001F015FC0020FD
:1008F000FFF70AFF08B90020B9E706E04FF4EA71F4
:10090000D1A001F03BFB0020B1E700BF994800787F
:1009100008B90020ABE79DF80000313805281BD24C
:10092000DFE800F003040E18190000BF012001F0F9
:100930001FFB01F03AFE42F2107001F021FB12E0C1
:10094000012001F00FFB01F030FE42F2107001F0C7
:1009500017FB08E000BF06E040F2F111BAA001F079
:100960000DFB002083E700BF9DF80000313805280B
:1009700073D2DFE800F003234363730000F0E8FA6A
:10098000012804D04FF4FC71AFA001F0F7FAB8A031
:1009900001F0C2FB00240BE002F0F4FBA0B201F076
:1009A000E8FD20B9BAA001F0B7FB00205FE7641CA6
:1009B000FF2CF1D9BBA001F0AFFB68E000F0C8FA52
:1009C000012804D040F205219FA001F0D7FABCA075
:1009D00001F0A2FB20240BE002F0D4FBA0B201F056
:1009E000C8FD20B9AAA001F097FB00203FE7641CD6
:1009F000FF2CF1D9B8A001F08FFB48E000F052FACB
:100A0000012804D040F212218FA001F0B7FAACA067
:100A100001F082FB20240BE002F0B4FBA0B201F055
:100A2000A8FD20B99AA001F077FB00201FE7641C05
:100A3000FF2CF1D9A8A001F06FFB28E0ACA001F0D9
:100A40006BFB002403E0A0B201F09EFE641CFF2CAF
:100A5000F9D9ADA001F060FB19E011E0B0A001F000
:100A60005BFB4FF4807403E0A0B201F08DFE641CC8
:100A7000B4F5007FF8D3B1A001F04EFB0120F6E6FB
:100A800040F22F2170A001F079FA0020EFE600BFBC
:100A90009DF80000312806D032281FD0332839D0E5
:100AA00034285FD152E0AFA001F036FB00210846A8
:100AB00001F070FD06460021102001F06BFD074695
:100AC0003946304600F004FC804601F06AFD002003
:100AD00001F04EFA404600F079FEC8E6A8A001F009
:100AE0001BFB0021202001F055FD064600214FF49C
:100AF000807001F04FFD07463946304600F0E8FBB4
:100B0000804601F04EFD002001F032FA404600F030
:100B10005DFEACE6A0A001F0FFFA0021202001F06C
:100B200039FD064600214FF4807001F033FD074681
:100B30003946304600F0FAFA814601F032FD0020D5
:100B400001F010FA484600F09FFC90E698A001F0F2
:100B5000E3FA0025284600F033FB8246504600F0B9
:100B60007BFD84E640F2572137A001F007FA002010
:100B70007DE60000A4390020384100200018014023
:100B8000CAE4C8EBB3ACCAB1A3ACCFB5CDB3D7AA56
:100B9000C8EBD5FDB3A3C6F4B6AFC1F7B3CC2E2EC8
:100BA0002E0A0000CAE4C8EBB7C7B7A8A3ACCFB5FC
:100BB000CDB3D7AAC8EBD5FDB3A3C6F4B6AFC1F782
:100BC000B3CC2E2E2E0A0000D7A2D2E2A3BAC8AB15
:100BD000B2BFB3CCD0F2BDABB1BBB2C1B3FDA3A128
:100BE000A3A1A3A10A000000D7A2D2E2A3BAD6F71C
:100BF000B3CCD0F2BDABB1BBB2C1B3FDA3A1A3A135
:100C0000A3A10A00D7A2D2E2A3BABABAD7D6D7D63E
:100C1000BFE2B1EDBDABB1BBB2C1B3FDA3A1A3A116
:100C2000A3A10A00D7A2D2E2A3BAD3C3BBA7B2CE74
:100C3000CAFDC9C8C7F8BDABB1BBB2C1B3FDA3A162
:100C4000A3A1A3A10A0000002E2E5C436F64655F80
:100C500046696C65735C5F6170705C6D61696E5C48
:100C6000635C4C6F61644D616E6167652E4300008B
:100C7000D5FDD4DAB2C1B3FDD6F7466C617368CB4B
:100C8000F9D3D0C9C8C7F82E2E2E2E2E2E0A00005A
:100C9000D6F7466C617368B2C1B3FDCAA7B0DCA3D6
:100CA000A10A0000D6F7466C617368CBF9D3D0C9AE
:100CB000C8C7F8B2C1B3FDB3C9B9A6A3A10A000061
:100CC000D5FDD4DAB2C1B3FDD6F7B3CCD0F22E2E17
:100CD0002E2E2E2E0A000000D6F7B3CCD0F2C9C8B3
:100CE000C7F8B2C1B3FDB3C9B9A6A3A10A000000F9
:100CF000D5FDD4DAB2C1B3FDBABAD7D6D7D6BFE2E2
:100D00002E2E2E0A00000000BABAD7D6D7D6BFE2E0
:100D1000C9C8C7F8B2C1B3FDB3C9B9A6A3A10A0037
:100D2000D5FDD4DAB2C1B3FDD3C3BBA7B2CECAFDE1
:100D3000C9C8C7F82E2E2E0A00000000D3C3BBA7D7
:100D4000B2CECAFDC9C8C7F8B2C1B3FDB3C9B9A60E
:100D5000A3A1CFB5CDB3D6D8D0C2C6F4B6AF2E2E90
:100D60002E2E0A00C7EBB4ABCBCDD2FDB5BCB3CCB5
:100D7000D0F2484558CEC4BCFE2E2E2E0A000000EC
:100D8000C7EBB4ABCBCDD6F7B3CCD0F2484558CEF9
:100D9000C4BCFE2E2E2E0A00C7EBB4ABCBCDD6F7CB
:100DA000B3CCD0F242494ECEC4BCFE2E2E2E0A0049
:100DB000C7EBB4ABCBCDD5FBBACFD7D6BFE2484556
:100DC00058CEC4BCFE2E2E2E0A000000704770477D
:100DD000704770477047704770477047704770475B
:100DE000F8B504460D46164600272C480078012821
:100DF00009D12B484088B4FBF0F029490989884281
:100E000001D30020F8BD25480078042807D1A4F1BB
:100E10000060FF21B1EBD02F01D20020F2E7A5F155
:100E20000060FF21B1EBD02F01D20020EAE704F0EF
:100E3000010010B905F0010008B10020E2E706F05A
:100E4000010008B10020DDE7770820E013480078B2
:100E500001280CD122460221684601F079FC0222C9
:100E60006946284601F0A6FB68B90020CAE70B488E
:100E70000078042807D102222146284601F09AFB77
:100E800008B90020BEE7A41CAD1C02F07BF9381E97
:100E9000A7F10107DAD10120B4E700007C39002076
:100EA000604100200148007870470000863900202A
:100EB0002DE9F0410546884600240026002711E070
:100EC00015F8011BC843C0B20444E6B2FF2C03D995
:100ED00006EB1420C6B23446C7F30B0008B902F083
:100EE00051F97F1C4745EBD3701CC0B2BDE8F081BF
:100EF0002DE9F041054688460024002600270FE032
:100F000015F8011B0C44E6B2FF2C03D906EB1420A4
:100F1000C6B23446C7F30B0008B902F033F97F1CA0
:100F20004745EDD3701CC0B2BDE8F08101480068B0
:100F300070470000803900200148006870470000B9
:100F4000A039002001480068704700008C3900205B
:100F500001480078704700009039002070B50546C0
:100F60000020334908700326002451E03149081954
:100F70001E2101F0B6F920B92FA001F0CDF8002014
:100F800070BD54B9032E08D12A48005D2B49095D74
:100F9000884201D1022600E00126012D0FD125480B
:100FA000005D2649095D884204D023A001F0B4F811
:100FB0000020E5E701212A2001F098F826E0012E23
:100FC00011D0022E1FD11B48005D1C49095D8842CB
:100FD00004D101212A2001F089F816E016A001F0C1
:100FE0009BF80020CCE71348005D1549095D884255
:100FF00004D101212A2001F079F806E00EA001F0C9
:101000008BF80020BCE70020BAE700BF601CC4B228
:10101000282CABD30122D1020A4801F08AFB06A09A
:1010200001F07AF801200249087000BFA8E700002B
:10103000A4390020384100200A000000CD390020EA
:10104000A53900200018014000BFFEE77047704737
:10105000704770477047000070B5012001F026F816
:10106000C4B2412C03DAA4F13000C4B202E0A4F10E
:101070003700C4B22007040E012001F017F8C5B2F2
:10108000412D03DAA5F13000C5B202E0A5F1370029
:10109000C5B26019C6B203480078304401490870EF
:1010A000304670BD9439002070B5012000F0FEFF7D
:1010B000C4B2412C03DAA4F13000C4B202E0A4F1BE
:1010C0003700C4B22007040E012000F0EFFFC5B2C4
:1010D000412D03DAA5F13000C5B202E0A5F13700D9
:1010E000C5B26019C6B2034800783044014908709F
:1010F000304670BD8839002010B5FFF7ADFF0446BB
:101100004FF6FF7000EA0424FFF7A6FF204480B2E8
:1011100010BD10B5FFF7C8FF04464FF6FF7000EA98
:101120000424FFF7C1FF204480B210BD70B505460E
:101130000E460020094908700949087000F012F8AD
:1011400000F020F8044614B1701BA04201D2012027
:1011500070BD2146284601F03BF9F9E784390020AB
:101160008539002010B5012000F0A0FF0349087068
:10117000012000F09BFF0249087010BD8439002057
:101180008539002008B5012000F090FFC0B28DF82D
:101190000000012000F08AFFC0B28DF8010001209C
:1011A00000F084FFC0B28DF80200012000F07EFF45
:1011B000C0B28DF803006846FFF791FA08BD000041
:1011C0002DE9F041064600203B4908603B49086094
:1011D0003B4908604FF404713A48FFF773FA374609
:1011E00000BF00BF012000F061FF3A28FAD1324869
:1011F0000088C0F3090018B901213E2000F076FFF5
:10120000002031490870FFF727FF0446FFF774FFFD
:10121000FFF722FF0546062D28D2DFE805F003047C
:101220001A1F212624E03946002001F079F810B970
:101230000620BDE8F08125484078C001B84201D1C0
:101240000020F6E721484078C70100201C490860CB
:101250000EE0FFF751FFA01EC4B209E00220E8E74C
:10126000FFF74AFFA01EC4B202E001E00220E0E75F
:1012700000BF44B1204604EBD0714910A4EB4101FA
:1012800009B10520D5E70DE03946012001F048F805
:1012900008B90620CDE708480068401C06490860E8
:1012A000601EC4B2002CEFD1FFF7D6FE06480078CE
:1012B000002896D00120BCE7A039002098390020F2
:1012C0009C390020283F00209439002060410020F4
:1012D0002DE9F05F07468A460026B04600204849BF
:1012E000086000BF00BF012000F0E0FE3A28FAD1FC
:1012F00043480088C0F3090018B901213E2000F0DE
:10130000F5FE00203F490870FFF7CEFE0446FFF7C8
:1013100000FF8146FFF7C8FE0546062D2FD2DFE805
:1013200005F0030A141C1E2516B907EB090801E095
:1013300006EB090825E0FFF7B7FE3248007810B148
:101340000120BDE8F09F0020FBE7FFF7E2FE064624
:1013500036013E44A01E84B213E00220F1E7FFF7FD
:10136000D8FE06463604A01E84B20AE0FFF7D1FE7E
:10137000A01E84B2FFF7CDFEA01E84B201E00220C1
:10138000DFE700BF44B1204604EBD0714910A4EB65
:10139000410109B10520D4E7DFF86CB000201B49FA
:1013A000087019E0A5B916480068401C1449086087
:1013B000B84501D3D04501D90420C2E7FFF774FE38
:1013C0000BF8010B11480078401C1049087001E02F
:1013D000FFF76AFE601E84B2002CE3DCFFF764FEB8
:1013E0000A4802780849404601F0E4F807480078C6
:1013F00080440448007800283FF474AF0120A0E73F
:101400008C39002088390020A83E0020893900202E
:1014100000BFFEE7704710B500214FF0005001F00B
:1014200077FF4FF4C06001F069FF10BD2DE9F04176
:1014300004460D4616461F46DDF81880064840F85B
:10144000245072B6A4F11001C8B23A46314601F0F8
:10145000F3FE62B6BDE8F08100000020BFF34F8FBD
:101460000648006800F4E06005490843001D034990
:101470000860BFF34F8F00BFFEE700000CED00E0F7
:101480000000FA057047000070B5044634B1012C25
:1014900011D0022C14D0032C1CD116E0FFF746FD0E
:1014A000054600F08DF80FA000F036FE12A000F007
:1014B00033FE012070BD16A000F02EFE0020F9E7DB
:1014C0001CA000F029FE0020F4E722A000F024FE7A
:1014D0000020EFE740F22F1126A000F04FFD002082
:1014E000E8E700000ACEC4BCFECFC2D4D8B3C9B965
:1014F000A6A3A10A00000000CFD6D4DAD6D8D0C265
:10150000C6F4B6AF4350552E2E2E2E2E0A000000E4
:10151000B6D4B2BBC6F0A3ACBBF1C8A142494ECE13
:10152000C4BCFED7DCB3A4B6C8B3F6B4EDA3A10A1D
:1015300000000000B6D4B2BBC6F0A3AC42494ECE08
:10154000C4BCFED0B4C8EB466C617368B3F6B4EDAE
:10155000A3A10A00B6D4B2BBC6F0A3AC42494ECE9A
:10156000C4BCFE466C617368D0A3D1E9B3F6B4ED98
:10157000A3A10A002E2E5C436F64655F46696C650B
:10158000735C5F6170705C6D61696E5C635C4C6F15
:1015900061644D616E6167652E43000010B50446BD
:1015A00004F00F040A2C03DA04F13000C4B202E0A4
:1015B000A4F14B00C4B20121204600F097FD10BDFC
:1015C0002DE9F04104461A4D4FF00108012719A0FA
:1015D00000F0A2FD00BFB8F1000F06D11FB9012134
:1015E0002C2000F083FD4FF00308A8F1010000F06B
:1015F000FF080A2D03D2E0B2FFF7D0FF11E0B4FBE1
:10160000F5F0C6B2B4FBF5F005FB10440A20B5FBBB
:10161000F0F50FB1002EDEDD00273046FFF7BEFFEC
:10162000D9E700BF09A000F077FDBDE8F081000018
:1016300040420F000ACFC2D4D8CDEAB3C9A3ACB19F
:10164000BEB4CEB9B2CFC2D4D8000000D7D6BDDA6E
:101650002E2E2E0A0000000070B50446072C30D252
:10166000DFE804F00411161B20252A00FFF764FCB4
:101670000546FFF7A5FF16A000F04EFD19A000F0EB
:101680004BFD012070BD1DA000F046FD0020F9E7D4
:1016900021A000F041FD0020F4E726A000F03CFD71
:1016A0000020EFE72AA000F037FD0020EAE72FA096
:1016B00000F032FD0020E5E733A000F02DFD002012
:1016C000E0E74FF4C57137A000F058FC0020D9E7DF
:1016D0000ACEC4BCFECFC2D4D8B3C9B9A6A3A10A4E
:1016E00000000000CFD6D4DAD6D8D0C2C6F4B6AF48
:1016F0004350552E2E2E2E2E0A000000B6D4B2BB1B
:10170000C6F0A3AC484558CEC4BCFED0A3D1E9B3C3
:10171000F6B4EDA3A10A0000B6D4B2BBC6F0A3ACE8
:10172000484558CEC4BCFEC0E0D0CDB3F6B4EDA35E
:10173000A10A0000B6D4B2BBC6F0A3AC484558CE4F
:10174000C4BCFED0B4C8EBB3F6B4EDA3A10A00004C
:10175000B6D4B2BBC6F0A3AC484558CEC4BCFEB5A7
:10176000D8D6B7B3ACB3F6A3A10A0000B6D4B2BBC7
:10177000C6F0A3AC484558CEC4BCFEB3A4B6C8B3AB
:10178000F6B4EDA3A10A0000B6D4B2BBC6F0A3AC78
:10179000D0B453464C415348D0A3D1E9B3F6B4ED8D
:1017A000A3A10A002E2E5C436F64655F46696C65D9
:1017B000735C5F6170705C6D61696E5C635C4C6FE3
:1017C00061644D616E6167652E43000070B504462B
:1017D000062C2AD2DFE804F00310151A1F24FFF7A5
:1017E000B1FB0546FFF7ECFE13A000F095FC17A037
:1017F00000F092FC012070BD1AA000F08DFC0020CA
:10180000F9E71FA000F088FC0020F4E723A000F017
:1018100083FC0020EFE728A000F07EFC0020EAE730
:101820002CA000F079FC0020E5E740F2591130A02F
:1018300000F0A4FB0020DEE70ACEC4BCFECFC2D479
:10184000D8B3C9B9A6A3A10A00000000CFD6D4DA44
:10185000D6D8D0C2C6F4B6AF4350552E2E2E2E2E5B
:101860000A000000B6D4B2BBC6F0A3AC484558CEBF
:10187000C4BCFED0A3D1E9B3F6B4EDA3A10A000025
:10188000B6D4B2BBC6F0A3AC484558CEC4BCFEC06B
:10189000E0D0CDB3F6B4EDA3A10A0000B6D4B2BB3C
:1018A000C6F0A3AC484558CEC4BCFED0B4C8EBB318
:1018B000F6B4EDA3A10A0000B6D4B2BBC6F0A3AC47
:1018C000484558CEC4BCFEB5D8D6B7B3ACB3F6A322
:1018D000A10A0000B6D4B2BBC6F0A3AC484558CEAE
:1018E000C4BCFEB3A4B6C8B3F6B4EDA3A10A00000D
:1018F0002E2E5C436F64655F46696C65735C5F6147
:1019000070705C6D61696E5C635C4C6F61644D61AD
:101910006E6167652E43000010B520A000F0FCFB4F
:101920002DA000F0F9FB3BA000F0F6FB48A000F072
:10193000F3FB4CA000F0F0FB4FA000F0EDFB54A037
:1019400000F0EAFB57A000F0E7FB59A000F0E4FB31
:101950005AA000F0E1FB5CA000F0DEFB2DA000F03F
:10196000DBFB5DA000F0D8FB6AA000F0D5FB78A0FF
:1019700000F0D2FB85A000F0CFFB93A000F0CCFBE1
:1019800024A000F0C9FB9FA000F0C6FBACA000F0B3
:10199000C3FBBAA000F0C0FB10BD00000A0A3D3D29
:1019A0003D3D3D3D3D3D3D3D3D3D3D3D3D3D3D3D67
:1019B0003D3D3D3D3D3D3D3D3D3D3D3D3D3D3D3D57
:1019C0003D3D3D3D3D3D3D3D3D3D3D3D3D3D3D3D47
:1019D0003D3D3D3D3D3D0A002A20202020436F70C3
:1019E00079726967687420284329203230313520A4
:1019F0005869616D656E205961786F6E204E65740F
:101A0000576F726B20434F2E4C5444202020202AC5
:101A10000A0000002A202020202020202020202032
:101A200020202020202020202020202020202020B6
:101A300020202020202020202020202020202020A6
:101A400020202020202020202020202A0A00000002
:101A50002A2020202020202020202020202020207C
:101A600020202000626F6F742D616536346D344420
:101A7000592D312E30310000202020202020202020
:101A8000202020202020202020202A0A00000000E2
:101A90002A202020202020202020446174653A2024
:101AA000000000004A756E202035203230323400AC
:101AB0002C2054696D653A200000000030393A3519
:101AC000353A303000000000202020202020202047
:101AD000202020202A0A00002A2020202020202048
:101AE00020202020203120202D2D2D2D2D2D202097
:101AF000CFC2D2FDB5BCB3CCD0F220484558CEC43D
:101B0000BCFE202020202020202020202020202A51
:101B10000A0000002A202020202020202020202031
:101B2000203220202D2D2D2D2D2D2020CFC2D4D898
:101B3000D6F7B3CCD0F220484558CEC4BCFE202006
:101B400020202020202020202020202A0A00000001
:101B50002A20202020202020202020202033202068
:101B60002D2D2D2D2D2D2020CFC2D4D8D6F7B3CC9E
:101B7000D0F22042494ECEC4BCFE2020202020209E
:101B8000202020202020202A0A0000002A202020B7
:101B90002020202020202020203420202D2D2D2DFD
:101BA0002D2D2020CFC2D4D8D5FBBACFD7D6BFE2B7
:101BB000CEC4BCFE20202020202020202020202059
:101BC0002020202A0A0000002A2020202020202077
:101BD00020202020203520202D2D2D2D2D2D2020A2
:101BE00020B2C1B3FDD3C3BBA7B2CECAFDC9C8C71B
:101BF000F820202020202020202020202020202A03
:101C00000A0000002A202020202020202020202040
:101C100020202020D0BEC6ACC0E0B1F0A3BA47441B
:101C20003332463330352020202020202020202031
:101C300020202020202020202020202A0A00000010
:101C40002A2020202020202020202020BEA7D5F1DF
:101C5000C6B5C2CA3A2038204D487A2C20B2A8CC4A
:101C6000D8C2CA3A20313135323030627073202008
:101C7000202020202020202A0A0000003D3D3D3D5C
:101C80003D3D3D3D3D3D3D3D3D3D3D3D3D3D3D3D84
:101C90003D3D3D3D3D3D3D3D3D3D3D3D3D3D3D3D74
:101CA0003D3D3D3D3D3D3D3D3D3D3D3D3D3D3D3D64
:101CB0003D3D3D3D0A0A0A000EB504A207CA8DE863
:101CC0000700684600F028FA0EBD00000D0A426FBA
:101CD0006F7409070D0A000070B505460C460F48E1
:101CE0000078A04204D129460D4801F07DFA13E0A6
:101CF0000A480078204078B1312D08DB352D06DC0C
:101D0000064804702946064801F06EFA04E00348CC
:101D10000078A0430149087070BD0000F63900202A
:101D20007041002010B501F003FC102001F05CFCB4
:101D3000102001F069FC0446012C24D1002001F0A0
:101D400005FBA00201F00EFB002001F017FB0020B4
:101D500001F048FD0121002001F050FD314920042F
:101D600001F030FD182001F03FFC182001F04CFC80
:101D70000446012C07D1022001F050FD00BF01F004
:101D800059FD0828FBD101F015FC274801F016F891
:101D9000264801F013F8264801F010F8254801F014
:101DA0000DF8254801F00AF8244801F007F8244806
:101DB00001F038FF234801F035FF234801F032FFDE
:101DC000224801F02FFF224801F02CFF252001F0CE
:101DD00027FA262001F024FA272001F021FA3420E6
:101DE00001F01EFA352001F01BFA40F2015001F01B
:101DF000B9FC40F2026001F0B5FC40F2036001F072
:101E0000B1FC40F2046001F0ADFC40F2056001F06D
:101E1000A9FC40F2066001F0A5FC4FF4C06001F09F
:101E2000A1FC10BD0000342000080140000C01405E
:101E3000001001400014014000180140001C014046
:101E4000003801400044004000480040004C004081
:101E50000050004070477047704700002DE9F04186
:101E600004460D46A04629464046FFF741F806467F
:101E700029464046FFF71CF8074606480078864288
:101E800003D105480078874202D00020BDE8F081E8
:101E90000120FBE784390020853900202DE9F0413D
:101EA0000546202406E001F06DF9204600F061FBB4
:101EB000601C84B2FF2CF6DD1348007801280BD19A
:101EC000124949784FF4C87211FB02F188B200211F
:101ED00000F0D4FC064604E00021802000F05AFB0C
:101EE00006460021202000F055FB07462A463946C9
:101EF0003046FEF775FF20B101F044F90120BDE83E
:101F0000F0810020FBE700007C39002060410020C8
:101F1000704770477047704770B504460D46012101
:101F20000D2000F0E3F801210A2000F0DFF8201274
:101F3000012100F0DBF8E0B2012100F0D7F8012D1B
:101F400001D1012100E002210846012100F0CEF874
:101F500001210D2000F0CAF801210A2000F0C6F886
:101F600070BD0000014908707047000086390020EC
:101F700001490870704700009039002000BFFEE75B
:101F8000002200EB400303EBC00100BF531C1A46C4
:101F90008B4200D97047F9E710B5FFF7C3FEFFF792
:101FA0003AFA10BD704770477047704770477047E6
:101FB0007047704770477047704770477047000020
:101FC00010B50446012C08D140F20531074801F054
:101FD00097FE064801F073FE07E040F20531034822
:101FE00001F081FE014801F065FE10BD004800408F
:101FF000704770477047000010B540F2056001F06F
:10200000B1FB40F2127001F0ADFB4FF4C06001F083
:10201000A9FB0121084800F099FF4FF480730322C7
:102020001821064800F02CFF4FF40073032204210E
:10203000024800F025FF10BD3000140000140140DC
:1020400038B50446FF2014490870FFF7D5FF002378
:102050004FF4C0521149124801F09AF8012003468A
:102060000022104900903720FFF7E0F921460E4882
:1020700001F086FD04210C4801F078FE08210A4891
:1020800001F07CFE40F20531074801F039FE0648B8
:1020900001F015FE38BD0000F63900208C4100200B
:1020A00070410020270200200048004070B504461F
:1020B0000025012C12D108E001F064F8681C0546E7
:1020C0000849884201D300BFFEE7074801F06CF8D9
:1020D0000646401C0028EFD0304670BD024801F093
:1020E00063F8FAE7001BB7007041002070B50446A2
:1020F0000D462146074801F090FD45B101E001F091
:1021000041F80721034801F0DFFD0028F7D0204601
:1021100070BD00000048004010B5044613E001F017
:1021200031F820780A2809D101210D20FFF7DEFFC0
:1021300001210A20FFF7DAFF641C04E014F8010B08
:102140000121FFF7D3FF20780028E8D110BD7047A8
:10215000704700002DE9F04786B04FF000080021DD
:10216000102000F017FA0646002504E056F8250076
:102170004DF825006D1C052DF8D3554904980870BD
:102180000498012802D0049804287DD1DDF80CA021
:1021900003984FEA90094FF0FF34002534E000F037
:1021A000F1FF4B48007801281CD1A900494A527818
:1021B0004FF4C87312FB03F290B200F05FFB0646C7
:1021C0003246042105A800F0C3FA9DF81400044427
:1021D0009DF8150004449DF8160004449DF817006E
:1021E000044410E03A48007804280CD1A90080206B
:1021F00000F0D0F906463078044470780444B07892
:102200000444F07804446D1C4D45C8D3601C20B9CB
:1022100031490298884200D1029C0298A04252D1D2
:1022200000F0C3F95046FFF739FE28B900F0B9F9BC
:10223000002006B0BDE8F08700F0A4FF03984FEA45
:1022400090094FF0FF34002514E000F09BFFA90037
:10225000202000F09FF9064637684FEA176844448B
:10226000C7F307484444C7F30728444407F0FF086E
:1022700044446D1C4D45E8D3601C20B916490298B2
:10228000884200D1029C00E01FE00298A04203D0E7
:1022900000F087F90020CCE7102000F06AF908B9B7
:1022A0000020C6E70021102000F074F90646103621
:1022B0000021304600F0FAF908B90020B9E700F033
:1022C00070F90120B5E70020B3E70020B1E7000076
:1022D0007C390020604100200100001000BFFEE7B3
:1022E00070472DE9F04104460D4643F6982005FB62
:1022F00000F800260FE000F045FF0020FFF7D6FEB3
:1023000007B2781C18B127700120BDE8F0810A20BF
:10231000FFF736FE761C4645EDD30020F5E70000BA
:1023200070B5ADF5047D06460D46012E0AD1FEF7C7
:1023300093FE23490A680968491C214B1960214909
:10234000885403E0204840881D4908601E484088A2
:102350001B490968884231D81C480088284482B249
:10236000194841880023174800F032FB17480088BD
:10237000284482B2144841880023684600F0B0FA2D
:1023800000240AE00F48005D1DF80410884203D0C5
:1023900000200DF5047D70BD641C0B484088A042F0
:1023A000F0D80A480068401C084908600020044929
:1023B00008604FF404710348FEF784F90120E8E750
:1023C00098390020283F0020604100209C390020DF
:1023D0002DE9F34FADF2B44D0020614908600027AC
:1023E000CDF8B004002600248046DDF8B49400BF88
:1023F0004FF496615B48FEF765F90120FFF756FE42
:1024000087B24FF6FF7000EA07270120FFF74EFE64
:10241000384487B20120FFF749FE86B24FF6FF70BD
:1024200000EA06260120FFF741FE304486B2012073
:10243000FFF73CFE84B24FF6FF7000EA042401204F
:10244000FFF734FE204484B2002506E00120FFF7A8
:102450002DFE44494855681C85B2A542F6DB012093
:10246000FFF724FE00F0FF0A0120FFF71FFE00F037
:10247000FF0BDDF8B004401C864201D1BE4208DDEE
:1024800000213046FFF748FD08F1010000F0FF0889
:10249000AEE721463348FEF72BFD504508D000211A
:1024A0003046FFF739FD08F1010000F0FF089FE713
:1024B00021462C48FEF7FCFC584508D00021304648
:1024C000FFF72AFD08F1010000F0FF0890E7B8F1DE
:1024D000050F04DD03200DF2BC4DBDE8F08F224650
:1024E0002049484600F066F808B90220F3E7224682
:1024F00049466846FEF7EBF8002509E01948405DBB
:102500001DF80510884201D00320E4E7681C85B25D
:10251000A542F3DBA144124800682044104908603A
:1025200001213046FFF7F8FCCDF8B0644FF0000809
:10253000BE4208D10A49DDF8B8040968884200D1D2
:1025400002E00120C7E753E700BF0DF2B44003C823
:10255000FFF784FC08B90320BDE70020BBE70000BB
:1025600080390020F839002000F0010181F3138840
:10257000704770B50446FF2C01DD002070BDE002FD
:1025800000F10065284600F01DFB08B10020F5E7CA
:102590000120F3E702464FF0006000EBC220084440
:1025A000704710B500F0F8FA10BD10B500F07CFBD4
:1025B00010BD00002DE9F84306460F4615460020E1
:1025C000009040F2053000F0D7FA4FF4417000F06F
:1025D000D3FA40F2023000F0CFFAA6F10060FF21FA
:1025E000B1EBD02F02D20020BDE8F88306F0010045
:1025F00008B10020F8E7284605EBD0714910A5EB9B
:10260000410109B10020EFE7B046284605EBD07143
:10261000C1F34F054FF0FF3000F05AFA00909DF8DB
:10262000000020BB2048006940F001001E490861FD
:1026300000240EE000F0A6FD17F81400012101EBC4
:102640004401795C00EB01201FFA80F928F8029B15
:10265000641CAC42EED34FF0FF3000F039FA00902A
:102660001148006920F001000F49086101E00020D5
:10267000BAE7B046002412E000F084FD17F8140019
:10268000012101EB4401795C00EB01201FFA80F984
:1026900038F81400484501D00020A5E7641CAC427E
:1026A000EAD30120A0E700000020024070B50446F4
:1026B0000D46A4F10060FF21B1EBD02F01D2002024
:1026C00070BD04F0010008B10020F9E7294620465A
:1026D00000F00CFB08B10020F2E70120F0E72DE943
:1026E000F04106460C4615461F462346022229465F
:1026F000304600F0C5FBBDE8F0812DE9F04107460A
:102700000C4615461E46DDF81880234632462946FB
:10271000384600F0B5FBBDE8F08170B504460D46C3
:102720002946204600F00AFC012800D170BD002097
:10273000FCE770B505460E46144624B131462846DE
:1027400000F03AFB03E03146284600F033FB70BD51
:102750002DE9F04105460E4614460A484088B4FB70
:10276000F0F100FB114087B206484088B4FBF0F05E
:102770001FFA80F83B4642463146284600F0B0F842
:10278000BDE8F0816041002010B50446384800786B
:10279000022804D100221146062001F0D3F80122BC
:1027A0009102344801F0D4F90122D103324801F0FA
:1027B000CFF901F067F900224FF400412E4801F0F3
:1027C000C7F92B480078022803D1202001F098F99E
:1027D00002E0502001F094F925480078022809D140
:1027E000C4F3071001F08CF9F02101EA041001F0A4
:1027F00087F919E01E480078012809D1C4F3C50003
:1028000001F07EF9E02101EA441001F079F90BE0D2
:102810001748007840B9C4F3031001F071F9F021B2
:1028200001EA041001F06CF9002001F069F90122BD
:10283000D103114801F08CF90D480078022804D129
:1028400000221146042001F07DF800F09BFC03E01B
:1028500042F6E06000F0F6FF01F02CF80028F7D116
:1028600000F090FC01221103024801F071F910BD43
:10287000604100200010014000080140024602486B
:10288000408802FB001070476041002010B500F046
:10289000E5FF0122D103104801F05AF901F0F2F8E6
:1028A00000224FF400410C4801F052F9012291023C
:1028B0000A4801F04DF901221103084801F048F9D6
:1028C000032000F0BFFF0122D103034801F040F9CB
:1028D00001F068F810BD0000000801400010014040
:1028E0002DE9F0478046894616461F463548007850
:1028F000012805D1C6F30B003D4660F39F250DE08E
:102900003048007828B9C6F30A003D4660F35F25D9
:1029100004E0C6F30C003D4660F31F2500F032FCD6
:1029200001229102284801F013F90122D10327481E
:1029300001F00EF901F0A6F800224FF400412348FF
:1029400001F006F91F480078022803D10B2001F09E
:10295000D7F802E0682001F0D3F8C5F3074001F092
:10296000CFF8C5F3072001F0CBF8E8B201F0C8F8C2
:1029700014480078022809D0002404E0002001F067
:10298000BFF8601C84B2042CF8DB02E0002001F0E8
:10299000B7F8002405E000F0B3FF08F80400601C5D
:1029A00084B24C45F7DB0122D103084801F0D0F88E
:1029B00001221103044801F0CBF800F0E3FBBDE86D
:1029C000F087000060410020001001400008014035
:1029D0002DE9F0478046894615461E46394800785D
:1029E000012805D1C5F30B00344660F39F240DE0A8
:1029F0003448007828B9C5F30A00344660F35F24F0
:102A000004E0C5F30C00344660F31F242D48007821
:102A1000022804D100221146062000F093FF012273
:102A20009102294801F094F80122D103274801F0CE
:102A30008FF801F027F800224FF40041234801F0FD
:102A400087F820480078022802D101F059F802E006
:102A5000852001F055F8C4F3074001F051F8C4F3A4
:102A6000072001F04DF8E0B201F04AF8002705E038
:102A700018F8070001F044F8781C87B24F45F7DBDF
:102A80000122D103114801F063F80E4800780228B2
:102A900004D100221146042000F054FF00F072FB24
:102AA00003E04FF4486000F0CDFE00F003FF002883
:102AB000F7D100F067FB01221103034801F048F849
:102AC000BDE8F0876041002000100140000801408F
:102AD00000B50346012200BF00F00CF802465B1E61
:102AE000012A01D1002BF7D1012A00D1042210467E
:102AF00000BD000000200A49C96801F0010109B1C8
:102B000001200CE00649C96801F0100109B1032059
:102B100005E00349C96801F0040101B102207047D2
:102B20000020024000B50346012200BF00F00CF86F
:102B300002465B1E012A01D1002BF7D1012A00D1E8
:102B40000422104600BD000000200A49C96C01F0B3
:102B5000010109B101200CE00649C96C01F0100126
:102B600009B1032005E00349C96C01F0040101B17A
:102B70000220704700200240064A02EB90110968CB
:102B800000F01F0301229A401143024B03EB901205
:102B900011607047002002400848006940F0800042
:102BA0000649086106480088B0F5007F04D9084648
:102BB000006D40F080000865704700000020024072
:102BC000E0F7FF1F30B5054633480088B0F5007FB9
:102BD00044D9324885421CD23148FFF779FF044678
:102BE000002C56D12F48006940F002002D490861A1
:102BF00008464561006940F0400008612848FFF739
:102C000067FF04462748006920F002002549086153
:102C10003FE02348FFF786FF0446002C39D12148C6
:102C2000006D40F002001F49086508464565C0690F
:102C300000F0020008B1084645611A48006D40F0F6
:102C40004000184908651648FFF76CFF0446154810
:102C5000006D20F00200134908651AE01048FFF7E4
:102C600037FF0446ACB90F48006940F002000D4937
:102C7000086108464561006940F040000861084865
:102C8000FFF726FF04460748006920F002000549C7
:102C90000861204630BD0000E0F7FF1FFFFF070876
:102CA00000000FF0002002400C48006900F0800096
:102CB00020B10B48094948600A4848600A48008822
:102CC000B0F5007F09D90548006D00F0800020B103
:102CD00003480249486403484864704700200240A2
:102CE00023016745AB89EFCDE0F7FF1F70B50446C0
:102CF0000D46002627480088B0F5007F31D92648C8
:102D0000844217D22548FFF7E3FE0646002E3ED147
:102D10002348006940F001002149086125601F48EF
:102D2000FFF7D6FE06461E48006920F001001C4948
:102D300008612CE01948FFF7F5FE06463EBB18482F
:102D4000006D40F001001649086525601348FFF743
:102D5000E9FE06461248006D20F0010010490865A2
:102D600015E00E48FFF7B4FE064686B90C48006928
:102D700040F001000A49086125600848FFF7A8FEF5
:102D800006460748006920F0010005490861304601
:102D900070BD0000E0F7FF1FFFFF070800000FF005
:102DA000002002404AF6AA2001490860704700004E
:102DB00000300040416170470161704710B5044622
:102DC0002D49601A8C422FD009DC2C48204480B158
:102DD000B0F5806F16D0B0F5006F49D11BE0B0F5AB
:102DE000806F2AD0B0F5006F30D0B0F5406F3FD182
:102DF00035E040F2023000F0D5FC40F2023000F045
:102E0000C1FC36E040F2033000F0CCFC40F203306D
:102E100000F0B8FC2DE04FF4417000F0C3FC4FF41B
:102E2000417000F0AFFC24E040F2053000F0BAFC45
:102E300040F2053000F0A6FC1BE040F2063000F046
:102E4000B1FC40F2063000F09DFC12E040F2073089
:102E500000F0A8FC40F2073000F094FC09E04FF4C9
:102E6000427000F09FFC4FF4427000F08BFC00E0D9
:102E700000BF00BF10BD00000014014000F8FEBFFD
:102E8000F0B5044616460025002201F00F0501F0BA
:102E9000100747B1042E05D145F00305E76B1F432A
:102EA000E76300E0354300201EE0012787401F4014
:102EB000C7B122684FEA800C0F2707FA0CF7BA4314
:102EC000870005FA07F73A43282904D101278740EC
:102ED0001F40676105E0482903D1012787401F4053
:102EE00027612260471CB8B20828DED3082022E000
:102EF000012787401F40E7B16268A0F108074FEA49
:102F0000870C0F2707FA0CF7BA43A0F10807BF0098
:102F100005FA07F73A43282904D1012787401F40C3
:102F2000676105E0482903D1012787401F402761D9
:102F30006260471CB8B21028DAD3F0BD0246906830
:102F4000084008B1012070470020FCE7F0B50A46B0
:102F5000002300240021002500F00046B6F1004FB8
:102F600002D11D4EF16901E01B4E7168C0F30345AB
:102F700083B200F44016B6F5401F08D121F0E0619D
:102F8000154E766826F0E066134F7E6012E000F47E
:102F90008016B6F5801F06D1032606FA05F4A14374
:102FA00041F0E06106E0460D360103FA06F6B14352
:102FB00041F0E06122B1460D360103FA06F63143D5
:102FC00000F00046B6F1004F02D1034EF16101E07E
:102FD000014E7160F0BD00000000014008B5FEF731
:102FE000DBFF40F21C7000F0BDFB4FF4C06000F04E
:102FF000B9FB00F0A1F94FF4006000F0E5FA00F031
:1030000091F90023042291015548FFF768FB002342
:103010000422D1015248FFF762FB00200223102254
:10302000D10200904F48FFF768FB0122D1034D48C1
:10303000FFF77FFB00200323102201210090494865
:10304000FFF75BFB012211464648FFF772FB0120A8
:1030500003231022042100904348FFF74EFB012276
:1030600004214148FFF765FB4FF480713C48FFF7AE
:1030700054FB80B14FF400713948FFF74EFB50B15B
:10308000002506E000F07EF842F21070FEF778FFAF
:103090006D1C022DF6D300224FF400613048FFF77B
:1030A00048FB002003231022D10100902C48FFF799
:1030B00024FB0122D1022A48FFF73BFB4FF4E13009
:1030C000FEF7BEFF4FF480712548FFF726FB38B1AD
:1030D0004FF400712248FFF720FB08B1FEF7ECFD2A
:1030E000FFF7D4FBFFF736F84FF480711C48FFF769
:1030F00014FB68B14FF400711948FFF70EFB38B1AB
:10310000FDF794FB20B10120FFF72EFAFEF7A6F998
:103110000020FEF755FF00212020FFF73BFA044670
:10312000206812490840B0F1005F0DD16068104975
:103130000860084600680F490860206880F3088826
:1031400000BF0846006880470120FEF739FF0AA04B
:10315000FEF7E2FF0120FFF707FAFEF77FF9000014
:103160000018014000100140000C01400000F02F49
:103170007439002078390020CEDED6F7B3CCD0F2F7
:103180000A00000010B5FDF72DFBFFF70BFE10BD88
:1031900010B502600024446081608C18C4608468AB
:1031A00044610461836110BD0146486810B94FF065
:1031B000FF30704772B64B69581C48611A78CB686B
:1031C0004869984201D388684861486830B988687E
:1031D0000861486162B64FF0FF30EAE74868401E78
:1031E000486062B61046E4E702460AB9002070471C
:1031F000D2E90030984201D30020F8E772B6136993
:10320000581C10611970D2E90330984201D39068BC
:1032100010615068401C506062B60120E7E7000072
:1032200000F01F0201219140024A431142F823108D
:103230007047000080E100E02DE9F04103460D46B3
:10324000164600240027A0462A48006800F4E060E3
:10325000B0F5E06F03D100BF4FF0040830E025481F
:10326000006800F4E060B0F5C06F03D101274FF0B3
:10327000030825E01F48006800F4E060B0F5A06F87
:1032800002D10227B8461BE01A48006800F4E0604B
:10329000B0F5806F03D103274FF0010810E0154807
:1032A000006800F4E060B0F5407F03D104274FF0E0
:1032B000000805E04FF4A06000F020F80227B846AF
:1032C000C7F1040005FA00F4C8F104010F20C8405A
:1032D0003040044324010848C45403F01F01012076
:1032E00088405911890001F1E021C1F80001BDE8D1
:1032F000F08100000CED00E000E400E00249014331
:10330000024A1160704700000000FA050CED00E071
:10331000024A0A400243024B1A60704780FFFF1FB7
:1033200008ED00E00348006820F48070014908605F
:1033300070470000007000400348006840F480704F
:10334000014908607047000000700040044A51685D
:1033500021F0F00141EA0002014B5A607047000081
:1033600000100240044A516821F4E06141EA000281
:10337000014B5A607047000000100240044A516837
:1033800021F4605141EA0002014B5A60704700008D
:10339000001002402DE9F14F8EB000200C905CA08F
:1033A00090E8004CC068CDE905BECDF810A00790AC
:1033B00058A0D0F804A00068CDE9020A0FF2541A10
:1033C000DAE9000ACDE9000A55484068C0F38100F7
:1033D0000D900D9820B1012804D0022863D103E09C
:1033E000504B62E04F4B60E04D48406800F480393C
:1033F000B9F5803F2FD14A48C06A00F080400B9059
:103400000B9808B9474A00E0474A4548C06A00F4AB
:1034100080300A900A98B0F5803F12D14048C06AC7
:10342000C0F30310401C08903D48C06AC0F303205D
:10343000871C112F00D114270898B2FBF0F000FB75
:1034400007F23748C06A00F00F00401C0990099845
:10345000B2FBF0F200E0354A31484068C0F38341E6
:103460002F48406800F0005008B141F010012C488E
:10347000406800F0804008B141F020010F2901D2DE
:10348000891C06E00F2903D33E2901D8491C00E01E
:103490003F2102FB01F30F2904D102EB420040005F
:1034A00000EB520301E01F4B00BF00BF1C48406807
:1034B000C0F3031504A8465D23FA06F418484068D3
:1034C000C0F3022502A8465D24FA06FC14484068B1
:1034D000C0F3C2251DF8056024FA06F80E9830B135
:1034E000012806D0022806D003280AD106E00C9352
:1034F00008E00C9406E0CDF830C003E0CDF8308051
:1035000000E000BF00BF0C980FB0BDE8F08F0000D6
:103510000000000000000000010203040607080983
:103520000010024000127A00006CDC0200093D002D
:1035300000B51448006840F00100124908600020FE
:1035400000F062F80F48406800F00C000D49486038
:10355000084600680C4908400A49086008460068A7
:1035600020F4802008600846006820F0A050086021
:103570004FF47F0088600846C06A0449084001494A
:10358000C86200BD00100240FFFFF6FE0000F81FF9
:103590000146074A02EB9110006801F01F03012267
:1035A0009A40104008B1012070470020FCE700005D
:1035B000001002400348006840F400200149086000
:1035C0007047000000100240064A02EB90110968A3
:1035D00000F01F0301229A409143024B03EB90122B
:1035E0001160704700100240064A02EB9011096812
:1035F00000F01F0301229A401143024B03EB90128B
:103600001160704700100240F0B506460024002704
:1036100000251C2E7DD007DCB6B3102E10D0182E3E
:1036200067D01A2E76D176E0B6F5006F19D0B6F5D0
:10363000106F4CD0A6F5405010380028F2D134E07D
:1036400004E01120FFF7A4FF0546641C1DB94FF6E6
:10365000FF708442F5D11120FFF79AFF00B10127D6
:103660007AE005E040F60100FFF792FF0546641C92
:103670001DB96FF07C408442F4D140F60100FFF7A1
:1036800087FF00B1012767E0FFE704E00120FFF7B3
:103690007FFF0546641C15B9B4F5A06FF6D1012073
:1036A000FFF776FF00B1012756E005E043F2110075
:1036B000FFF76EFF0546641C15B929488442F5D111
:1036C00043F21100FFF764FF00B1012744E005E079
:1036D00040F60110FFF75CFF0546641C15B9204851
:1036E0008442F5D140F60110FFF752FF00B10127E7
:1036F00032E004E01920FFF74BFF0546641C15B9C2
:1037000017488442F6D11920FFF742FF00B1012784
:1037100022E010E01FE004E01B20FFF739FF054620
:10372000641C15B90E488442F6D11B20FFF730FF08
:1037300000B1012710E004E01D20FFF729FF054636
:10374000641C15B906488442F6D11D20FFF720FFFE
:1037500000B1012700E000BF00BF3846F0BD000007
:10376000FFFF0F00064A02EB9011096800F01F03EB
:1037700001229A401143024B03EB901211607047F3
:1037800000100240064A02EB9011096800F01F0386
:1037900001229A409143024B03EB90121160704753
:1037A00000100240064A02EB9011096800F01F0366
:1037B00001229A401143024B03EB901211607047B3
:1037C0000010024002460020044B5868044B184089
:1037D00042EA01031843014B586070470010024051
:1037E000FFFFC29F01460020034AD06A20F08040BC
:1037F0000843D062704700000010024002460020DB
:10380000044BD86A044B184042EA01031843014BA9
:10381000D862704700100240F0FFFEFF044A516872
:1038200021F0030141EA0002014B5A607047000099
:10383000001002400248406800F00C007047000091
:1038400000100240002200EB4003990000BF531C0F
:103850001A468B4200D97047F9E7000008B50121EC
:103860001148FFF773FB002003231022D1020090C0
:103870000E48FEF742FF0020032310229101009022
:103880000B48FEF73AFF0020032304225102009068
:103890000748FEF732FF0020032310221102009098
:1038A0000348FEF72AFF08BD00023000000801406F
:1038B0000010014010B50C480078022809D100F032
:1038C000EBF800F00200022801D1012010BD002019
:1038D000FCE700F0E1F800F08000802801D1002032
:1038E000F4E70120F2E700006041002010B54FF43A
:1038F00000610248FEF711FF10BD000000100140FA
:1039000070B50024002516E000224FF480610C48B9
:1039100000F01EF901229102094800F019F9FFF7A1
:10392000E5FF012803D100EB4400C4B201E06006CA
:10393000040E681CC5B2082DE6DB204670BD0000F1
:10394000001001402DE9F04107460D4616460024BF
:1039500001229102114800F0FBF80122D103104826
:1039600000F0F6F800F08EF800224FF400410C4809
:1039700000F0EEF8384600F0C3F800BF04E0285D20
:1039800000F0BEF8601CC4B2B442F8DB0122D103DF
:10399000034800F0DDF8BDE8F081000000100140B0
:1039A000000801402DE9F04101229102314800F068
:1039B000CFF80122D103304800F0CAF800F062F8D5
:1039C00000224FF400412C4800F0C2F800F05AF8F1
:1039D0009F2000F095F800BFFFF792FF0546FFF724
:1039E0008FFF0646FFF78CFF074600224FF4004189
:1039F000214800F0ADF800F045F80122D1031E483F
:103A000000F0A6F8012211031A4800F0A1F82806D8
:103A100040EA064040EA072418482044A8B901209B
:103A2000174908704FF404704880082048704FF41C
:103A3000845088804FF40070C880C00008814FF423
:103A40000410C8600012488111E002200C4908707F
:103A5000C00148801020487000028880C010C880D3
:103A6000000108810002C8600012488100BF00BF49
:103A7000BDE8F08100100140000801400000DAE0DC
:103A80006041002000BF00BF00BF00BF00BF00BFFB
:103A900000BF00BF7047000010B501229102154819
:103AA00000F056F80122D103134800F051F8FFF757
:103AB000E9FF00224FF400410F4800F049F80F4899
:103AC0000078022803D1052000F01AF802E0572000
:103AD00000F016F8FFF714FF04460122D103064850
:103AE00000F036F801221103024800F031F82046B8
:103AF00010BD00000010014000080140604100209E
:103B000070B5044600251EE004F08000802805D131
:103B1000012241010D4800F01BF805E000224FF49E
:103B200080510A4800F014F800224FF480610748E1
:103B300000F00EF801229102044800F009F8600636
:103B4000040E681CC5B2082DDEDB70BD00100140FC
:103B500070B505460C461646324621462846FEF705
:103B6000E8FD102C0BD100BF00BF00BF00BF00BF9D
:103B700000BF00BF00BF00BF00BF00BF00BF70BDDF
:103B80002DE9F04704460D460027B846B946002601
:103B90001D49601A8C421CD006DC1C48204470B1C0
:103BA000B0F5806F1FD10FE0B0F5806F16D0B0F583
:103BB0006C4F18D10320FFF7EDFB074614E00220FD
:103BC000FFF7E8FB07460FE00220FFF7E3FB07469D
:103BD0000AE00220FFF7DEFB074605E00220FFF7C0
:103BE000D9FB074600E000BF00BF07EB5500B0FB64
:103BF000F5F64FF6F07006EA000806F00F0948EAFD
:103C00000900A060BDE8F087004C004000BCFFBF89
:103C100001464868C0F308007047C1F308024260DB
:103C20007047000010B504462049601A8C4228D025
:103C300006DC1F48204490B1B0F5806F33D117E007
:103C4000B0F5806F26D0B0F56C4F2CD140F20E301D
:103C5000FFF7A8FD40F20E30FFF794FD24E040F29C
:103C60001140FFF79FFD40F21140FFF78BFD1BE075
:103C700040F21240FFF796FD40F21240FFF782FD3E
:103C800012E040F21340FFF78DFD40F21340FFF7C2
:103C900079FD09E040F21440FFF784FD40F2144042
:103CA000FFF770FD00E000BF00BF10BD004C0040FA
:103CB00000BCFFBFC16821F40051C1607047C168FA
:103CC00041F40051C160704710B5024602EB9110FB
:103CD000006801F01F040123A340184008B101202F
:103CE00010BD0020FCE710B500EB9112126801F046
:103CF0001F040123A3409A4300EB91131A6010BDE7
:103D000010B500EB9112126801F01F040123A340CB
:103D10001A4300EB91131A6010BD10B500EB9152DD
:103D20001268C1F304440123A3409A4300EB91536A
:103D30001A6010BD70B5024600230024C1F389103B
:103D4000105801F01F060125B54000EA050302EBFB
:103D500091500068C1F304460125B54000EA05040E
:103D600014B10BB1012070BD0020FCE70A46002110
:103D7000C16821F004011143C16070470A46002167
:103D8000C16821F008011143C160704700000000C4
:103D90000000000000000000000000000000000023
:103DA0000000000000000000000000000000000013
:103DB0000000000000000000000000000059415811
:103DC0004F4E31323334354142434445363738392A
:103DD000303132333435464748494A36373839303E
:103DE0004B4C4D4E4F535550455231323334354183
:103DF000424344453637383930313233343546471B
:103E000048494A36373839304B4C4D4E4F00000048
:04000005080001638B
:00000001FF
